:100000000C94D4000C94FC000C94FC000C94FC00A8
:100010000C94FC000C94FC000C94FC000C94FC0070
:100020000C94FC000C94FC000C9445080C94B4084F
:100030000C94FC000C94FC000C94FC000C94FC0050
:100040000C94FC000C94FC000C94FC000C94FC0040
:100050000C94FC000C94FC000C94FC000C94E60A3C
:100060000C94FC000C94FC000C94FC000C94FC0020
:100070000C94FC000C94FC000C94FC000C94FC0010
:100080000C94FC000C94FC000C94FC000C94FC0000
:100090000C94FC000C94FC000C94FC000C94FC00F0
:1000A0000C94FC000C94FC000C94FC000706050466
:1000B0000100080A0B0C0D090000000024002700B5
:1000C0002A002D00300000000000250028002B0031
:1000D0002E00310004040404040304050202020299
:1000E00004030202020206060606060604040202D1
:1000F00002040404080201104080401020408040A7
:10010000800802040180402010020110801020406D
:1001100040200000000200090F0000030401000C51
:1001200000000000000000000000000000000000CF
:1001300000080B0002020200000904000001020294
:100140000000052400100105240101010424020619
:100150000524060001070581031000400904010081
:10016000020A0000000705020240000007058302A2
:100170004000000403090412010002EF02014041A3
:1001800023368000010102030141726475696E6FBC
:10019000204C4C430041726475696E6F204C656F52
:1001A0006E6172646F00AF0E11241FBECFEFDAE0F4
:1001B000DEBFCDBF11E0A0E0B1E0ECE2FEE102C0A5
:1001C00005900D92A239B107D9F727E0A2E9B1E075
:1001D00001C01D92A038B207E1F710E0C4EDD0E0F5
:1001E00004C02197FE010E940E0FC33DD107C9F73D
:1001F0000E94300B0C94140F0C940000FC018091B1
:100200002F07882311F13FB7F89482E08093E9002B
:100210002091F200822F90E01816190614F481E064
:1002200090E0882339F0289844E640932E074091C7
:10023000F1004083222339F02091F200211103C004
:100240002BE62093E8003FBF08958FEF9FEF0895BE
:100250002FB7F89483E08093E9009091E800892F0C
:10026000807295FF04C09091F20080E4891B2FBF3B
:1002700008958091260781110DC082E080932207A6
:1002800084E080932307109225071092240781E0D1
:100290008093260782E297E008954091A001509153
:1002A000A10120919E0130919F0142175307B4F4A0
:1002B0009091E8009570E1F39091E80092FD19C0EB
:1002C0008093F1008091A0019091A10101968F731C
:1002D0009927892B19F48EEF8093E8008091A00173
:1002E0009091A10101969093A1018093A00181E0DA
:1002F000089580E00895EF92FF920F931F93CF939C
:10030000DF93F82E192FE62E042F81E0860F880F39
:100310000E944D0183E00E944D01CF2DD12FEC0EA4
:10032000FD2EF11CCE15DF05B9F007FF13C0FE014D
:1003300084910E944D01182F80E00E944D0181237D
:1003400021968111EFCFDF91CF911F910F91FF90F7
:10035000EF9008958881EDCF81E0F5CFDF92EF92A5
:10036000FF920F931F93CF93DF93D82E8A01EB0157
:100370007B01E40EF51ECE15DF0559F0D7FE12C045
:10038000FE0184910E944D0121968111F4CF0FEF5F
:100390001FEFC801DF91CF911F910F91FF90EF9058
:1003A000DF9008958881EECF0F931F93CF93DF9353
:1003B0001F92CDB7DEB782E0898342E450E061E36B
:1003C00071E080E80E94AE010E943901DC011296C2
:1003D0000D911C910115110589F0D801ED91FC9149
:1003E0000280F381E02DBE016F5F7F4FC801099548
:1003F00097FD04C0F80100851185ECCF89810F902D
:10040000DF91CF911F910F910895615030F02091AD
:10041000F100FC0120830196F8CF289884E68093B0
:100420002E070895CF93DF931F92CDB7DEB7698370
:10043000DC01ED91FC910280F381E02D41E050E080
:10044000BE016F5F7F4F09950F90DF91CF910895A7
:1004500083E08093E9008091F200882319F08AE319
:100460008093E80008950E94280190E00895CF93BA
:10047000DF931F92CDB7DEB7FC018485958597FD8C
:1004800008C02FEF3FEF358724870F90DF91CF9182
:100490000895CE0101960E94FE00019719F489810A
:1004A00090E0F3CF8FEF9FEFF0CF0F931F93CF9399
:1004B000DF931F92CDB7DEB78C01FC018485958553
:1004C00097FF0BC0CE0101960E94FE00019771F4C8
:1004D000898190E0F80195878487F8018485958566
:1004E0000F90DF91CF911F910F9108958FEF9FEFA4
:1004F000F1CFFC018485958597FD0BC09FB7F894DB
:1005000082E08093E9008091F2009FBF90E0019625
:1005100008959FB7F89482E08093E9008091F200FB
:100520009FBF90E00895282F30E0F901EE5EFE4F66
:100530009491F901ED50FF4F84912C523F4FF901F6
:100540002491222309F430C09923E9F091509F307F
:10055000D0F4E92FF0E0E155FD4F0C940E0FDD02D1
:10056000E102BE02D502D902C302C302C302E40201
:10057000EA02EE02F202F802C302FC02909180004D
:100580009F7790938000E22FF0E0EE0FFF1FEA5379
:10059000FF4FA591B4919FB7F894EC91611132C0CF
:1005A00080958E238C939FBF0895909180009F7DAE
:1005B000E8CF90918000977FE4CF94B59F7794BD6A
:1005C000E2CF94B59F7DFBCF909190009F77909361
:1005D0009000D9CF909190009F7DF9CF909190009D
:1005E000977FF5CF9091C0009F779093C000CBCFBD
:1005F0009091C0009F7DF9CF9091C200977F90931A
:10060000C200C1CF8E2BCECFCF93DF9390E0FC0101
:10061000ED50FF4F24918C529F4FFC018491882311
:10062000D1F090E0880F991FFC01E854FF4FA5918D
:10063000B491FC01EA53FF4FC591D49161110EC0F2
:100640009FB7F8948C91E22FE0958E238C932881AC
:10065000E223E8839FBFDF91CF9108958FB7F8948D
:10066000EC91E22BEC938FBFF6CF3FB7F8948091DB
:100670009A0190919B01A0919C01B0919D0126B59A
:10068000A89B05C02F3F19F00196A11DB11D3FBFCA
:10069000BA2FA92F982F8827BC01CD01620F711D99
:1006A000811D911D42E0660F771F881F991F4A9593
:1006B000D1F708958F929F92AF92BF92CF92DF921F
:1006C000EF92FF924B015C010E9435036B017C01AC
:1006D0000E9435036C197D098E099F09683E73409D
:1006E00081059105A8F321E0821A9108A108B108BB
:1006F00088EEC80E83E0D81EE11CF11C8114910421
:10070000A104B10429F7FF90EF90DF90CF90BF9044
:10071000AF909F908F9008958F929F92AF92BF92CB
:10072000CF92DF92EF92FF920F931F93CF93DF93BD
:100730006C017B018A0180910B01882309F45CC064
:1007400080912F07882309F457C08091A40180FF6E
:1007500005C08091E00082608093E000E801B12C48
:100760008AEFA82E93E0892E2AE3922E209711F487
:10077000BB20D9F10E94280181110AC0AA94AA20A5
:10078000D9F161E070E080E090E00E945A03EECF82
:100790008C171D0611F00CF08C2F9FB7F8948092E7
:1007A000E9002091E80025FD02C09FBFDFCF282F80
:1007B00030E0C21BD30BF701815020F041914093F0
:1007C000F100FACFE20EF31EBB2021F09092E80078
:1007D000B12CEBCF8091E80085FDE7CF9092E80047
:1007E000BB24B394209709F3F3CF5D9884E68093FC
:1007F000A301101611063CF081E090E0F60193830E
:10080000828310E000E0C801DF91CF911F910F912A
:10081000FF90EF90DF90CF90BF90AF909F908F9020
:1008200008952091920630919306203B94E0390779
:1008300054F4F901EE51FE4F80832F5F3F4F309308
:100840009306209392060895CF92DF92EF92FF9243
:1008500080919201882371F180E4C090AA01D09028
:10086000AB01E090AC01F090AD019C2D9F73892B02
:100870000E94110486E0F594E794D794C7948A9572
:10088000D1F7C092AA01D092AB01E092AC01F092F4
:10089000AD01C090AA01D090AB01E090AC01F09006
:1008A000AD011C141D041E041F0434F48C2D8F7321
:1008B0008068DECF80E0D1CFFF90EF90DF90CF90C7
:1008C0000895CF92DF92EF92FF921F93CF93DF9321
:1008D000EFEAF0E0E49190917B008E2F880F880F73
:1008E00080729F7D892B80937B00E770E064E093AA
:1008F0007C0080917A00806480937A0080917A00F5
:1009000086FDFCCF80917800C0917900DC2FC82F44
:100910000E943503C0909501D0909601E090970118
:10092000F09098016C197D098E099F096139714019
:100930008105910508F44EC08BE193E00197F1F732
:100940000E943503609395017093960180939701FF
:1009500090939801809193019091940101969093C6
:1009600094018093930160E080FD61E082E00E9449
:10097000930211E0C03821E0D20708F410E085E0CE
:10098000D695C7958A95E1F7CE71DD27CC56D94F1C
:10099000888199810196998388838091AA01909199
:1009A000AB01A091AC01B091AD010097A105B105DB
:1009B00051F120919201211731F10E9424041093EA
:1009C0009201812FDF91CF911F91FF90EF90DF90E7
:1009D000CF9008950E9435036C197D098E099F09F7
:1009E000683C710581059105A8F388ECC80ED11CFF
:1009F000E11CF11CC0929501D0929601E092970102
:100A0000F0929801A7CF0196A11DB11D8093AA0174
:100A10009093AB01A093AC01B093AD01D0CF8F9276
:100A20009F92AF92BF92CF92DF92EF92FF92CF93BD
:100A3000DF93C82F6A017B010E9435034B015C01E3
:100A40000E946104D82F0E943503DC01CB01881974
:100A50009909AA09BB09CD1729F0C816D906EA06D3
:100A6000FB0670F721E0C816D906EA06FB0608F077
:100A700020E0822FDF91CF91FF90EF90DF90CF9019
:100A8000BF90AF909F908F9008958F929F92AF925A
:100A9000BF92CF92DF92EF92FF9228EC30E040E0DD
:100AA00050E00E94EC0E49015A01C12CD12C760174
:100AB000C814D904EA04FB0441F00E9461048FEFDA
:100AC000C81AD80AE80AF80AF3CFFF90EF90DF902F
:100AD000CF90BF90AF909F908F900895CF93C82FE5
:100AE0000E9424048C2FCF910C94110461E084E1C6
:100AF0000E94930260E083E10C94930260E084E141
:100B00000E94930260E083E10C94930248EB5BE067
:100B100060E070E04093AE015093AF016093B0018C
:100B20007093B10148E756EE60E070E04093B20187
:100B30005093B3016093B4017093B50140EA56E855
:100B400061E070E04093D6015093D7016093D801E3
:100B50007093D90140E45DE063E070E04093DA0116
:100B60005093DB016093DC017093DD0148E853E1B1
:100B700060E070E04093DE015093DF016093E0019C
:100B80007093E101882309F45DC08DE498E0A0E052
:100B9000B0E08093B6019093B701A093B801B093F1
:100BA000B90149E556E060E070E04093BA01509326
:100BB000BB016093BC017093BD014FE55CE060E058
:100BC00070E04093BE015093BF016093C0017093E9
:100BD000C1014CEA56E060E070E04093C2015093DE
:100BE000C3016093C4017093C5014BE354E060E01E
:100BF00070E04093C6015093C7016093C8017093A1
:100C0000C90140ED5EE060E070E04093CA0150939E
:100C1000CB016093CC017093CD014CE251E060E0D8
:100C200070E04093CE015093CF016093D001709358
:100C3000D1018093D2019093D301A093D401B093BA
:100C4000D501089583E298E0A0E0B0E08093B6017A
:100C50009093B701A093B801B093B90185E993E0EF
:100C6000A0E0B0E08093BA019093BB01A093BC01D7
:100C7000B093BD018BE69AE0A0E0B0E08093BE01A6
:100C80009093BF01A093C001B093C10183E896E0A7
:100C9000A0E0B0E08093C2019093C301A093C4018F
:100CA000B093C50188EE93E0A0E0B0E08093C60168
:100CB0009093C701A093C801B093C9018FE59CE050
:100CC000A0E0B0E08093CA019093CB01A093CC0147
:100CD000B093CD018CE291E0A0E0B0E08093CE0132
:100CE0009093CF01A093D001B093D10189E297E016
:100CF000A0E0B0E09ECF009769F0FC0101900020D9
:100D0000E9F73197AF01481B590BBC0180E397E02D
:100D10000C948C0390E080E008958F929F92AF92A4
:100D2000BF920F931F93CF93DF93CDB7DEB7A197F9
:100D30000FB6F894DEBF0FBECDBF19A2423008F443
:100D40004AE08E010F5D1F4F842E912CB12CA12CF7
:100D5000A50194010E94EC0EE62FB901CA01EA3008
:100D6000D4F4E05DD801EE938D01232B242B252BA9
:100D700079F7CD010E947B06A1960FB6F894DEBFED
:100D80000FBECDBFDF91CF911F910F91BF90AF905C
:100D90009F908F900895E95CE5CFCF92DF92EF921C
:100DA000FF92CF93DF936B017C016DE280E397E0CC
:100DB0000E941202EC0166277727CB016C197D098E
:100DC0008E099F094AE00E948D068C0F9D1FDF91BE
:100DD000CF91FF90EF90DF90CF9008950C947B0619
:100DE00042E050E065E271E080E397E00C948C0310
:100DF000CF93DF930E947B06EC010E94F0068C0FDC
:100E00009D1FDF91CF9108950F931F93CF93DF9391
:100E10008C01C0E1D0E0623031F0C0E0D1E063305D
:100E200011F0C0E0D0E1C801BE010E94C40E6F7095
:100E3000062E000C770B880B990B40E10E948D0663
:100E400084E0D695C7958A95E1F7209761F7DF9101
:100E5000CF911F910F9108954F925F926F927F9261
:100E60008F929F92AF92BF92CF92DF92EF92FF92BA
:100E70000F931F93CF93DF93EC016A017B01C114A1
:100E8000D104E104F10441F4C090D601D090D7011F
:100E9000E090D801F090D90180EC0E946E05B70176
:100EA000A60180E00E940F058823D1F089EC0E9402
:100EB0006E0584E591E00E947B068CEF9FEFDF9149
:100EC000CF911F910F91FF90EF90DF90CF90BF9047
:100ED000AF909F908F907F906F905F904F9008950C
:100EE00081EC0E946E054091DA015091DB01609126
:100EF000DC017091DD0181E00E940F05882351F033
:100F000089EC0E946E0588E291E00E947B068DEFDD
:100F10009FEFD5CF82EC0E946E05C090DE01D0908D
:100F2000DF01E090E001F090E101B701A60180E06F
:100F30000E940F05882351F089EC0E946E058EE215
:100F400091E00E947B068EEF9FEFB9CF83EC0E9469
:100F50006E05B701A60181E00E940F05882351F0BC
:100F600089EC0E946E0584E391E00E947B068FEF7E
:100F70009FEFA5CF84EC0E946E0510E00E94350320
:100F80004B015C010E946104082F0E9435032B0174
:100F90003C01481859086A087B08002399F1C414D9
:100FA000D504E604F70470F78AE391E00E947B061B
:100FB000E12E012E000CFF08612F110F770B880B1B
:100FC000990B4AE00E948D066AE380E397E00E9455
:100FD000120220E130E02E193F098881998164E0F6
:100FE00002C0969587952A95E2F70E94040760E271
:100FF00080E397E00E94120289EC0E946E05C7010F
:1010000001965DCFC414D504E604F70468F280901D
:10101000D2019090D301A090D401B090D501B70136
:10102000A60181E00E940F058111BECF88819981C0
:10103000969587959983888384149504A604B704AC
:1010400000F586EC0E946E058881998190689983ED
:1010500088831F5F103109F091CF8DE391E00E94EA
:101060007B0664E0888199810E94040760E280E346
:1010700097E00E94120288EC0E946E0590E080E0EA
:101080001ECF85EC0E946E05E4CF1F920F920FB623
:101090000F9211248F939F938091E1009091E10032
:1010A000937F9093E10083FF0FC01092E90091E0DD
:1010B0009093EB001092EC0092E39093ED0010926D
:1010C0002F0798E09093F00082FF22C093E0909366
:1010D000E9009091F200992319F09AE39093E800C7
:1010E0009091A301992341F09091A3019150909385
:1010F000A301911101C05D9A90912E07992341F0AF
:1011000090912E07915090932E07911101C0289A2B
:1011100084FF18C08091E2008E7E81608093E2009F
:101120008091E1008F7E8093E1008091A4018E7E0A
:1011300080618093A4019F918F910F900FBE0F90BB
:101140001F90189580FFF7CF8091E2008E7E80611E
:101150008093E2008091E1008E7E8093E100809197
:10116000A4018E7E8160E5CF1F920F920FB60F9281
:101170001124CF92DF92EF92FF920F931F932F9340
:101180003F934F935F936F937F938F939F93AF930F
:10119000BF93EF93FF93CF93DF93CDB7DEB76C97F9
:1011A000DEBFCDBF1092E9008091E80083FF25C02B
:1011B00068E0CE0145960E94050282EF8093E80028
:1011C0008D8987FF39C09091E80090FFFCCF982F60
:1011D000907609F034C19E894F89588D2F89F88CFB
:1011E000911131C0803861F58091A5018093F100A3
:1011F0001092F1008EEF8093E8006C960FB6F89491
:10120000DEBF0FBECDBFDF91CF91FF91EF91BF91B8
:10121000AF919F918F917F916F915F914F913F918E
:101220002F911F910F91FF90EF90DF90CF900F9033
:101230000FBE0F901F9018959EEF9093E800C7CFB8
:101240001092F100D5CF913059F48111D3CF4130B4
:10125000510581F68091A5018D7F8093A501CACFAC
:10126000933049F48111C6CF4130510519F6809170
:10127000A5018260F2CF953041F48091E80080FFB3
:10128000FCCF20682093E300B5CF963009F0A9C0C9
:101290000B8D1C8D22E01092E9001092A10110929A
:1012A000A001F2122EC010929F0110929E010E9486
:1012B000D4011F8299E09983FA8291E09E8390EA9B
:1012C00098879AEF99872091A0013091A101275F1B
:1012D0003F4F3C832B838D831092E9001092A10134
:1012E0001092A00110939F0100939E0149E050E0ED
:1012F000BE016F5F7F4F80E00E94AE010E94D4016B
:1013000079CF10939F0100939E010E943901DC0167
:1013100012960D911C910115110509F451C1D801C6
:10132000ED91FC910480F581E02DBE016B5E7F4F55
:10133000C8010995009709F03EC1F80100851185A3
:10134000EACFF3E0FF120EC08F89882309F440C072
:10135000823061F440E860E185E991E00E947B0120
:10136000811148CF81E28093EB0047CF813029F48F
:1013700040E86BE089E891E0F1CF833099F70E9473
:101380003901DC011296ED90FC908E010F5F1F4F2A
:101390006801E114F10479F0D701ED91FC91068028
:1013A000F781E02DB801C7010995080F111DF7015C
:1013B000E084F184EECFD8011C92F6010190002068
:1013C000E9F73197BF016C197D0940E0C601C6CF2E
:1013D00063E771E0FB01449150E080E80E94AE01B8
:1013E00009CF973009F4BECF983021F481E0809383
:1013F000F10000CF993009F0FDCE837009F0B2CF33
:10140000EFE1F1E081E031E096E32191222371F0F8
:101410008093E9003093EB00DF0111972C9120932A
:10142000EC009093ED008F5F873079F78EE7809323
:10143000EA001092EA008F8980932F07DBCE8B8D14
:101440009C8D1092E9001092A1011092A00190933E
:101450009F0180939E01898D811192C08E899D8903
:10146000913A49F4813209F07DCF47E050E064E0E1
:1014700071E080E0B3CF913209F074CF833269F428
:101480008F89988DB0E0A0E08093000190930101D6
:10149000A0930201B0930301ADCE803269F4809134
:1014A000E80082FFFCCF67E084E091E00E94050243
:1014B0008BEF8093E8009ECE823209F09BCE8F891D
:1014C00080930B01EEEFFFE7859194918B3F9C4D4C
:1014D00051F1E0E0F8E08091040190910501A091C4
:1014E0000601B0910701803B9440A105B105F1F4DC
:1014F00080910B0180FD1AC0EE3F8AE0F80789F564
:1015000087E797E791838083809160008093A201B1
:1015100088E19BE00FB6F894A895809360000FBE19
:101520009093600067CEEEEFFAE0D5CF8081918195
:101530008737974709F05ECEA89580916000886153
:10154000809360008091A20180936000EE3F2AE0CA
:10155000F20789F08091FE0A9091FF0A91838083BF
:1015600049CE808191818737980751F29093FF0A85
:101570008093FE0AC5CF1092FF0A1092FE0A3ACE5F
:101580000E943901DC0112960D911C910115110583
:1015900009F4E8CED801ED91FC910190F081E02DA5
:1015A000BE016B5E7F4FC8010995811123CEF80102
:1015B00000851185EBCF181619060CF41BCED2CE80
:1015C000F1E0FF12BECE67E771E004CF1F920F92E9
:1015D0000FB60F9211242F933F938F939F93AF9346
:1015E000BF938091A6019091A701A091A801B0910D
:1015F000A9013091990123E0230F2D3758F5019669
:10160000A11DB11D209399018093A6019093A7017C
:10161000A093A801B093A90180919A0190919B0198
:10162000A0919C01B0919D010196A11DB11D8093D7
:101630009A0190939B01A0939C01B0939D01BF914F
:10164000AF919F918F913F912F910F900FBE0F906F
:101650001F90189526E8230F0296A11DB11DD2CF29
:10166000CF93DF9300D01F92CDB7DEB7789484B5C7
:10167000826084BD84B5816084BD85B5826085BD8E
:1016800085B5816085BD80916E00816080936E001C
:10169000109281008091810082608093810080910E
:1016A00081008160809381008091800081608093BF
:1016B00080008091910082608093910080919100E0
:1016C0008160809391008091900081608093900070
:1016D0008091C10084608093C1008091C1008260CC
:1016E0008093C1008091C10081608093C10080918E
:1016F000C30081608093C3008091C00082608093AA
:10170000C0008091C20081608093C20080917A0005
:10171000846080937A0080917A00826080937A005E
:1017200080917A00816080937A0080917A0080684D
:1017300080937A0010922F071092A5011092A401B5
:101740008091D70081608093D70080EA8093D80091
:1017500089B5806189BD89B5826089BD09B400FE03
:10176000FDCF61E070E080E090E00E945A0380913C
:10177000D8008F7C80618093D8008091E000807FCA
:101780008093E0008091E1008E7E8093E1008DE007
:101790008093E200559A209A8FEF9FEF90933D0738
:1017A00080933C0761E08DE00E94930261E083E159
:1017B0000E94930261E08DE00E94040361E082E0F8
:1017C0000E94040361E084E10E94040361E083E17C
:1017D0000E94040360E085E10E94040380E00E940F
:1017E0008605F5E04F2E512CA0E06A2EA0E07A2E5F
:1017F00080E397E00E947902892B61F18FB7F8941A
:101800008090A6019090A701A090A801B090A90196
:101810008FBFE2EDEE2EE6E0FE2E10E080E397E0D3
:101820000E9437022FB7F8944091A6015091A7016A
:101830006091A8017091A9012FBF481959096A093F
:101840007B09413757416105710530F080E491E033
:101850000E94F806F12C11C08F3F9807F9F28D30E5
:1018600059F08A3049F0F70181937F011F5F1035ED
:10187000A9F689E491E0ECCFF12E0F2D0F2C000C8E
:10188000110B0115110509F4F4C082E591E00E94E5
:10189000EE066F2DFF0C770B880B990B4AE00E9428
:1018A0008D0687E591E00E94EE0672EDE72E76E068
:1018B000F72EF70161917F0180E397E00E94120209
:1018C000C701825D9640801791079CF380E691E006
:1018D0000E94EE068091D2068F7D8434F9F40130A7
:1018E000110519F41092D00624C08091D3068033DC
:1018F00069F485E691E00E94F8061092D106611421
:10190000710409F475CF0E94000072CF8FE691E058
:101910000E94F80681E08093D106F1CF91E0909388
:10192000D006883561F59093CF0688E791E00E9454
:10193000EE060130110539F00530110534F48091BF
:10194000D306803311F01092D0068091D006882300
:1019500009F485C08091D3068033C9F481E0809377
:10196000CE068CE791E00E94EE06073011051CF5CB
:101970008091CE0681111AC01092D00617C086350C
:1019800009F0B0CF1092CF068AE791E0D0CF813333
:1019900009F056C01092CE0681E08093CD068EE706
:1019A00091E00E94EE060730110534F38091D006D5
:1019B000882309F458C08091CE06811158C0C8010F
:1019C0000297B2010E94D80E6D3008F096C0609365
:1019D000CC06F12C65E0E62E8091CC06F81608F0D6
:1019E00046C00F2D10E0FE9CF0011124EB52F94F80
:1019F00044E030E020E054E0220F331F5A95E1F735
:101A0000819190ED980F9A3008F07BC0892F280FB4
:101A1000311D87FD3A95415071F7000F111F0C548D
:101A2000194FF8013183208384E891E00E94EE068B
:101A300064E0F801808191810E940407F394CCCF87
:101A4000823339F41092CE061092CD0680E891E0F0
:101A5000A8CF1092D00682E891E00E94EE060730EF
:101A600011050CF485CF8FE891E00E94EE060E94EC
:101A7000F0068091D006882309F46AC134E9C32EA8
:101A800036E0D32E7601F701119211927F01F4EB2B
:101A9000EF16F6E0FF06B9F7109293061092920641
:101AA0001092AA011092AB011092AC011092AD01FC
:101AB0008091CF069091CE06992309F472C00E94BE
:101AC000860540EC56EC6DE270E0CE0101960E9476
:101AD0002C078C0160E08DE00E9493020115110536
:101AE00019F00D301105DCF040E050E0BA01CE01F4
:101AF00001960E942C078C01F1CF8CE08093CC06DC
:101B000068CF9FE9980F963010F4875580CF9FEBF0
:101B1000980F8753963008F47ACF8FEF78CF60E232
:101B200071EA87E090E00E94450561E08DE00E9447
:101B300093020E94F0068091D106882309F4DFCE3B
:101B400089E891E00E94EE0664E0F60181919191AE
:101B50006F010E94040788E391E00E94EE06EC14F6
:101B6000FD0491F70E94F0068CE891E00E94EE06D9
:101B700002EE11E02091920630919306C801825E38
:101B80009140821793070CF0E0C0F80181918F011A
:101B900062E090E00E94040788E391E00E94EE0674
:101BA000E9CF2091CC062B831091CD060E948605AB
:101BB000112309F4ACC068E873E180E090E00E9472
:101BC0005A0360E08DE00E94930224EBA22E26E0EF
:101BD000B22E312C8B81831509F4A1CFF50101912F
:101BE00011915F0186E891E00E947B0664E0C801E4
:101BF0000E94040760E280E397E00E94120280EEF8
:101C00000E946E056091AE017091AF018091B001AC
:101C10009091B1010E94450581EE0E946E050E94DF
:101C20007E056091B2017091B3018091B4019091F1
:101C3000B5010E94450582EE0E946E050E94760560
:101C40006091B6017091B7018091B8019091B9018E
:101C50000E94450583EE0E946E050E947E056091FC
:101C6000BA017091BB018091BC019091BD010E94AD
:101C700045050E94760590E1292E4801F1E08F226A
:101C8000992486EE00FF85EE0E946E058114910472
:101C900009F449C06091BE017091BF018091C001FB
:101CA0009091C1010E9445050E947E05892809F492
:101CB00043C06091C2017091C3018091C4019091B1
:101CC000C5010E9445050E947605169507952A9440
:101CD0002110D3CF6091CE017091CF018091D001BE
:101CE0009091D1010E94450587EE0E946E0561E04A
:101CF00083E10E94930240E050E0BA01CE010196D8
:101D00000E942C07892B09F00ACF339463CF40EC53
:101D100056EC6DE270E0CE0101960E942C07892BF3
:101D200009F44FCF06CF6091C6017091C701809131
:101D3000C8019091C901B6CF6091CA017091CB01E1
:101D40008091CC019091CD01BCCF0E94F006D7CDFF
:101D500068EE73E080E090E00E945A03D0CDE0E3AB
:101D6000F7E01382128288EE93E0A0E0B0E0848373
:101D70009583A683B78380E191E0918380838FEF81
:101D80009FEF958784870895AA1BBB1B51E107C06D
:101D9000AA1FBB1FA617B70710F0A61BB70B881FFB
:101DA000991F5A95A9F780959095BC01CD0108958A
:101DB00097FB072E16F4009407D077FD09D00E94F8
:101DC000C40E07FC05D03EF4909581959F4F089571
:101DD000709561957F4F0895A1E21A2EAA1BBB1B37
:101DE000FD010DC0AA1FBB1FEE1FFF1FA217B307E7
:101DF000E407F50720F0A21BB30BE40BF50B661FFD
:101E0000771F881F991F1A9469F7609570958095C0
:101E100090959B01AC01BD01CF010895EE0FFF1F0E
:0C1E20000590F491E02D0994F894FFCF98
:101E2C00FFFFFFFF00E100000000000000000000C9
:101E3C0012028C033302280279023702550200C1C8
:101E4C0080810000000D0A00743A2D332000743A92
:101E5C002D322000743A2D312000743A00723A0071
:101E6C00746F6F206C61746500746F6F206C6F6E93
:101E7C006700676F7420002062797465733A2000E4
:101E8C00202D3E20006465627567206F66660064D5
:101E9C0065627567206F6E00580056003000310087
:101EAC0032003F002D00733A00633A00643A004E52
:021EBC00000024
:00000001FF
