:100000000C945D000C9485000C9485000C94850084
:100010000C9485000C9485000C9485000C9485004C
:100020000C9485000C9485000C9485000C9485003C
:100030000C9485000C9485000C9485000C9485002C
:100040000C94E8060C9485000C94B6060C9490066B
:100050000C9485000C9485000C9485000C9485000C
:100060000C9485000C9485000000000024002700FB
:100070002A0000000000250028002B0004040404CE
:100080000404040402020202020203030303030342
:10009000010204081020408001020408102001021F
:1000A00004081020000000080002010000030407FB
:1000B00000000000000000008A0A11241FBECFEFDC
:1000C000D8E0DEBFCDBF11E0A0E0B1E0E2E1F6E1B3
:1000D00002C005900D92AE37B107D9F727E0AEE721
:1000E000B1E001C01D92A33AB207E1F710E0CDE5FF
:1000F000D0E004C02197FE010E94010BCC35D1074E
:10010000C9F70E9432070C94070B0C940000AF92C1
:10011000BF92CF92DF92EF92FF920F931F93CF93F4
:10012000DF936C017B018B01040F151FEB015E0156
:10013000AE18BF08C017D10759F06991D601ED91EB
:10014000FC910190F081E02DC6010995892B79F78A
:10015000C501DF91CF911F910F91FF90EF90DF903C
:10016000CF90BF90AF900895FC01538D448D252F03
:1001700030E0842F90E0821B930B541710F0CF9641
:10018000089501970895FC01918D828D981761F073
:10019000A28DAE0FBF2FB11D5D968C91928D9F5F8A
:1001A0009F73928F90E008958FEF9FEF0895FC0169
:1001B000918D828D981731F0828DE80FF11D858D1C
:1001C00090E008958FEF9FEF0895FC01918D228DAF
:1001D000892F90E0805C9F4F821B91098F73992734
:1001E000089586E097E00E94E50021E0892B09F45C
:1001F00020E0822F089580E090E0892B29F00E9472
:10020000F10081110C9400000895FC01A48DA80F49
:10021000B92FB11DA35ABF4F2C91848D90E0019648
:100220008F739927848FA689B7892C93A089B18968
:100230008C91837080648C93938D848D981306C009
:100240000288F389E02D80818F7D80830895EF926D
:10025000FF920F931F93CF93DF93EC0181E0888F80
:100260009B8D8C8D98131AC0E889F989808185FF50
:1002700015C09FB7F894EE89FF896083E889F989F2
:1002800080818370806480839FBF81E090E0DF91F4
:10029000CF911F910F91FF90EF900895F62E0B8D47
:1002A00010E00F5F1F4F0F731127E02E8C8D8E1102
:1002B0000CC00FB607FCFACFE889F989808185FF69
:1002C000F5CFCE010E940501F1CFEB8DEC0FFD2F94
:1002D000F11DE35AFF4FF0829FB7F8940B8FEA8924
:1002E000FB8980818062CFCF682F86E097E00C94F5
:1002F0002701CF93DF93EC01888D8823B9F0AA8979
:10030000BB89E889F9898C9185FD03C0808186FDD0
:100310000DC00FB607FCF7CF8C9185FFF2CF80811F
:1003200085FFEDCFCE010E940501E9CFDF91CF918E
:10033000089590E0FC01EC55FF4F2491FC01E0573B
:10034000FF4F3491FC01E458FF4FE491EE23C9F0D4
:10035000222339F0233001F1A8F4213019F12230A1
:1003600029F1F0E0EE0FFF1FEE58FF4FA591B49179
:100370008FB7F894EC91611126C030953E233C93E1
:100380008FBF08952730A9F02830C9F0243049F7ED
:10039000809180008F7D03C0809180008F77809353
:1003A0008000DFCF84B58F7784BDDBCF84B58F7DB0
:1003B000FBCF8091B0008F778093B000D2CF809137
:1003C000B0008F7DF9CF3E2BDACFCF93DF9390E053
:1003D000FC01E057FF4F249184589F4FFC0184910A
:1003E0008823D1F090E0880F991FFC01E859FF4F56
:1003F000A591B491FC01EE58FF4FC591D4916111C4
:100400000EC09FB7F8948C91E22FE0958E238C93C9
:100410002881E223E8839FBFDF91CF9108958FB7B2
:10042000F894EC91E22BEC938FBFF6CF3FB7F894A2
:100430008091860190918701A0918801B0918901F6
:1004400026B5A89B05C02F3F19F00196A11DB11D2F
:100450003FBFBA2FA92F982F8827BC01CD01620F6B
:10046000711D811D911D42E0660F771F881F991F26
:100470004A95D1F708958F929F92AF92BF92CF92F3
:10048000DF92EF92FF924B015C010E9416026B011A
:100490007C010E9416026C197D098E099F09683E35
:1004A000734081059105A8F321E0821A9108A10803
:1004B000B10888EEC80E83E0D81EE11CF11C81143F
:1004C0009104A104B10429F7FF90EF90DF90CF9041
:1004D000BF90AF909F908F900895209176063091B5
:1004E0007706203B94E0390754F4F901EA53FE4FB4
:1004F00080832F5F3F4F30937706209376060895D1
:10050000CF92DF92EF92FF9280917E01882371F16A
:1005100080E4C0908E01D0908F01E0909001F09027
:1005200091019C2D9F73892B0E946D0286E0F594AA
:10053000E794D794C7948A95D1F7C0928E01D09250
:100540008F01E0929001F0929101C0908E01D090C5
:100550008F01E0909001F09091011C141D041E0485
:100560001F0434F48C2D8F738068DECF80E0D1CFF0
:10057000FF90EF90DF90CF900895CF92DF92EF92AF
:10058000FF921F93CF93DF9383E480937C0080914D
:100590007A00806480937A0080917A0086FDFCCF97
:1005A00080917800C0917900DC2FC82F0E9416023C
:1005B000C0908101D0908201E0908301F09084018D
:1005C0006C197D098E099F0961397140810591057A
:1005D00008F44EC08BE193E00197F1F70E941602F8
:1005E00060938101709382018093830190938401D1
:1005F00080917F019091800101969093800180937A
:100600007F0160E080FD61E082E00E94990111E0DD
:10061000C03821E0D20708F410E085E0D695C795F0
:100620008A95E1F7CE71DD27C858D94F8881998125
:1006300001969983888380918E0190918F01A0917A
:100640009001B09191010097A105B10551F1209160
:100650007E01211731F10E94800210937E01812FCB
:10066000DF91CF911F91FF90EF90DF90CF90089591
:100670000E9416026C197D098E099F09683C71055C
:1006800081059105A8F388ECC80ED11CE11CF11C72
:10069000C0928101D0928201E0928301F0928401A4
:1006A000A7CF0196A11DB11D80938E0190938F015C
:1006B000A0939001B0939101D0CF8F929F92AF926F
:1006C000BF92CF92DF92EF92FF92CF93DF93C82F2A
:1006D0006A017B010E9416024B015C010E94BD026F
:1006E000D82F0E941602DC01CB0188199909AA09AA
:1006F000BB09CD1729F0C816D906EA06FB0670F724
:1007000021E0C816D906EA06FB0608F020E0822F91
:10071000DF91CF91FF90EF90DF90CF90BF90AF909F
:100720009F908F9008958F929F92AF92BF92CF9299
:10073000DF92EF92FF9228EC30E040E050E00E9420
:10074000DF0A49015A01C12CD12C7601C814D90401
:10075000EA04FB0441F00E94BD028FEFC81AD80AD8
:10076000E80AF80AF3CFFF90EF90DF90CF90BF90A8
:10077000AF909F908F900895CF93C82F0E948002D2
:100780008C2FCF910C946D0261E080E10E94990161
:1007900060E08FE00C94990160E080E10E94990193
:1007A00060E08FE00C94990148EB5BE060E070E062
:1007B000409392015093930160939401709395013B
:1007C00048E756EE60E070E0409396015093970141
:1007D000609398017093990140EA56E861E070E0F7
:1007E0004093BA015093BB016093BC017093BD016B
:1007F00040E45DE063E070E04093BE015093BF01D0
:100800006093C0017093C10148E853E160E070E07B
:100810004093C2015093C3016093C4017093C5011A
:10082000882309F45DC08DE498E0A0E0B0E08093F7
:100830009A0190939B01A0939C01B0939D0149E57F
:1008400056E060E070E040939E0150939F016093FA
:10085000A0017093A1014FE55CE060E070E040937F
:10086000A2015093A3016093A4017093A5014CEAE7
:1008700056E060E070E04093A6015093A7016093BA
:10088000A8017093A9014BE354E060E070E040934D
:10089000AA015093AB016093AC017093AD0140EDA0
:1008A0005EE060E070E04093AE015093AF01609372
:1008B000B0017093B1014CE251E060E070E0409310
:1008C000B2015093B3016093B4017093B50180936A
:1008D000B6019093B701A093B801B093B901089500
:1008E00083E298E0A0E0B0E080939A0190939B01AE
:1008F000A0939C01B0939D0185E993E0A0E0B0E056
:1009000080939E0190939F01A093A001B093A101B9
:100910008BE69AE0A0E0B0E08093A2019093A3015F
:10092000A093A401B093A50183E896E0A0E0B0E015
:100930008093A6019093A701A093A801B093A90169
:1009400088EE93E0A0E0B0E08093AA019093AB0121
:10095000A093AC01B093AD018FE59CE0A0E0B0E0C6
:100960008093AE019093AF01A093B001B093B10119
:100970008CE291E0A0E0B0E08093B2019093B301EB
:10098000A093B401B093B50189E297E0A0E0B0E094
:100990009ECF009769F0FC0101900020E9F73197A4
:1009A000AF01481B590BBC0186E097E00C9487000F
:1009B00090E080E008958F929F92AF92BF920F9344
:1009C0001F93CF93DF93CDB7DEB7A1970FB6F894FF
:1009D000DEBF0FBECDBF19A2423008F44AE08E013F
:1009E0000F5D1F4F842E912CB12CA12CA5019401D9
:1009F0000E94DF0AE62FB901CA01EA30D4F4E05DB3
:100A0000D801EE938D01232B242B252B79F7CD01D3
:100A10000E94C904A1960FB6F894DEBF0FBECDBFE9
:100A2000DF91CF911F910F91BF90AF909F908F90CA
:100A30000895E95CE5CFCF92DF92EF92FF92CF93DA
:100A4000DF936B017C016DE286E097E00E94270155
:100A5000EC0166277727CB016C197D098E099F0968
:100A60004AE00E94DB048C0F9D1FDF91CF91FF9025
:100A7000EF90DF90CF9008950C94C90442E050E0CD
:100A800062E171E086E097E00C948700CF93DF93FA
:100A90000E94C904EC010E943E058C0F9D1FDF914E
:100AA000CF9108950F931F93CF93DF938C01C0E1F3
:100AB000D0E0623031F0C0E0D1E0633011F0C0E04E
:100AC000D0E1C801BE010E94B70A6F70062E000C6B
:100AD000770B880B990B40E10E94DB0484E0D695EC
:100AE000C7958A95E1F7209761F7DF91CF911F9124
:100AF0000F9108954F925F926F927F928F929F9283
:100B0000AF92BF92CF92DF92EF92FF920F931F931B
:100B1000CF93DF93EC016A017B01C114D104E1049E
:100B2000F10441F4C090BA01D090BB01E090BC0147
:100B3000F090BD0180EC0E94BC03B701A60180E0EB
:100B40000E945D038823D1F089EC0E94BC0381E4FC
:100B500091E00E94C9048CEF9FEFDF91CF911F912C
:100B60000F91FF90EF90DF90CF90BF90AF909F904C
:100B70008F907F906F905F904F90089581EC0E94CE
:100B8000BC034091BE015091BF016091C0017091C2
:100B9000C10181E00E945D03882351F089EC0E942D
:100BA000BC0385E191E00E94C9048DEF9FEFD5CF92
:100BB00082EC0E94BC03C090C201D090C301E090BF
:100BC000C401F090C501B701A60180E00E945D0359
:100BD000882351F089EC0E94BC038BE191E00E94D4
:100BE000C9048EEF9FEFB9CF83EC0E94BC03B7011D
:100BF000A60181E00E945D03882351F089EC0E94E8
:100C0000BC0381E291E00E94C9048FEF9FEFA5CF62
:100C100084EC0E94BC0310E00E9416024B015C01B0
:100C20000E94BD02082F0E9416022B013C014818A9
:100C300059086A087B08002389F1C414D504E60426
:100C4000F70470F787E291E00E94C904E12E012EBB
:100C5000000CFF08612F110F770B880B990B4AE0EE
:100C60000E94DB048AE390E00E94740120E130E0FE
:100C70002E193F098881998164E002C09695879575
:100C80002A95E2F70E94520580E290E00E947401EA
:100C900089EC0E94BC03C70101965FCFC414D50440
:100CA000E604F70478F28090B6019090B701A09026
:100CB000B801B090B901B701A60181E00E945D03BF
:100CC0008111C0CF88819981969587959983888372
:100CD00084149504A604B704F8F486EC0E94BC03BF
:100CE000888199819068998388831F5F103109F00A
:100CF00093CF8AE291E00E94C90464E088819981DF
:100D00000E94520580E290E00E94740188EC0E94EB
:100D1000BC0390E080E021CF85EC0E94BC03E5CFCE
:100D20001F920F920FB60F9211242F933F934F9360
:100D30005F936F937F938F939F93AF93BF93EF9343
:100D4000FF9386E097E00E940501FF91EF91BF912C
:100D5000AF919F918F917F916F915F914F913F9153
:100D60002F910F900FBE0F901F9018951F920F920A
:100D70000FB60F9211242F938F939F93EF93FF93AE
:100D8000E0911607F09117078081E0911C07F09120
:100D90001D0782FD1BC0908180911F078F5F8F739D
:100DA00020912007821741F0E0911F07F0E0EA5FF1
:100DB000F84F958F80931F07FF91EF919F918F912F
:100DC0002F910F900FBE0F901F9018958081F4CF38
:100DD0001F920F920FB60F9211242F933F938F9370
:100DE0009F93AF93BF9380918A0190918B01A091C3
:100DF0008C01B0918D013091850123E0230F2D37B7
:100E000058F50196A11DB11D2093850180938A019B
:100E100090938B01A0938C01B0938D0180918601FA
:100E200090918701A0918801B09189010196A11D3F
:100E3000B11D8093860190938701A0938801B093A0
:100E40008901BF91AF919F918F913F912F910F9009
:100E50000FBE0F901F90189526E8230F0296A11D34
:100E6000B11DD2CFCF93DF9300D01F92CDB7DEB7A5
:100E7000789484B5826084BD84B5816084BD85B575
:100E8000826085BD85B5816085BD80916E00816081
:100E900080936E0010928100809181008260809327
:100EA0008100809181008160809381008091800029
:100EB0008160809380008091B10084608093B10054
:100EC0008091B00081608093B00080917A0084604E
:100ED00080937A0080917A00826080937A0080917A
:100EE0007A00816080937A0080917A008068809394
:100EF0007A001092C100E0911607F091170782E086
:100F00008083E0911207F09113071082E09114079B
:100F1000F09115078FEC808310921E07E0911A075D
:100F2000F0911B0786E08083E0911807F091190784
:100F3000808180618083E0911807F091190780819A
:100F400088608083E0911807F0911907808180689C
:100F50008083E0911807F091190780818F7D80834D
:100F600061E08DE00E94990161E08FE00E949901AB
:100F700061E08DE00E94E50161E082E00E94E50110
:100F800061E080E10E94E50161E08FE00E94E501FF
:100F900060E081E10E94E50180E00E94D403F8E96D
:100FA0004F2EF6E05F2EA5E06A2E712C86E097E0CA
:100FB0000E94E500892B61F18FB7F89480908A0137
:100FC00090908B01A0908C01B0908D018FBFE6EBCB
:100FD000EE2EE6E0FE2E10E086E097E00E94C300D1
:100FE0002FB7F89440918A0150918B0160918C0148
:100FF00070918D012FBF481959096A097B09413742
:1010000057416105710530F08DE291E00E9446057F
:10101000F12C11C08F3F9807F9F28D3059F08A30CA
:1010200049F0F70181937F011F5F1035A9F686E330
:1010300091E0ECCFF12E0F2D0F2C000C110B0115B0
:10104000110509F406C18FE391E00E943C056F2D64
:10105000FF0C770B880B990B4AE00E94DB0484E4B9
:1010600091E00E943C0576EBE72E76E0F72EF70143
:1010700061917F0186E097E00E942701C701865BAE
:101080009640801791079CF38DE491E00E943C0507
:101090008091B6068F7D843429F50130110519F44D
:1010A0001092B4062BC08091B706803399F482E584
:1010B00091E00E9446051092B50680E090E0892BF1
:1010C00009F474CF0E94F100882309F46FCF0E94C5
:1010D00000006CCF8CE591E00E94460581E0809392
:1010E000B506EBCF91E09093B406883509F075C052
:1010F0009093B30685E691E00E943C05013011050E
:1011000039F00530110534F48091B706803311F0C1
:101110001092B4068091B406882361F08091B706DE
:10112000803309F062C081E08093B20689E691E0E5
:101130000E943C050730110534F48091B2068111FC
:1011400002C01092B4068091B406882309F477C0D7
:101150008091B206811173C0C8010297B3010E9449
:10116000CB0A6D3008F059C06093B006F12C65E0F1
:10117000E62E8091B006F81608F061C00F2D10E041
:10118000FE9CF0011124E754F94F44E030E020E0E8
:1011900054E0220F331F5A95E1F7819190ED980F9B
:1011A0009A3008F03EC0892F280F311D87FD3A95EF
:1011B000415071F7000F111F0856194FF801318384
:1011C000208381E791E00E943C0564E0F801808182
:1011D00091810E945205F394CCCF863509F060CFFF
:1011E0001092B30687E691E087CF813341F41092E5
:1011F000B20681E08093B1068BE691E099CF82330D
:1012000039F41092B2061092B1068DE691E090CFBB
:101210001092B4068FE691E08BCF8CE08093B006FD
:10122000A5CF9FE9980F963010F48755BDCF9FEB5F
:10123000980F8753963008F4B7CF8FEFB5CF8091D2
:10124000B406811104C083E791E00E943C050E942E
:101250003E058091B406882309F455C138E7C32EB2
:1012600036E0D32E7601F701119211927F014E16CE
:101270005F06C9F7109277061092760610928E01DB
:1012800010928F0110929001109291018091B306FB
:101290009091B206992309F460C00E94D40340ECF7
:1012A00056EC6DE270E0CE0101960E947A058C0149
:1012B00060E08DE00E9499010115110519F00D30D3
:1012C00011054CF040E050E0BA01CE0101960E94B9
:1012D0007A058C01F1CF60E271EA87E090E00E942C
:1012E000930361E08DE00E9499010E943E05809188
:1012F000B506882309F4E1CE88E791E00E943C0519
:1013000064E0F601819191916F010E94520585E29E
:1013100091E00E943C05EC14FD0491F70E943E050B
:101320008BE791E00E943C0506EC11E020917606E7
:1013300030917706C801865C9140821793070CF0C4
:10134000DFC0F80181918F0162E090E00E945205B8
:1013500085E291E00E943C05E9CFF091B006FB8365
:101360001091B1060E94D403112309F4ABC068E8C0
:1013700073E180E090E00E943B0260E08DE00E941B
:10138000990128E9A22E26E0B22E312C2B812315BB
:1013900009F4A1CFF501019111915F0185E791E079
:1013A0000E94C90464E0C8010E94520580E290E0F6
:1013B0000E94740180EE0E94BC03609192017091C2
:1013C000930180919401909195010E94930381EE85
:1013D0000E94BC030E94CC0360919601709197011A
:1013E00080919801909199010E94930382EE0E944E
:1013F000BC030E94C40360919A0170919B0180918B
:101400009C0190919D010E94930383EE0E94BC0376
:101410000E94CC0360919E0170919F018091A00178
:101420009091A1010E9493030E94C40390E1292E90
:101430004801F1E08F22992486EE00FF85EE0E949C
:10144000BC038114910409F449C06091A201709118
:10145000A3018091A4019091A5010E9493030E9491
:10146000CC03892809F443C06091A6017091A701BB
:101470008091A8019091A9010E9493030E94C40346
:10148000169507952A942110D3CF6091B2017091DF
:10149000B3018091B4019091B5010E94930387EE4E
:1014A0000E94BC0361E08FE00E94990140E050E09F
:1014B000BA01CE0101960E947A05892B09F00BCF63
:1014C000339464CF40EC56EC6DE270E0CE010196AF
:1014D0000E947A05892B09F450CF07CF6091AA01A9
:1014E0007091AB018091AC019091AD01B6CF60914C
:1014F000AE017091AF018091B0019091B101BCCF6C
:101500000E943E05DACD68EE73E080E090E00E9434
:101510003B02D3CDE6E0F7E01382128288EE93E03F
:10152000A0E0B0E084839583A683B78384E091E054
:101530009183808385EC90E09587848784EC90E0AC
:101540009787868780EC90E0918B808B81EC90E090
:10155000938B828B82EC90E0958B848B86EC90E071
:10156000978B868B118E128E138E148E0895AA1B64
:10157000BB1B51E107C0AA1FBB1FA617B70710F07E
:10158000A61BB70B881F991F5A95A9F780959095B0
:10159000BC01CD01089597FB072E16F4009407D0E7
:1015A00077FD09D00E94B70A07FC05D03EF490955C
:1015B00081959F4F0895709561957F4F0895A1E2A1
:1015C0001A2EAA1BBB1BFD010DC0AA1FBB1FEE1FBD
:1015D000FF1FA217B307E407F50720F0A21BB30B08
:1015E000E40BF50B661F771F881F991F1A9469F784
:1015F00060957095809590959B01AC01BD01CF01E0
:101600000895EE0FFF1F0590F491E02D0994F894D2
:02161000FFCF0A
:101612000000000027018700B4007901E500C30043
:10162200D7000D0A00743A2D332000743A2D32206F
:1016320000743A2D312000743A00723A00746F6FD0
:10164200206C61746500746F6F206C6F6E67006749
:101652006F7420002062797465733A2000202D3E59
:1016620020006465627567206F6666006465627556
:1016720067206F6E00580056003000310032003F84
:0E168200002D004E00733A00633A00643A00F7
:00000001FF
