:100000000C945D000C9485000C9485000C94850084
:100010000C9485000C9485000C9485000C9485004C
:100020000C9485000C9485000C9485000C9485003C
:100030000C9485000C9485000C9485000C9485002C
:100040000C94FC060C9485000C94CA060C94A4062F
:100050000C9485000C9485000C9485000C9485000C
:100060000C9485000C9485000000000024002700FB
:100070002A0000000000250028002B0004040404CE
:100080000404040402020202020203030303030342
:10009000010204081020408001020408102001021F
:1000A00004081020000000080002010000030407FB
:1000B0000000000000000000FB0A11241FBECFEF6B
:1000C000D8E0DEBFCDBF11E0A0E0B1E0ECECF6E19E
:1000D00002C005900D92AC38B107D9F726E0ACE824
:1000E000B1E001C01D92A13DB207E1F710E0CDE5FE
:1000F000D0E004C02197FE010E945E0BCC35D107F1
:10010000C9F70E9446070C94640B0C940000AF9250
:10011000BF92CF92DF92EF92FF920F931F93CF93F4
:10012000DF936C017B018B01040F151FEB015E0156
:10013000AE18BF08C017D10759F06991D601ED91EB
:10014000FC910190F081E02DC6010995892B79F78A
:10015000C501DF91CF911F910F91FF90EF90DF903C
:10016000CF90BF90AF900895FC01538D448D252F03
:1001700030E0842F90E0821B930B541710F0CF9641
:10018000089501970895FC01918D828D981761F073
:10019000A28DAE0FBF2FB11D5D968C91928D9F5F8A
:1001A0009F73928F90E008958FEF9FEF0895FC0169
:1001B000918D828D981731F0828DE80FF11D858D1C
:1001C00090E008958FEF9FEF0895FC01918D228DAF
:1001D000892F90E0805C9F4F821B91098F73992734
:1001E000089584E396E00E94E50021E0892B09F45C
:1001F00020E0822F089580E090E0892B29F00E9472
:10020000F10081110C9400000895FC01A48DA80F49
:10021000B92FB11DA35ABF4F2C91848D90E0019648
:100220008F739927848FA689B7892C93A089B18968
:100230008C91837080648C93938D848D981306C009
:100240000288F389E02D80818F7D80830895EF926D
:10025000FF920F931F93CF93DF93EC0181E0888F80
:100260009B8D8C8D98131AC0E889F989808185FF50
:1002700015C09FB7F894EE89FF896083E889F989F2
:1002800080818370806480839FBF81E090E0DF91F4
:10029000CF911F910F91FF90EF900895F62E0B8D47
:1002A00010E00F5F1F4F0F731127E02E8C8D8E1102
:1002B0000CC00FB607FCFACFE889F989808185FF69
:1002C000F5CFCE010E940501F1CFEB8DEC0FFD2F94
:1002D000F11DE35AFF4FF0829FB7F8940B8FEA8924
:1002E000FB8980818062CFCF682F84E396E00C94F5
:1002F0002701CF93DF93EC01888D8823B9F0AA8979
:10030000BB89E889F9898C9185FD03C0808186FDD0
:100310000DC00FB607FCF7CF8C9185FFF2CF80811F
:1003200085FFEDCFCE010E940501E9CFDF91CF918E
:10033000089590E0FC01EC55FF4F2491FC01E0573B
:10034000FF4F3491FC01E458FF4FE491EE23C9F0D4
:10035000222339F0233001F1A8F4213019F12230A1
:1003600029F1F0E0EE0FFF1FEE58FF4FA591B49179
:100370008FB7F894EC91611126C030953E233C93E1
:100380008FBF08952730A9F02830C9F0243049F7ED
:10039000809180008F7D03C0809180008F77809353
:1003A0008000DFCF84B58F7784BDDBCF84B58F7DB0
:1003B000FBCF8091B0008F778093B000D2CF809137
:1003C000B0008F7DF9CF3E2BDACFCF93DF9390E053
:1003D000FC01E057FF4F249184589F4FFC0184910A
:1003E0008823D1F090E0880F991FFC01E859FF4F56
:1003F000A591B491FC01EE58FF4FC591D4916111C4
:100400000EC09FB7F8948C91E22FE0958E238C93C9
:100410002881E223E8839FBFDF91CF9108958FB7B2
:10042000F894EC91E22BEC938FBFF6CF3FB7F894A2
:100430008091940190919501A0919601B0919701BE
:1004400026B5A89B05C02F3F19F00196A11DB11D2F
:100450003FBFBA2FA92F982F8827BC01CD01620F6B
:10046000711D811D911D42E0660F771F881F991F26
:100470004A95D1F708958F929F92AF92BF92CF92F3
:10048000DF92EF92FF924B015C010E9416026B011A
:100490007C010E9416026C197D098E099F09683E35
:1004A000734081059105A8F321E0821A9108A10803
:1004B000B10888EEC80E83E0D81EE11CF11C81143F
:1004C0009104A104B10429F7FF90EF90DF90CF9041
:1004D000BF90AF909F908F90089590ED980F9A30B5
:1004E00010F4892F08959FE9980F963010F48755DE
:1004F00008959FEB980F963010F4875308958FEF6F
:1005000008952091BC053091BD05283E93E0390740
:1005100054F4F901EC52FE4F80832F5F3F4F30932C
:10052000BD052093BC050895CF92DF92EF92FF9214
:1005300080918C01882371F180E4C0909C01D0905F
:100540009D01E0909E01F0909F019C2D9F73892B4F
:100550000E94810286E0F594E794D794C7948A9527
:10056000D1F7C0929C01D0929D01E0929E01F09241
:100570009F01C0909C01D0909D01E0909E01F09061
:100580009F011C141D041E041F0434F48C2D8F7352
:100590008068DECF80E0D1CFFF90EF90DF90CF90EA
:1005A0000895CF92DF92EF92FF921F93CF93DF9344
:1005B00083E480937C0080917A00806480937A0049
:1005C00080917A0086FDFCCF80917800C0917900FF
:1005D000DC2FC82F0E941602C0908F01D09090018E
:1005E000E0909101F09092016C197D098E099F09AC
:1005F000613971408105910508F44EC08BE193E0AB
:100600000197F1F70E94160260938F017093900199
:10061000809391019093920180918D0190918E0130
:10062000019690938E0180938D0160E080FD61E0E2
:1006300082E00E94990111E0C03821E0D20708F45D
:1006400010E085E0D695C7958A95E1F7CE71DD2754
:10065000C254DA4F88819981019699838883809169
:100660009C0190919D01A0919E01B0919F010097E6
:10067000A105B10551F120918C01211731F10E94A2
:10068000940210938C01812FDF91CF911F91FF90E5
:10069000EF90DF90CF9008950E9416026C197D09AB
:1006A0008E099F09683C710581059105A8F388ECC6
:1006B000C80ED11CE11CF11CC0928F01D092900198
:1006C000E0929101F0929201A7CF0196A11DB11D78
:1006D00080939C0190939D01A0939E01B0939F01F4
:1006E000D0CF8F929F92AF92BF92CF92DF92EF9234
:1006F000FF92CF93DF93C82F6A017B010E941602FD
:100700004B015C010E94D102D82F0E941602DC012D
:10071000CB0188199909AA09BB09CD1729F0C81678
:10072000D906EA06FB0670F721E0C816D906EA06E4
:10073000FB0608F020E0822FDF91CF91FF90EF9031
:10074000DF90CF90BF90AF909F908F9008958F9241
:100750009F92AF92BF92CF92DF92EF92FF9228ECDE
:1007600030E040E050E00E943C0B49015A01C12CAE
:10077000D12C7601C814D904EA04FB0441F00E948C
:10078000D1028FEFC81AD80AE80AF80AF3CFFF900F
:10079000EF90DF90CF90BF90AF909F908F90089593
:1007A000CF93C82F0E9494028C2FCF910C9481027A
:1007B00061E080E10E94990160E08FE00C94990172
:1007C00060E080E10E94990160E08FE00C94990163
:1007D00048EB5BE060E070E04093A0015093A10122
:1007E0006093A2017093A30148E756EE60E070E0C9
:1007F0004093A4015093A5016093A6017093A701B3
:1008000040EA56E861E070E04093C8015093C901A6
:100810006093CA017093CB0140E45DE063E070E057
:100820004093CC015093CD016093CE017093CF01E2
:1008300048E853E160E070E04093D0015093D1016B
:100840006093D2017093D301882309F45DC08DE4D5
:1008500098E0A0E0B0E08093A8019093A901A09354
:10086000AA01B093AB0149E556E060E070E0409327
:10087000AC015093AD016093AE017093AF014FE5B1
:100880005CE060E070E04093B0015093B101609390
:10089000B2017093B3014CEA56E060E070E040931F
:1008A000B4015093B5016093B6017093B7014BE367
:1008B00054E060E070E04093B8015093B901609358
:1008C000BA017093BB0140ED5EE060E070E04093E0
:1008D000BC015093BD016093BE017093BF014CE217
:1008E00051E060E070E04093C0015093C10160931B
:1008F000C2017093C3018093C4019093C501A0937A
:10090000C601B093C701089583E298E0A0E0B0E08B
:100910008093A8019093A901A093AA01B093AB0181
:1009200085E993E0A0E0B0E08093AC019093AD0145
:10093000A093AE01B093AF018BE69AE0A0E0B0E0E7
:100940008093B0019093B101A093B201B093B30131
:1009500083E896E0A0E0B0E08093B4019093B50105
:10096000A093B601B093B70188EE93E0A0E0B0E0A9
:100970008093B8019093B901A093BA01B093BB01E1
:100980008FE59CE0A0E0B0E08093BC019093BD01B6
:10099000A093BE01B093BF018CE291E0A0E0B0E073
:1009A0008093C0019093C101A093C201B093C30191
:1009B00089E297E0A0E0B0E09ECF009769F0FC01EB
:1009C00001900020E9F73197AF01481B590BBC019A
:1009D00084E396E00C94870090E080E008958F9285
:1009E0009F92AF92BF920F931F93CF93DF93CDB798
:1009F000DEB7A1970FB6F894DEBF0FBECDBF19A228
:100A0000423008F44AE08E010F5D1F4F842E912C76
:100A1000B12CA12CA50194010E943C0BE62FB90139
:100A2000CA01EA30D4F4E05DD801EE938D01232BA6
:100A3000242B252B79F7CD010E94DD04A1960FB65A
:100A4000F894DEBF0FBECDBFDF91CF911F910F9104
:100A5000BF90AF909F908F900895E95CE5CFCF92C3
:100A6000DF92EF92FF92CF93DF936B017C016DE2F7
:100A700084E396E00E942701EC0166277727CB01EB
:100A80006C197D098E099F094AE00E94EF048C0FC2
:100A90009D1FDF91CF91FF90EF90DF90CF90089551
:100AA0000C94DD0442E050E062E171E084E396E002
:100AB0000C948700CF93DF930E94DD04EC010E9429
:100AC00052058C0F9D1FDF91CF9108950F931F93B7
:100AD000CF93DF938C01C0E1D0E0623031F0C0E011
:100AE000D1E0633011F0C0E0D0E1C801BE010E9446
:100AF000280B6F70062E000C770B880B990B40E1CA
:100B00000E94EF0484E0D695C7958A95E1F7209777
:100B100061F7DF91CF911F910F9108954F925F92EE
:100B20006F927F928F929F92AF92BF92CF92DF92FD
:100B3000EF92FF920F931F93CF93DF93EC016A0123
:100B40007B01C114D104E104F10441F4C090C80157
:100B5000D090C901E090CA01F090CB0180EC0E94D6
:100B6000D003B701A60180E00E9471038823D1F071
:100B700089EC0E94D00381E491E00E94DD048CEFB7
:100B80009FEFDF91CF911F910F91FF90EF90DF903A
:100B9000CF90BF90AF909F908F907F906F905F901D
:100BA0004F90089581EC0E94D0034091CC01509168
:100BB000CD016091CE017091CF0181E00E9471035F
:100BC000882351F089EC0E94D00385E191E00E94D6
:100BD000DD048DEF9FEFD5CF82EC0E94D003C09053
:100BE000D001D090D101E090D201F090D301B701B3
:100BF000A60180E00E947103882351F089EC0E94D5
:100C0000D0038BE191E00E94DD048EEF9FEFB9CF1E
:100C100083EC0E94D003B701A60181E00E9471031A
:100C2000882351F089EC0E94D00381E291E00E9478
:100C3000DD048FEF9FEFA5CF84EC0E94D00310E07E
:100C40000E9416024B015C010E94D102082F0E94F3
:100C500016022B013C01481859086A087B0800233A
:100C600089F1C414D504E604F70470F787E291E033
:100C70000E94DD04E12E012E000CFF08612F110FF0
:100C8000770B880B990B4AE00E94EF048AE390E00F
:100C90000E94740120E130E02E193F09888199817A
:100CA00064E002C0969587952A95E2F70E94660552
:100CB00080E290E00E94740189EC0E94D003C70199
:100CC00001965FCFC414D504E604F70478F280904F
:100CD000C4019090C501A090C601B090C701B701B2
:100CE000A60181E00E9471038111C0CF88819981A2
:100CF000969587959983888384149504A604B704F0
:100D0000F8F486EC0E94D0038881998190689983D9
:100D100088831F5F103109F093CF8AE291E00E942F
:100D2000DD0464E0888199810E94660580E290E09C
:100D30000E94740188EC0E94D00390E080E021CFF3
:100D400085EC0E94D003E5CF1F920F920FB60F9251
:100D500011242F933F934F935F936F937F938F93C0
:100D60009F93AF93BF93EF93FF9384E396E00E942A
:100D70000501FF91EF91BF91AF919F918F917F916D
:100D80006F915F914F913F912F910F900FBE0F90F8
:100D90001F9018951F920F920FB60F9211242F9348
:100DA0008F939F93EF93FF93E0914406F091450654
:100DB0008081E0914A06F0914B0682FD1BC0908134
:100DC00080914D068F5F8F7320914E06821741F000
:100DD000E0914D06F0E0EC5CF94F958F80934D0665
:100DE000FF91EF919F918F912F910F900FBE0F90D8
:100DF0001F9018958081F4CF1F920F920FB60F921B
:100E000011242F933F938F939F93AF93BF93809120
:100E1000980190919901A0919A01B0919B01309114
:100E2000930123E0230F2D3758F50196A11DB11D25
:100E3000209393018093980190939901A0939A0134
:100E4000B0939B018091940190919501A09196019E
:100E5000B09197010196A11DB11D809394019093CB
:100E60009501A0939601B0939701BF91AF919F9187
:100E70008F913F912F910F900FBE0F901F9018955B
:100E800026E8230F0296A11DB11DD2CFCF93DF9389
:100E9000CDB7DEB760970FB6F894DEBF0FBECDBFFB
:100EA000789484B5826084BD84B5816084BD85B545
:100EB000826085BD85B5816085BD80916E00816051
:100EC00080936E00109281008091810082608093F7
:100ED00081008091810081608093810080918000F9
:100EE0008160809380008091B10084608093B10024
:100EF0008091B00081608093B00080917A0084601E
:100F000080937A0080917A00826080937A00809149
:100F10007A00816080937A0080917A008068809363
:100F20007A001092C100E0914406F091450682E0FB
:100F30008083E0914006F09141061082E0914206E4
:100F4000F09143068FEC808310924C06E0914806A6
:100F5000F091490686E08083E0914606F0914706CD
:100F6000808180618083E0914606F0914706808110
:100F700088608083E0914606F09147068081806812
:100F80008083E0914606F091470680818F7D8083C3
:100F900061E08DE00E94990161E08FE00E9499017B
:100FA00061E08DE00E94E50161E082E00E94E501E0
:100FB00061E080E10E94E50161E08FE00E94E501CF
:100FC00060E081E10E94E50180E00E94E8039E016B
:100FD0002F5F3F4F590184E396E00E94E500892B83
:100FE00061F18FB7F894409098015090990160900A
:100FF0009A0170909B018FBF74EEE72E75E0F72E7B
:1010000010E084E396E00E94C3002FB7F89440916B
:1010100098015091990160919A0170919B012FBFA5
:10102000441955096609770941375741610571052A
:1010300030F08DE291E00E945A05F12C12C08F3FF2
:101040009807F9F2F7018D3051F08A3041F0819321
:101050007F011F5F1F34A9F686E391E0ECCF108279
:10106000F12E0F2D0F2C000C110B0115110509F499
:10107000CCC08FE391E00E9450056F2DFF0C770BE1
:10108000880B990B4AE00E94EF0484E491E00E94EF
:10109000500564EEE62E65E0F62EF70161917F01C2
:1010A00084E396E00E942701C701845E9540801783
:1010B00091079CF38DE491E00E9450058091E40536
:1010C0008F7D843429F50130110519F41092E20561
:1010D0002AC08091E505803399F482E591E00E9471
:1010E0005A051092E30580E090E0892B09F473CF54
:1010F0000E94F100882309F46ECF0E9400006BCF9C
:101100008CE591E00E945A0581E08093E305EBCFE6
:1011100091E09093E2058835E1F59093E10585E64D
:1011200091E00E9450050130110539F0053011059C
:1011300034F48091E505803311F01092E20580913E
:10114000E205882359F08091E505803351F581E06F
:101150008093E00589E691E00E9450050730110573
:1011600034F48091E005811102C01092E205809173
:10117000E205882309F43FC08091E00581113BC05E
:10118000E6EEF5E09191992321F19D32D9F78F5F39
:10119000F9CF863509F09ACF1092E10587E691E004
:1011A000C0CF813341F41092E00581E08093DF05E8
:1011B0008BE691E0D1CF823339F41092E0051092A2
:1011C000DF058DE691E0C8CF1092E20580E891E05E
:1011D000C3CF8093DE058FE691E00E9450056091B9
:1011E000DE0570E090E080E04AE00E94EF0482E7D4
:1011F00091E00E9450058091E205811104C08CE7C6
:1012000091E00E9450050E9452058091E2058823DA
:1012100009F4E4C12EEB35E03B872A872901F2016E
:10122000119211922F012EED35E02E173F07B9F7DD
:101230001092BD051092BC0510929C0110929D0168
:1012400010929E0110929F018091E1059091E0051E
:101250009923E1F00E94E80340EC56EC6DE270E067
:10126000C5010E948E058C0160E08DE00E9499010D
:101270000115110519F00D3011056CF140E050E039
:10128000BA01C5010E948E058C01F2CF1091DF05D5
:101290001E821D820E94E803112341F168E873E178
:1012A00080E090E00E943B0260E08DE00E949901A6
:1012B000198652E0852E912CC4018C519A4F1C0145
:1012C000FC018081882339F08D3209F455C08EE706
:1012D00091E00E94DD0460E271EA87E090E00E9404
:1012E000A70361E08DE00E9499010AC040EC56EC32
:1012F0006DE270E0CE0105960E948E05892BA1F269
:101300000E9452058091E305882309F4ECCE85E81C
:1013100091E00E94500564E0EA85FB8581919191FE
:10132000FB87EA870E94660585E291E00E945005EE
:101330002A853B852415350571F70E94520588E8FA
:1013400091E00E94500504ED11E02091BC05309120
:10135000BD05C801845D9140821793070CF03BC125
:10136000F80181918F0162E090E00E94660585E2BC
:1013700091E00E945005E9CF8D819E819E012B5FF7
:101380003F4F3901282F2F70F30122938F0144E042
:10139000969587954A95E1F7EA15FB0509F0FBC09C
:1013A0007501FFEFFD872FEF2C87CC24C394D12C40
:1013B0001886F101EC0DFD1D30813F83332309F4C4
:1013C00086CFC60101969F878E87832F0E946D026C
:1013D000888BEE85FF85E20DF31D80810E946D02F2
:1013E0009F81903409F401C19E3509F0D8C08F3F28
:1013F00009F46DCFF7019081892780838D85F2E014
:10140000CF0ED11C2F81203431F0F7019081F98566
:101410009F0F9F7099872FEFE21AF20A38853F5F7E
:101420003887343009F0B9C09C859F3F59F0F501E9
:10143000E90FF11D97FDFA95982F3985931B9F7041
:101440009083898783E0680E711CF12CE12CF801F0
:1014500081918F0124E0EE0CFF1C2A95E1F7082E04
:10146000000C990BE82AF92A6E167F0681F78C0C7E
:101470009D1C82E891E00E94DD0464E0C7010E94A7
:10148000660580E290E00E94740180EE0E94D00325
:101490006091A0017091A1018091A2019091A3019E
:1014A0000E94A70381EE0E94D0030E94E003609196
:1014B000A4017091A5018091A6019091A7010E94BD
:1014C000A70382EE0E94D0030E94D8036091A80176
:1014D0007091A9018091AA019091AB010E94A7038C
:1014E00083EE0E94D0030E94E0036091AC017091F2
:1014F000AD018091AE019091AF010E94A7030E94BF
:10150000D80390E1D92E87010170112786EEE0FE05
:1015100085EE0E94D0030115110509F44AC06091BF
:10152000B0017091B1018091B2019091B3010E941C
:10153000A7030E94E003012B09F444C06091B401A9
:101540007091B5018091B6019091B7010E94A703F7
:101550000E94D803F694E794DA94D110D4CF609126
:10156000C0017091C1018091C2019091C3010E949C
:10157000A70387EE0E94D00361E08FE00E949901EB
:1015800040E050E0BA01CE0105960E948E05892BFD
:1015900009F492CEA0CE3801F5CE8D870ACF3889D6
:1015A0003F3F09F494CEF7013083CE84DF848D85EC
:1015B0002CCF6091B8017091B9018091BA019091DE
:1015C000BB01B5CF6091BC017091BD018091BE019E
:1015D0009091BF01BBCF0E94520585CD68EE73E0AC
:1015E00080E090E00E943B027ECD8F3F09F46FCEF9
:1015F000F885FC8704CFE4E3F6E01382128288EEDC
:1016000093E0A0E0B0E084839583A683B78384E071
:1016100091E09183808385EC90E09587848784ECCA
:1016200090E09787868780EC90E0918B808B81ECAF
:1016300090E0938B828B82EC90E0958B848B86EC90
:1016400090E0978B868B118E128E138E148E0895D8
:10165000AA1BBB1B51E107C0AA1FBB1FA617B707D8
:1016600010F0A61BB70B881F991F5A95A9F78095F4
:101670009095BC01CD010895A1E21A2EAA1BBB1BB7
:10168000FD010DC0AA1FBB1FEE1FFF1FA217B3074E
:10169000E407F50720F0A21BB30BE40BF50B661F64
:1016A000771F881F991F1A9469F760957095809528
:1016B00090959B01AC01BD01CF010895EE0FFF1F76
:0C16C0000590F491E02D0994F894FFCF00
:1016CC000000000027018700B4007901E500C30089
:1016DC00D7000D0A00743A2D332000743A2D3220B5
:1016EC0000743A2D312000743A00723A00746F6F16
:1016FC00206C61746500746F6F206C6F6E6700678F
:10170C006F7420002062797465733A2000202D3E9E
:10171C0020006465627567206F666600646562759B
:10172C0067206F6E00580056003000310032002DDB
:10173C005B00207061636B6574735D004E00733ADF
:0C174C003F00733A00633A00643A00006A
:00000001FF
