:100000000C941F010C9447010C9447010C94470178
:100010000C9447010C9447010C9447010C94470140
:100020000C9447010C9447010C9447010C94470130
:100030000C9447010C9447010C9447010C94470120
:100040000C94770A0C9447010C94450A0C941F0AEF
:100050000C9447010C9447010C9447010C94470100
:100060000C9447010C944701205741524E494E478A
:100070000020756E697473203D2000723A00743A56
:1000800000742000723A00743A2D312000743A2D29
:10009000322000743A2D332000742000000000004C
:1000A000240027002A0000000000250028002B0063
:1000B000040404040404040402020202020203030E
:1000C0000303030301020408102040800102040816
:1000D00010200102040810200000000800020100A6
:1000E000000304070000000000000000746F6F2090
:1000F0006C6F6E6700746F6F206C6174650043698C
:100100007263756974206E6F74207265636F676EB9
:100110006973656400412D436F6D20646574656388
:1001200074656400442D436F6D2064657465637469
:1001300065640044697361626C656420686967681E
:1001400020283130306D73293A2000446973616290
:100150006C6564206C6F77202834306D73293A20E9
:1001600000456E61626C6564206C6F7720283430C6
:100170006D73293A2000456E61626C656420686980
:100180006768202834306D73293A2000526566650F
:1001900072656E6365206465636C617265643A20A4
:1001A0007E355600733A00733A3F00613A00643A74
:1001B0000020747269676765723D0020746872651B
:1001C00073686F6C643D00703A74696D696E673D69
:1001D00000287061757365642900207061636B6528
:1001E00074735D002D5B00747269676765723D0012
:1001F000646562756720616E616C6F67200064657D
:10020000627567206469676974616C200064656267
:100210007567206F666620005B7465737420766F67
:100220006C74616765735D00202D3E20002062794B
:100230007465733A2000676F74200000BE0F1124AC
:100240001FBECFEFD8E0DEBFCDBF11E0A0E0B1E030
:10025000E2EAF4E202C005900D92A232B107D9F7AA
:1002600026E0A2E2B1E001C01D92A034B207E1F79E
:1002700011E0CFE1D1E004C02197FE010E944912B4
:10028000CE31D107C9F70E94C10A0C944F120C94C9
:10029000000083E480937C0080917A0080648093E6
:1002A0007A0080917A0086FDFCCF80917800909151
:1002B0007900089590ED980F9A3010F4892F0895E1
:1002C0009FE9980F963010F4875508959FEB980F8B
:1002D000963010F4875308958FEF0895AF92BF9230
:1002E000CF92DF92EF92FF920F931F93CF93DF9302
:1002F0006C017B018B01040F151FEB015E01AE1831
:10030000BF08C017D10759F06991D601ED91FC9152
:100310000190F081E02DC6010995892B79F7C5017F
:10032000DF91CF911F910F91FF90EF90DF90CF90D1
:10033000BF90AF900895FC01538D448D252F30E080
:10034000842F90E0821B930B541710F0CF960895E2
:1003500001970895FC01918D828D981761F0A28D0F
:10036000AE0FBF2FB11D5D968C91928D9F5F9F73D5
:10037000928F90E008958FEF9FEF0895FC01918D8B
:10038000828D981731F0828DE80FF11D858D90E0F8
:1003900008958FEF9FEF0895FC01918D228D892F95
:1003A00090E0805C9F4F821B91098F73992708957D
:1003B00083EA95E00E94CC0121E0892B09F420E03A
:1003C000822F089580E090E0892B29F00E94D801C7
:1003D00081110C9400000895FC01A48DA80FB92F81
:1003E000B11DA35ABF4F2C91848D90E001968F735D
:1003F0009927848FA689B7892C93A089B1898C917C
:10040000837080648C93938D848D981306C00288CA
:10041000F389E02D80818F7D80830895EF92FF9294
:100420000F931F93CF93DF93EC0181E0888F9B8D17
:100430008C8D98131AC0E889F989808185FF15C0D1
:100440009FB7F894EE89FF896083E889F9898081F4
:100450008370806480839FBF81E090E0DF91CF91C3
:100460001F910F91FF90EF900895F62E0B8D10E0E5
:100470000F5F1F4F0F731127E02E8C8D8E110CC054
:100480000FB607FCFACFE889F989808185FFF5CF9F
:10049000CE010E94EC01F1CFEB8DEC0FFD2FF11D91
:1004A000E35AFF4FF0829FB7F8940B8FEA89FB89DC
:1004B00080818062CFCF682F83EA95E00C940E0292
:1004C000682F83EA95E00C940E020F931F93CF934D
:1004D000DF938C01D0E0C0E0F801EC0FFD1F6491C8
:1004E000662341F083EA95E00E940E02892B11F009
:1004F0002196F2CFCE01DF91CF911F910F910895F8
:10050000CF93DF93EC01888D8823B9F0AA89BB894A
:10051000E889F9898C9185FD03C0808186FD0DC035
:100520000FB607FCF7CF8C9185FFF2CF808185FF56
:10053000EDCFCE010E94EC01E9CFDF91CF9108957C
:1005400090E0FC01E852FF4F2491FC01EC53FF4F77
:100550003491FC01E055FF4FE491EE23C9F02223D2
:1005600039F0233001F1A8F4213019F1223029F1BA
:10057000F0E0EE0FFF1FEA55FF4FA591B4918FB742
:10058000F894EC91611126C030953E233C938FBFC7
:1005900008952730A9F02830C9F0243049F7809118
:1005A00080008F7D03C0809180008F7780938000D2
:1005B000DFCF84B58F7784BDDBCF84B58F7DFBCF54
:1005C0008091B0008F778093B000D2CF8091B0003F
:1005D0008F7DF9CF3E2BDACFCF93DF9390E0FC01F4
:1005E000EC53FF4F249180559F4FFC018491882349
:1005F000D1F090E0880F991FFC01E456FF4FA591C0
:10060000B491FC01EA55FF4FC591D49161110EC020
:100610009FB7F8948C91E22FE0958E238C932881DC
:10062000E223E8839FBFDF91CF9108958FB7F894BD
:10063000EC91E22BEC938FBFF6CF3FB7F89480910B
:100640002A0190912B01A0912C01B0912D0126B58A
:10065000A89B05C02F3F19F00196A11DB11D3FBFFA
:10066000BA2FA92F982F8827BC01CD01620F711DC9
:10067000811D911D42E0660F771F881F991F4A95C3
:10068000D1F708958F929F92AF92BF92CF92DF924F
:10069000EF92FF924B015C010E941D036B017C01F4
:1006A0000E941D036C197D098E099F09683E7340E5
:1006B00081059105A8F321E0821A9108A108B108EB
:1006C00088EEC80E83E0D81EE11CF11C8114910451
:1006D000A104B10429F7FF90EF90DF90CF90BF9075
:1006E000AF909F908F900895EF92FF920F931F937A
:1006F000CF93DF9300D000D0CDB7DEB7FC0140E050
:10070000E62EF12C242F042E000C330B2E153F0562
:10071000B4F49E2F9F709A3084F0995C01E010E051
:100720000C0F1D1F200F311FD9019C9384E0F695FB
:10073000E7958A95E1F74F5FE5CF905DEFCF615088
:10074000062F10E0E1E0F0E0EC0FFD1FE00FF11FDD
:100750008081082E000C990B0E945B020150110948
:1007600007FFF0CF0F900F900F900F90DF91CF9178
:100770001F910F91FF90EF900895CF93C091340196
:100780008C2F90E00196959587958F708A307CF03C
:10079000895C90E00E945B02CC2359F082E490E0F7
:1007A000C0FF02C081E490E0CF910C945B02805DB9
:1007B000F0CFCF91089520913901909134012917FC
:1007C00090F02091220530912305283E93E03907CF
:1007D00054F4F901E65CFE4F80832F5F3F4F309366
:1007E0002305209322050895CF92DF92EF92FF9286
:1007F000C0903501D0903601E0903701F09038017B
:10080000C114D104E104F104C1F1809122012091CD
:100810006105309162052230310549F50E94DB0304
:1008200081E0C81AD108E108F108C0923501D092E0
:100830003601E0923701F0923801C0903501D09036
:100840003601E0903701F09038011C141D041E049D
:100850001F049CF48C2D8F7380680E94DB0386E05C
:10086000F594E794D794C7948A95D1F7DECF811198
:1008700080E49C2D9F73892BF0CFFF90EF90DF9049
:10088000CF900895CF93C82F0E94F4038C2FCF915F
:100890000C94DB034F925F926F927F928F929F92A4
:1008A000AF92BF92EF92FF920F931F93CF93DF937C
:1008B000D82F0E9449017C01C0E00E941D03809056
:1008C000250190902601A0902701B09028012401D5
:1008D000350128EC420E511C611C711C0091230152
:1008E000109124010F5F1F4F681979098A099B092C
:1008F000693C710581059105E8F04092250150920F
:100900002601609227017092280110932401009320
:100910002301CF5FC03189F60E941D03609325013A
:10092000709326018093270190932801C0E0D11194
:1009300020C01BC00E941D03681979098A099B0900
:10094000683C710581059105A8F3409225015092FC
:1009500026016092270170922801109324010093D0
:100960002301CC2331F0D11104C08C2F806F0E9461
:1009700042048091230160E080FD61E082E00E94FA
:10098000A002C701880F991F8E0D9F1D35E0969517
:1009900087953A95E1F78034910510F08FE390E068
:1009A000D82F109128052091610530916205C82F3C
:1009B0002230310521F0C1E0811708F4C0E08091B8
:1009C00022018C1729F10E94F40381E090E0A0E05D
:1009D000B0E08093350190933601A0933701B09336
:1009E0003801C093220180912505D11710F4809120
:1009F0002605DF91CF911F910F91FF90EF90BF904F
:100A0000AF909F908F907F906F905F904F900895E0
:100A10008091350190913601A0913701B091380154
:100A20000196A11DB11DD5CF8F929F92AF92BF921B
:100A3000CF92DF92EF92FF92CF93DF93C82F6A019C
:100A40007B010E941D034B015C0180E00E944A046F
:100A5000D82F0E941D03DC01CB0188199909AA092E
:100A6000BB09CD1729F0C816D906EA06FB0668F7B8
:100A700021E0C816D906EA06FB0608F020E0822F1E
:100A8000DF91CF91FF90EF90DF90CF90BF90AF902C
:100A90009F908F9008958F929F92AF92BF92CF9226
:100AA000DF92EF92FF9228EC30E040E050E00E94AD
:100AB000271249015A01C12CD12C7601C814D9043E
:100AC000EA04FB0449F080E00E944A048FEFC81A50
:100AD000D80AE80AF80AF2CFFF90EF90DF90CF90A3
:100AE000BF90AF909F908F90089561E08FE00E943B
:100AF000A0026091250580E10C94A002609125057B
:100B000080E10E94A00260E08FE00C94A00260915E
:100B1000260580E10E94A00260E08FE00C94A00214
:100B20008093240540EA56E861E070E04093510567
:100B300050935205609353057093540540E45DE073
:100B400063E070E040935505509356056093570558
:100B500070935805863509F08DC081E08093250596
:100B6000109226051092270588EB9BE0A0E0B0E0EC
:100B70008093290590932A05A0932B05B0932C050B
:100B800088E796EEA0E0B0E080932D0590932E05C7
:100B9000A0932F05B093300583E298E0A0E0B0E089
:100BA0008093310590933205A0933305B0933405BB
:100BB00085E993E0A0E0B0E0809335059093360599
:100BC000A0933705B09338058BE69AE0A0E0B0E03B
:100BD0008093390590933A05A0933B05B0933C056B
:100BE00083E896E0A0E0B0E080933D0590933E0559
:100BF000A0933F05B093400588EE93E0A0E0B0E0FD
:100C00008093410590934205A0934305B09344051A
:100C10008FE59CE0A0E0B0E0809345059093460509
:100C2000A0934705B093480580E991E0A0E0B0E0CB
:100C30008093490590934A05A0934B05B0934C05CA
:100C400089E297E0A0E0B0E080934D0590934E05D7
:100C5000A0934F05B093500588E893E1A0E0B0E081
:100C60008093590590935A05A0935B05B0935C055A
:100C700085E20AC1883509F078C081E080932505B6
:100C8000109226051092270588EB9BE0A0E0B0E0CB
:100C90008093290590932A05A0932B05B0932C05EA
:100CA00080E69AEEA0E0B0E080932D0590932E05AB
:100CB000A0932F05B093300588E998E0A0E0B0E05C
:100CC0008093310590933205A0933305B09334059A
:100CD00080E496E0A0E0B0E080933505909336057F
:100CE000A0933705B093380540EA5FE060E070E01C
:100CF0004093390550933A0560933B0570933C054A
:100D000080933D0590933E05A0933F05B093400529
:100D10008093410590934205A0934305B093440509
:100D200040934505509346056093470570934805E9
:100D300080E991E0A0E0B0E08093490590934A05F6
:100D4000A0934B05B0934C0588E29AE0A0E0B0E098
:100D500080934D0590934E05A0934F05B093500599
:100D600088E59BE1A0E0B0E07BCF1092250591E003
:100D7000909326059093270548E853E160E070E0E2
:100D80004093290550932A0560932B0570932C05F9
:100D900040E45CE960E070E040932D0550932E053F
:100DA00060932F057093300548EF5AE260E070E0E1
:100DB00040933105509332056093330570933405A9
:100DC00040E757E160E070E0409335055093360509
:100DD000609337057093380548E755E060E070E0B0
:100DE0004093390550933A0560933B0570933C0559
:100DF00040E351E160E070E040933D0550933E05D3
:100E000060933F057093400540EA5FE060E070E06A
:100E10004093410550934205609343057093440508
:100E200040E456E060E070E040934505509346058D
:100E3000609347057093480548EC50E060E070E02F
:100E40004093490550934A0560934B0570934C05B8
:100E500048EB5BE060E070E040934D0550934E0539
:100E600060934F057093500540E25EE460E070E0EF
:100E70004093590550935A0560935B0570935C0548
:100E8000893509F0F5CE89E1809328050895FC01A4
:100E900001900020E9F73197AF01481B590BBC01C5
:100EA00083EA95E00C946E018F929F92AF92BF926D
:100EB0000F931F93CF93DF93CDB7DEB7A1970FB6F4
:100EC000F894DEBF0FBECDBF19A2423008F44AE04D
:100ED0008E010F5D1F4F842E912CB12CA12CA501EA
:100EE00094010E942712E62FB901CA01EA30F4F4F6
:100EF000E05DD801EE938D01232B242B252B79F770
:100F000090E080E0109719F0CD010E944707A1966C
:100F10000FB6F894DEBF0FBECDBFDF91CF911F910A
:100F20000F91BF90AF909F908F900895E95CE1CFB3
:100F300083E191E00C944707CF93DF930E94650211
:100F4000EC010E9498078C0F9D1FDF91CF910895AF
:100F50004F925F926F927F928F929F92AF92BF92C9
:100F6000CF92DF92EF92FF920F931F93CF936B017B
:100F70007C01742EAC019B010E942212882399F0FF
:100F800086E191E0CF911F910F91FF90EF90DF905C
:100F9000CF90BF90AF909F908F907F906F905F9019
:100FA0004F900C94470746015701E894B7F82FEF8C
:100FB0003FEF4FE75FE7C501B4010E9422128111A4
:100FC0000DC02FEF3FEF4FE75FE7C501B4010E946F
:100FD000581018161CF48AE191E0D4CF2FEF3FEFA0
:100FE0004FE75FE4C701B6010E94B01118161CF468
:100FF0008EE191E0C7CF2FEF3FEF4FE75FECC701E6
:10100000B6010E94581087FDF3CF20E030E0A9011F
:10101000C701B6010E94581010E000E087FF08C029
:101020008DE20E9460028C01F7FAF094F7F8F094D8
:10103000C0E060E070E080E09FE37C1641F020E0DB
:1010400030E040E251E40E945D10CF5FF6CFA7018F
:1010500096010E94EC0F2B013C010E94CF104B0126
:101060005C014AE00E9454077C01E00EF11ECC2393
:10107000B1F1C501B4010E94FE109B01AC01C30196
:10108000B2010E94EB0F4B015C018EE20E946002F4
:10109000E80EF91EC15018F120E030E040E251E4C2
:1010A000C501B4010E94B5112B013C010E94CF1073
:1010B0004B01B12CA12C4AE0C501B4010E94540798
:1010C000E80EF91EC501B4010E94FE109B01AC019F
:1010D000C301B2010E94EB0F4B015C01DBCFC701E2
:1010E000CF911F910F91FF90EF90DF90CF90BF9025
:1010F000AF909F908F907F906F905F904F900895EA
:101100008F929F92AF92BF92CF92DF92EF92FF9217
:101110006C01F12CE12CC701B6010E94FE104B01BD
:101120005C014AE0C701B6010E94540781E790E0E4
:101130000E94650220E030E048E950E4C501B401B6
:101140000E94B51120E030E040E85AE30E94B5115A
:101150006B017C0141E00E94A8078DE20E946002C1
:1011600020E030E048EA50E4C501B4010E94B51126
:1011700020E030E040E85AE30E94B51141E00E94CF
:10118000A80786E50E9460022DEC3CEC4CE350E49D
:10119000C701B6010E94B011181624F488E690E049
:1011A0000E9465028AE0FF90EF90DF90CF90BF90A1
:1011B000AF909F908F900C9460028F929F92AF920D
:1011C000BF92CF92DF92EF92FF920F931F93CF9334
:1011D000DF938C016A017B01C114D104E104F104A5
:1011E00041F4C0905105D0905205E0905305F09025
:1011F000540580EC0E944204B701A60180E00E94E1
:1012000014058823B9F089EC0E94420489E990E032
:101210000E946502CCEFDFEFCE01DF91CF911F91ED
:101220000F91FF90EF90DF90CF90BF90AF909F9085
:101230008F900895809139018F5F8093390181ECFF
:101240000E94420440915505509156056091570502
:101250007091580581E00E941405882351F089ECB3
:101260000E94420483E990E00E946502CDEFDFEF27
:10127000D3CF82EC0E944204C0905905D0905A0509
:10128000E0905B05F0905C05B701A60180E00E944C
:101290001405882351F089EC0E9442048DE890E007
:1012A0000E946502CEEFDFEFB7CF83EC0E944204CD
:1012B000B701A60181E00E941405882351F089EC52
:1012C0000E94420487E890E00E946502CFEFDFEFC2
:1012D000A3CF84EC0E944204D0E0C0905905D09086
:1012E0005A05E0905B05F0905C050E941D034B01E0
:1012F0005C0180E00E944A04C82F0E941D03DC01AB
:10130000CB0188199909AA09BB09CC2369F1C81630
:10131000D906EA06FB0668F7C1E08EE790E00E9476
:1013200065026D2F70E090E080E04AE00E94540773
:101330008AE30E946002CD0FC150D0E020E130E08E
:101340002C1B3D0BF8018081918164E002C09695D1
:1013500087952A95E2F70E94740380E20E9460025A
:1013600089EC0E94420458CFC816D906EA06FB064B
:1013700098F280904D0590904E05A0904F05B0904A
:10138000500520912705211108C021E088169906F3
:10139000AA06BB0640F020E006C021E088169906A8
:1013A000AA06BB06C0F3F8018081918196958795C6
:1013B00091838083222341F186EC0E944204F8014C
:1013C00080819181906891838083B701A60181E03B
:1013D0000E9414058823E1F0C2E0DF3009F09DCFC0
:1013E00084E890E00E94650264E0F80180819181C8
:1013F0000E94740381E890E00E94650289EC0E94DB
:101400004204C0E1D0E008CF85EC0E944204DDCF69
:10141000DF5FD03109F061CF8BE790E00E94650279
:1014200064E0F801808191810E94740380E20E944F
:10143000600288EC0E944204D0E0C0E0EDCE1F9232
:101440000F920FB60F9211242F933F934F935F93F8
:101450006F937F938F939F93AF93BF93EF93FF937C
:1014600083EA95E00E94EC01FF91EF91BF91AF916B
:101470009F918F917F916F915F914F913F912F91AC
:101480000F900FBE0F901F9018951F920F920FB6DE
:101490000F9211242F938F939F93EF93FF93E091DB
:1014A000B305F091B4058081E091B905F091BA05DA
:1014B00082FD1BC090818091BC058F5F8F7320914E
:1014C000BD05821741F0E091BC05F0E0ED55FA4F03
:1014D000958F8093BC05FF91EF919F918F912F91F4
:1014E0000F900FBE0F901F9018958081F4CF1F9220
:1014F0000F920FB60F9211242F933F938F939F93C8
:10150000AF93BF9380912E0190912F01A091300154
:10151000B09131013091290123E0230F2D3758F587
:101520000196A11DB11D2093290180932E01909356
:101530002F01A0933001B093310180912A01909145
:101540002B01A0912C01B0912D010196A11DB11D7F
:1015500080932A0190932B01A0932C01B0932D012D
:10156000BF91AF919F918F913F912F910F900FBE9F
:101570000F901F90189526E8230F0296A11DB11D0C
:10158000D2CFCF93DF93CDB7DEB72C970FB6F894B9
:10159000DEBF0FBECDBF789484B5826084BD84B5B4
:1015A000816084BD85B5826085BD85B5816085BD5E
:1015B00080916E00816080936E0010928100809116
:1015C000810082608093810080918100816080939E
:1015D0008100809180008160809380008091B100C3
:1015E00084608093B1008091B00081608093B000EE
:1015F00080917A00846080937A0080917A00826082
:1016000080937A0080917A00816080937A00809143
:101610007A00806880937A001092C100E091B3054F
:10162000F091B40582E08083E091AF05F091B005C0
:101630001082E091B105F091B2058FEC8083109299
:10164000BB05E091B705F091B80586E08083E09195
:10165000B505F091B605808180618083E091B50584
:10166000F091B605808188608083E091B505F091A6
:10167000B605808180688083E091B505F091B6055C
:1016800080818F7D808361E08DE00E94EC0261E0CB
:1016900082E00E94EC0261E080E10E94EC0261E0E5
:1016A0008FE00E94EC0260E081E10E94EC0261E0C8
:1016B0008DE00E94A00286E50E9490050E947505BB
:1016C0009E012F5F3F4F590183EA95E00E94CC01B4
:1016D000892B51F18FB7F89440902E0150902F0133
:1016E00060903001709031018FBF03E615E0F12C5E
:1016F00083EA95E00E94AA012FB7F89440912E0149
:1017000050912F0160913001709131012FBF441928
:10171000550966097709413757416105710530F070
:1017200085EF90E00E949C07F12C12C08F3F980734
:10173000F9F2F8018D3059F08A3049F081938F0128
:10174000F394FFE3FF12D4CF8CEE90E0EBCF108246
:101750000F2D10E0FF2009F4FBC186E392E00E9408
:1017600065026F2D70E090E080E04AE00E9454072F
:101770008DE292E00E946502A80163E675E083EACB
:1017800095E00E946E0188E292E00E9465028091DD
:1017900063058F7D843509F0B9C088E192E00E942D
:1017A0009C078CE891E00E949C0761E080E10E9428
:1017B000A00260E08FE00E94A00268E270E080E09A
:1017C00090E00E9442030E9449017C0160E080E1B8
:1017D0000E94A002C701880F991F8E0D9F1D35E042
:1017E000969587953A95E1F78034910510F08FE34F
:1017F00090E0982E86E791E00E946502C7010E9462
:10180000800868E270E080E090E00E9442030E945D
:1018100049017C0181E691E00E946502C7010E94B6
:10182000800861E08FE00E94A00268E270E080E042
:1018300090E00E9442030E9449016C01880F991FA9
:101840008C0D9D1DB5E096958795BA95E1F780348E
:10185000910510F08FE390E0882E8BE491E00E94D8
:101860006502C6010E94800861E080E10E94A0023A
:1018700064E670E080E090E00E9442030E9449012B
:101880006C01880F991F8C0D9D1DF5E0969587952D
:10189000FA95E1F78034910510F08FE390E0782E0F
:1018A00083E391E00E946502C6010E948008F6E28F
:1018B000F81508F0B3C0109233011092320136E2ED
:1018C000391598F4371588F4C701880F991F8E0DC4
:1018D0009F1D75E0969587957A95E1F7803491057F
:1018E00010F08FE390E0882331F082E090E0909355
:1018F000330180933201809132019091330100973E
:1019000009F0A8C084E291E00E949C0780916305E1
:101910008F7D843409F043C00130110509F43FC0C4
:1019200080916405803329F0982F9F7D9F3409F0C2
:1019300099C08DE092E00E946502109262051092BB
:10194000610505301105D4F0809165058D32B1F443
:10195000F0906705809166050E945A01282F220F9A
:101960009FEF920F909334019F2D9F7D913421F032
:10197000923421F420933401181614F0109234019B
:101980008091610590916205892B49F087EE91E085
:101990000E9465020E94BD0380E20E94600281E015
:1019A00080936005809163058F7D863509F075C051
:1019B000809300010E9460020130110539F005306A
:1019C000110534F480916405803311F010926005A4
:1019D00080916005882309F489C080916405803373
:1019E00009F067C081E080935F0510925E0580E397
:1019F0000E94600280916005882309F491C0809163
:101A00005F0581118DC0E5E6F5E010E08191882346
:101A100009F475C08D32D1F71F5FF8CF811013C064
:101A200021E030E0309333012093320181E0890DD1
:101A30008719833008F443CF82E090E0909333011C
:101A4000809332013CCF82E090E090933301809309
:101A50003201ECCF019719F485E191E055CF8EEF7B
:101A600090E052CF813311F0943459F48EEF91E02D
:101A70000E94650281E090E0909362058093610589
:101A800060CF823319F0913409F05BCF80EF91E0A1
:101A90000E94650282E090E0EFCF883509F488CF9C
:101AA000893509F485CF86E58093000110926005A1
:101AB00083CF813379F410925F0581E080935E05D6
:101AC00081E30E946002073011050CF093CF109261
:101AD000600590CF823329F410925F0510925E0565
:101AE000F0CF109260058FE30E946002073011056D
:101AF0000CF080CF80915F0581117CCFE8CF1093EF
:101B00005D0584EE91E00E946502612F70E090E037
:101B100080E04AE00E9454078AED91E00E9465024D
:101B200080916005811104C081ED91E00E94650201
:101B30000E94980780916005882351F080915E058E
:101B4000882331F068E873E180E090E00E9442036E
:101B50001092230510922205109235011092360141
:101B600010923701109238011092390180910001D2
:101B70000E9490050E94750580916005882309F4F4
:101B800066C081E00E944A04813009F060C0809103
:101B90005F0581116FC080915E051E821D828111DB
:101BA00083C040EC56EC6DE270E0CE0105960E94D9
:101BB000DD08892B09F478C00E949807809161059F
:101BC00090916205892BF9F087EC91E00E94650203
:101BD00080910001082E000C990B0E945B028BEB98
:101BE00091E00E9465026091280570E090E080E03D
:101BF0004AE00E94540781EB91E00E9465020E9436
:101C0000BD030E9498078091610590916205813023
:101C1000910509F097C18EEA91E00E9465020AE3FE
:101C200011E02091220530912305C8018A5391408B
:101C3000821793070CF099C1F80181918F0162E03E
:101C400090E00E94740380E20E946002EACF6AEF93
:101C500070E080E090E00E94420380E090E0892BF9
:101C600009F432CD0E94D801882309F42DCD0E94B9
:101C700000002ACD40EC56EC6DE270E0C5010E94F8
:101C8000DD088C0160E08DE00E94A00201151105C5
:101C900019F00D301105ECF040E050E0BA01C5013B
:101CA0000E94DD088C01F2CF60E08DE00E94A0026E
:101CB000198652E0852E912CF401ED59FA4F2F012F
:101CC0008081882331F08D3279F087EA91E00E949B
:101CD000650260E271EA87E090E00E944B0561E0F6
:101CE0008DE00E94A00268CF8D819E819E012B5FB6
:101CF0003F4F3901282F2F70F30122938F0144E0C9
:101D0000969587954A95E1F7AE16BF0609F0FBC098
:101D10007501FFEFFB872FEF2A87CC24C394D12CCA
:101D20001886F201EC0DFD1D30813F83332369F2EB
:101D300016018FEF281A380A832F0E945A018C87C8
:101D4000F201E20DF31D80810E945A019F819034BF
:101D500009F40EC19E3509F0DAC08F3F09F4B5CF02
:101D6000F7019081892780838B85F2E0CF0ED11C0B
:101D70002F81203431F0F7019081F9859F0F9F70FA
:101D800099872FEFE21AF20A38853F5F388734309F
:101D900009F0BBC09A859F3F59F0F501E90FF11D8D
:101DA00097FDFA95982F3985931B9F7090838987AB
:101DB00083E0680E711CF12CE12CF80181918F01F8
:101DC00024E0EE0CFF1C2A95E1F7082E000C990B7D
:101DD000E82AF92A6E167F0681F78C0C9D1C84EA8E
:101DE00091E00E94650264E0C7010E94740380E2F2
:101DF0000E946002809139018F5F8093390180EEEB
:101E00000E9442046091290570912A0580912B055A
:101E100090912C050E944B0581EE0E9442040E9485
:101E2000870560912D0570912E0580912F05909169
:101E300030050E944B0582EE0E9442040E947E05FE
:101E40006091310570913205809133059091340590
:101E50000E944B0583EE0E9442040E948705609118
:101E600035057091360580913705909138050E94AF
:101E70004B050E947E0590E1D92E87010170112744
:101E800086EEE0FE85EE0E9442040115110509F47C
:101E900047C06091390570913A0580913B0590915A
:101EA0003C050E944B050E948705012B09F441C0A7
:101EB00060913D0570913E0580913F0590914005F0
:101EC0000E944B050E947E05F694E794DA94D110A7
:101ED000D4CF6091490570914A0580914B0590914E
:101EE0004C050E944B0587EE0E9442040E94750536
:101EF00040E050E0BA01CE0105960E94DD08892B32
:101F000009F4DACEE6CE3801F5CE8B870ACF3C85D0
:101F10003F3F09F4DACEF701308361018B852BCF87
:101F2000609141057091420580914305909144056F
:101F3000B8CF609145057091460580914705909115
:101F40004805BECF8230910519F48BEA91E065CE49
:101F5000892B09F064CE80915E05882309F47DCE3B
:101F600068E873E180E090E076CE0E949807F3CFB6
:101F70008F3F09F4AACEF885FA87F7CEE3EAF5E0B9
:101F80001382128288EE93E0A0E0B0E08483958310
:101F9000A683B78385E091E09183808385EC90E010
:101FA0009587848784EC90E09787868780EC90E023
:101FB000918B808B81EC90E0938B828B82EC90E014
:101FC000958B848B86EC90E0978B868B118E128E8E
:101FD000138E148E08955058BB27AA270E94031011
:101FE0000C9476110E94681138F00E946F1120F055
:101FF00039F49F3F19F426F40C9465110EF4E09522
:10200000E7FB0C945F11E92F0E94871158F3BA1770
:10201000620773078407950720F079F4A6F50C94FE
:10202000A9110EF4E0950B2EBA2FA02D0B01B901CA
:1020300090010C01CA01A0011124FF27591B99F03E
:10204000593F50F4503E68F11A16F040A22F232F4A
:10205000342F4427585FF3CF469537952795A7959A
:10206000F0405395C9F77EF41F16BA0B620B730B41
:10207000840BBAF09150A1F0FF0FBB1F661F771FB2
:10208000881FC2F70EC0BA0F621F731F841F48F467
:10209000879577956795B795F7959E3F08F0B0CFF0
:1020A0009395880F08F09927EE0F979587950895D7
:1020B0000E943B1108F481E008950E9471100C9475
:1020C00076110E946F1158F00E94681140F029F4B7
:1020D0005F3F29F00C945F1151110C94AA110C94DC
:1020E00065110E94871168F39923B1F3552391F389
:1020F000951B550BBB27AA2762177307840738F077
:102100009F5F5F4F220F331F441FAA1FA9F335D0D3
:102110000E2E3AF0E0E832D091505040E695001C87
:10212000CAF72BD0FE2F29D0660F771F881FBB1F41
:10213000261737074807AB07B0E809F0BB0B802D1F
:10214000BF01FF2793585F4F3AF09E3F510578F04B
:102150000C945F110C94AA115F3FE4F3983ED4F302
:10216000869577956795B795F7959F5FC9F7880F1F
:10217000911D9695879597F90895E1E0660F771F71
:10218000881FBB1F621773078407BA0720F0621B02
:10219000730B840BBA0BEE1F88F7E09508950E942D
:1021A0008F1188F09F5798F0B92F9927B751B0F049
:1021B000E1F0660F771F881F991F1AF0BA95C9F7CB
:1021C00014C0B13091F00E94A911B1E008950C94AF
:1021D000A911672F782F8827B85F39F0B93FCCF362
:1021E000869577956795B395D9F73EF49095809548
:1021F000709561957F4F8F4F9F4F0895E89409C068
:1022000097FB3EF490958095709561957F4F8F4F29
:102210009F4F9923A9F0F92F96E9BB279395F6953F
:10222000879577956795B795F111F8CFFAF4BB0FBD
:1022300011F460FF1BC06F5F7F4F8F4F9F4F16C021
:10224000882311F096E911C0772321F09EE8872FAB
:10225000762F05C0662371F096E8862F70E060E067
:102260002AF09A95660F771F881FDAF7880F9695E0
:10227000879597F90895990F0008550FAA0BE0E884
:10228000FEEF16161706E807F907C0F01216130638
:10229000E407F50798F0621B730B840B950B39F478
:1022A0000A2661F0232B242B252B21F408950A26DE
:1022B00009F4A140A6958FEF811D811D089597F91E
:1022C0009F6780E870E060E008959FEF80EC0895DC
:1022D00000240A9416161706180609060895002405
:1022E0000A9412161306140605060895092E03947F
:1022F000000C11F4882352F0BB0F40F4BF2B11F4F3
:1023000060FF04C06F5F7F4F8F4F9F4F089557FD51
:102310009058440F551F59F05F3F71F04795880F53
:1023200097FB991F61F09F3F79F0879508951216EA
:1023300013061406551FF2CF4695F1DF08C0161696
:1023400017061806991FF1CF869571056105089447
:102350000895E894BB2766277727CB0197F908955E
:102360000E943B1108F48FEF08950E94C8110C944D
:1023700076110E94681138F00E946F1120F09523A9
:1023800011F00C945F110C94651111240C94AA1196
:102390000E94871170F3959FC1F3950F50E0551F70
:1023A000629FF001729FBB27F00DB11D639FAA27AA
:1023B000F00DB11DAA1F649F6627B00DA11D661FF9
:1023C000829F2227B00DA11D621F739FB00DA11D1A
:1023D000621F839FA00D611D221F749F3327A00DD4
:1023E000611D231F849F600D211D822F762F6A2F70
:1023F00011249F5750409AF0F1F088234AF0EE0FD5
:10240000FF1FBB1F661F771F881F91505040A9F701
:102410009E3F510580F00C945F110C94AA115F3F10
:10242000E4F3983ED4F3869577956795B795F7953D
:10243000E7959F5FC1F7FE2B880F911D96958795B5
:1024400097F908950E943B11880B990B0895A1E21A
:102450001A2EAA1BBB1BFD010DC0AA1FBB1FEE1F1E
:10246000FF1FA217B307E407F50720F0A21BB30B69
:10247000E40BF50B661F771F881F991F1A9469F7E5
:1024800060957095809590959B01AC01BD01CF0141
:102490000895EE0FFF1F0590F491E02D0994F89434
:0224A000FFCF6C
:1024A20056000000000E026E019B018002CC01AAC0
:1024B20001BE010D0A006E616E00696E66006F76E4
:0224C2006600B2
:00000001FF
