:100000000C94D4000C94FC000C94FC000C94FC00A8
:100010000C94FC000C94FC000C94FC000C94FC0070
:100020000C94FC000C94FC000C9459080C94C80827
:100030000C94FC000C94FC000C94FC000C94FC0050
:100040000C94FC000C94FC000C94FC000C94FC0040
:100050000C94FC000C94FC000C94FC000C94FA0A28
:100060000C94FC000C94FC000C94FC000C94FC0020
:100070000C94FC000C94FC000C94FC000C94FC0010
:100080000C94FC000C94FC000C94FC000C94FC0000
:100090000C94FC000C94FC000C94FC000C94FC00F0
:1000A0000C94FC000C94FC000C94FC000706050466
:1000B0000100080A0B0C0D090000000024002700B5
:1000C0002A002D00300000000000250028002B0031
:1000D0002E00310004040404040304050202020299
:1000E00004030202020206060606060604040202D1
:1000F00002040404080201104080401020408040A7
:10010000800802040180402010020110801020406D
:1001100040200000000200090F0000030401000C51
:1001200000000000000000000000000000000000CF
:1001300000080B0002020200000904000001020294
:100140000000052400100105240101010424020619
:100150000524060001070581031000400904010081
:10016000020A0000000705020240000007058302A2
:100170004000000403090412010002EF02014041A3
:1001800023368000010102030141726475696E6FBC
:10019000204C4C430041726475696E6F204C656F52
:1001A0006E6172646F001E0F11241FBECFEFDAE084
:1001B000DEBFCDBF11E0A0E0B1E0E2EEFEE102C0A3
:1001C00005900D92AE39B107D9F726E0AEE9B1E05E
:1001D00001C01D92AC3AB207E1F710E0C4EDD0E0E7
:1001E00004C02197FE010E94690FC33DD107C9F7E2
:1001F0000E94440B0C946F0F0C940000FC01809142
:100200005B06882311F13FB7F89482E08093E90000
:100210002091F200822F90E01816190614F481E064
:1002200090E0882339F0289844E640935A0640919C
:10023000F1004083222339F02091F200211103C004
:100240002BE62093E8003FBF08958FEF9FEF0895BE
:100250002FB7F89483E08093E9009091E800892F0C
:10026000807295FF04C09091F20080E4891B2FBF3B
:1002700008958091520681110DC082E080934E0650
:1002800084E080934F06109251061092500681E050
:10029000809352068EE496E008954091AC0150910F
:1002A000AD012091AA013091AB0142175307B4F47C
:1002B0009091E8009570E1F39091E80092FD19C0EB
:1002C0008093F1008091AC019091AD0101968F7304
:1002D0009927892B19F48EEF8093E8008091AC0167
:1002E0009091AD0101969093AD018093AC0181E0B6
:1002F000089580E00895EF92FF920F931F93CF939C
:10030000DF93F82E192FE62E042F81E0860F880F39
:100310000E944D0183E00E944D01CF2DD12FEC0EA4
:10032000FD2EF11CCE15DF05B9F007FF13C0FE014D
:1003300084910E944D01182F80E00E944D0181237D
:1003400021968111EFCFDF91CF911F910F91FF90F7
:10035000EF9008958881EDCF81E0F5CFDF92EF92A5
:10036000FF920F931F93CF93DF93D82E8A01EB0157
:100370007B01E40EF51ECE15DF0559F0D7FE12C045
:10038000FE0184910E944D0121968111F4CF0FEF5F
:100390001FEFC801DF91CF911F910F91FF90EF9058
:1003A000DF9008958881EECF0F931F93CF93DF9353
:1003B0001F92CDB7DEB782E0898342E450E061E36B
:1003C00071E080E80E94AE010E943901DC011296C2
:1003D0000D911C910115110589F0D801ED91FC9149
:1003E0000280F381E02DBE016F5F7F4FC801099548
:1003F00097FD04C0F80100851185ECCF89810F902D
:10040000DF91CF911F910F910895615030F02091AD
:10041000F100FC0120830196F8CF289884E68093B0
:100420005A060895CF93DF931F92CDB7DEB7698345
:10043000DC01ED91FC910280F381E02D41E050E080
:10044000BE016F5F7F4F09950F90DF91CF910895A7
:1004500083E08093E9008091F200882319F08AE319
:100460008093E80008950E94280190E00895CF93BA
:10047000DF931F92CDB7DEB7FC018485958597FD8C
:1004800008C02FEF3FEF358724870F90DF91CF9182
:100490000895CE0101960E94FE00019719F489810A
:1004A00090E0F3CF8FEF9FEFF0CF0F931F93CF9399
:1004B000DF931F92CDB7DEB78C01FC018485958553
:1004C00097FF0BC0CE0101960E94FE00019771F4C8
:1004D000898190E0F80195878487F8018485958566
:1004E0000F90DF91CF911F910F9108958FEF9FEFA4
:1004F000F1CFFC018485958597FD0BC09FB7F894DB
:1005000082E08093E9008091F2009FBF90E0019625
:1005100008959FB7F89482E08093E9008091F200FB
:100520009FBF90E00895282F30E0F901EE5EFE4F66
:100530009491F901ED50FF4F84912C523F4FF901F6
:100540002491222309F430C09923E9F091509F307F
:10055000D0F4E92FF0E0E155FD4F0C94690FDD0276
:10056000E102BE02D502D902C302C302C302E40201
:10057000EA02EE02F202F802C302FC02909180004D
:100580009F7790938000E22FF0E0EE0FFF1FEA5379
:10059000FF4FA591B4919FB7F894EC91611132C0CF
:1005A00080958E238C939FBF0895909180009F7DAE
:1005B000E8CF90918000977FE4CF94B59F7794BD6A
:1005C000E2CF94B59F7DFBCF909190009F77909361
:1005D0009000D9CF909190009F7DF9CF909190009D
:1005E000977FF5CF9091C0009F779093C000CBCFBD
:1005F0009091C0009F7DF9CF9091C200977F90931A
:10060000C200C1CF8E2BCECFCF93DF9390E0FC0101
:10061000ED50FF4F24918C529F4FFC018491882311
:10062000D1F090E0880F991FFC01E854FF4FA5918D
:10063000B491FC01EA53FF4FC591D49161110EC0F2
:100640009FB7F8948C91E22FE0958E238C932881AC
:10065000E223E8839FBFDF91CF9108958FB7F8948D
:10066000EC91E22BEC938FBFF6CF3FB7F8948091DB
:10067000A6019091A701A091A801B091A90126B56A
:10068000A89B05C02F3F19F00196A11DB11D3FBFCA
:10069000BA2FA92F982F8827BC01CD01620F711D99
:1006A000811D911D42E0660F771F881F991F4A9593
:1006B000D1F708958F929F92AF92BF92CF92DF921F
:1006C000EF92FF924B015C010E9435036B017C01AC
:1006D0000E9435036C197D098E099F09683E73409D
:1006E00081059105A8F321E0821A9108A108B108BB
:1006F00088EEC80E83E0D81EE11CF11C8114910421
:10070000A104B10429F7FF90EF90DF90CF90BF9044
:10071000AF909F908F9008958F929F92AF92BF92CB
:10072000CF92DF92EF92FF920F931F93CF93DF93BD
:100730006C017B018A0180910B01882309F45CC064
:1007400080915B06882309F457C08091B00180FF37
:1007500005C08091E00082608093E000E801B12C48
:100760008AEFA82E93E0892E2AE3922E209711F487
:10077000BB20D9F10E94280181110AC0AA94AA20A5
:10078000D9F161E070E080E090E00E945A03EECF82
:100790008C171D0611F00CF08C2F9FB7F8948092E7
:1007A000E9002091E80025FD02C09FBFDFCF282F80
:1007B00030E0C21BD30BF701815020F041914093F0
:1007C000F100FACFE20EF31EBB2021F09092E80078
:1007D000B12CEBCF8091E80085FDE7CF9092E80047
:1007E000BB24B394209709F3F3CF5D9884E68093FC
:1007F000AF01101611063CF081E090E0F601938302
:10080000828310E000E0C801DF91CF911F910F912A
:10081000FF90EF90DF90CF90BF90AF909F908F9020
:10082000089590ED980F9A3010F4892F08959FE95C
:10083000980F963010F4875508959FEB980F9630D7
:1008400010F4875308958FEF08952091D6053091C5
:10085000D705283E93E0390754F4F901E251FE4FE1
:1008600080832F5F3F4F3093D7052093D60508959F
:10087000CF92DF92EF92FF9280919E01882371F1D7
:1008800080E4C090B601D090B701E090B801F0903C
:10089000B9019C2D9F73892B0E94250486E0F59455
:1008A000E794D794C7948A95D1F7C092B601D092B5
:1008B000B701E092B801F092B901C090B601D090B2
:1008C000B701E090B801F090B9011C141D041E049A
:1008D0001F0434F48C2D8F738068DECF80E0D1CF7D
:1008E000FF90EF90DF90CF900895CF92DF92EF923C
:1008F000FF921F93CF93DF93EFEAF0E0E4919091A2
:100900007B008E2F880F880F80729F7D892B8093AC
:100910007B00E770E064E0937C0080917A00806463
:1009200080937A0080917A0086FDFCCF80917800D8
:10093000C0917900DC2FC82F0E943503C090A1011F
:10094000D090A201E090A301F090A4016C197D0960
:100950008E099F09613971408105910508F44EC0E7
:100960008BE193E00197F1F70E9435036093A101B9
:100970007093A2018093A3019093A40180919F01A1
:100980009091A00101969093A00180939F0160E057
:1009900080FD61E082E00E94930211E0C03821E016
:1009A000D20708F410E085E0D695C7958A95E1F75F
:1009B000CE71DD27C852DA4F8881998101969983DB
:1009C00088838091B6019091B701A091B801B09150
:1009D000B9010097A105B10551F120919E012117A0
:1009E00031F10E94380410939E01812FDF91CF9145
:1009F0001F91FF90EF90DF90CF9008950E943503F4
:100A00006C197D098E099F09683C71058105910566
:100A1000A8F388ECC80ED11CE11CF11CC092A10106
:100A2000D092A201E092A301F092A401A7CF019677
:100A3000A11DB11D8093B6019093B701A093B80199
:100A4000B093B901D0CF8F929F92AF92BF92CF92C5
:100A5000DF92EF92FF92CF93DF93C82F6A017B0161
:100A60000E9435034B015C010E947504D82F0E943F
:100A70003503DC01CB0188199909AA09BB09CD17F7
:100A800029F0C816D906EA06FB0670F721E0C81659
:100A9000D906EA06FB0608F020E0822FDF91CF910D
:100AA000FF90EF90DF90CF90BF90AF909F908F908E
:100AB00008958F929F92AF92BF92CF92DF92EF9262
:100AC000FF9228EC30E040E050E00E94470F4901DF
:100AD0005A01C12CD12C7601C814D904EA04FB04B4
:100AE00041F00E9475048FEFC81AD80AE80AF80A84
:100AF000F3CFFF90EF90DF90CF90BF90AF909F909B
:100B00008F900895CF93C82F0E9438048C2FCF91D7
:100B10000C94250461E084E10E94930260E083E18B
:100B20000C94930260E084E10E94930260E083E110
:100B30000C94930248EB5BE060E070E04093BA01F4
:100B40005093BB016093BC017093BD0148E756EE22
:100B500060E070E04093BE015093BF016093C0011C
:100B60007093C10140EA56E861E070E04093E20111
:100B70005093E3016093E4017093E50140E45DE08C
:100B800063E070E04093E6015093E7016093E80171
:100B90007093E90148E853E160E070E04093EA01B6
:100BA0005093EB016093EC017093ED01882309F4FD
:100BB0005DC08DE498E0A0E0B0E08093C201909326
:100BC000C301A093C401B093C50149E556E060E0BC
:100BD00070E04093C6015093C7016093C8017093C1
:100BE000C9014FE55CE060E070E04093CA015093BA
:100BF000CB016093CC017093CD014CEA56E060E0EC
:100C000070E04093CE015093CF016093D001709378
:100C1000D1014BE354E060E070E04093D201509387
:100C2000D3016093D4017093D50140ED5EE060E0A4
:100C300070E04093D6015093D7016093D801709330
:100C4000D9014CE251E060E070E04093DA0150934A
:100C5000DB016093DC017093DD018093DE019093F2
:100C6000DF01A093E001B093E101089583E298E0F1
:100C7000A0E0B0E08093C2019093C301A093C401AF
:100C8000B093C50185E993E0A0E0B0E08093C60190
:100C90009093C701A093C801B093C9018BE69AE075
:100CA000A0E0B0E08093CA019093CB01A093CC0167
:100CB000B093CD0183E896E0A0E0B0E08093CE0150
:100CC0009093CF01A093D001B093D10188EE93E02F
:100CD000A0E0B0E08093D2019093D301A093D4011F
:100CE000B093D5018FE59CE0A0E0B0E08093D60101
:100CF0009093D701A093D801B093D9018CE291E0F1
:100D0000A0E0B0E08093DA019093DB01A093DC01D6
:100D1000B093DD0189E297E0A0E0B0E09ECF0097BC
:100D200069F0FC0101900020E9F73197AF01481B01
:100D3000590BBC018CE596E00C948C0390E080E0AC
:100D400008958F929F92AF92BF920F931F93CF936C
:100D5000DF93CDB7DEB7A1970FB6F894DEBF0FBE15
:100D6000CDBF19A2423008F44AE08E010F5D1F4F3B
:100D7000842E912CB12CA12CA50194010E94470F27
:100D8000E62FB901CA01EA30D4F4E05DD801EE9350
:100D90008D01232B242B252B79F7CD010E948F0663
:100DA000A1960FB6F894DEBF0FBECDBFDF91CF91F5
:100DB0001F910F91BF90AF909F908F900895E95C25
:100DC000E5CFCF92DF92EF92FF92CF93DF936B014B
:100DD0007C016DE28CE596E00E941202EC01662730
:100DE0007727CB016C197D098E099F094AE00E9483
:100DF000A1068C0F9D1FDF91CF91FF90EF90DF90A8
:100E0000CF9008950C948F0642E050E065E271E0C7
:100E10008CE596E00C948C03CF93DF930E948F06B1
:100E2000EC010E9404078C0F9D1FDF91CF91089564
:100E30000F931F93CF93DF938C01C0E1D0E062301A
:100E400031F0C0E0D1E0633011F0C0E0D0E1C80182
:100E5000BE010E94330F6F70062E000C770B880BBB
:100E6000990B40E10E94A10684E0D695C7958A952A
:100E7000E1F7209761F7DF91CF911F910F910895CE
:100E80004F925F926F927F928F929F92AF92BF929A
:100E9000CF92DF92EF92FF920F931F93CF93DF9346
:100EA000EC016A017B01C114D104E104F10441F4B5
:100EB000C090E201D090E301E090E401F090E50100
:100EC00080EC0E948205B701A60180E00E94230504
:100ED0008823D1F089EC0E94820584E591E00E948C
:100EE0008F068CEF9FEFDF91CF911F910F91FF90B5
:100EF000EF90DF90CF90BF90AF909F908F907F90BA
:100F00006F905F904F90089581EC0E948205409110
:100F1000E6015091E7016091E8017091E90181E0FB
:100F20000E942305882351F089EC0E94820588E203
:100F300091E00E948F068DEF9FEFD5CF82EC0E944B
:100F40008205C090EA01D090EB01E090EC01F090B6
:100F5000ED01B701A60180E00E942305882351F02E
:100F600089EC0E9482058EE291E00E948F068EEF4E
:100F70009FEFB9CF83EC0E948205B701A60181E003
:100F80000E942305882351F089EC0E94820584E3A6
:100F900091E00E948F068FEF9FEFA5CF84EC0E9417
:100FA000820510E00E9435034B015C010E9475042C
:100FB000082F0E9435032B013C01481859086A0884
:100FC0007B08002399F1C414D504E604F70470F7F4
:100FD0008AE391E00E948F06E12E012E000CFF08AB
:100FE000612F110F770B880B990B4AE00E94A10625
:100FF0006AE38CE596E00E94120220E130E02E19AF
:101000003F098881998164E002C0969587952A9569
:10101000E2F70E94180760E28CE596E00E94120257
:1010200089EC0E948205C70101965DCFC414D504E6
:10103000E604F70468F28090DE019090DF01A09052
:10104000E001B090E101B701A60181E00E94230513
:101050008111BECF888199819695879599838883E0
:1010600084149504A604B70400F586EC0E9482055A
:10107000888199819068998388831F5F103109F076
:1010800091CF8DE391E00E948F0664E08881998181
:101090000E94180760E28CE596E00E94120288EC3C
:1010A0000E94820590E080E01ECF85EC0E948205C0
:1010B000E4CF1F920F920FB60F9211248F939F933C
:1010C0008091E1009091E100937F9093E10083FF94
:1010D0000FC01092E90091E09093EB001092EC00A9
:1010E00092E39093ED0010925B0698E09093F000ED
:1010F00082FF22C093E09093E9009091F20099233F
:1011000019F09AE39093E8009091AF01992341F090
:101110009091AF0191509093AF01911101C05D9AF0
:1011200090915A06992341F090915A0691509093CC
:101130005A06911101C0289A84FF18C08091E200DC
:101140008E7E81608093E2008091E1008F7E8093AB
:10115000E1008091B0018E7E80618093B0019F910B
:101160008F910F900FBE0F901F90189580FFF7CFB3
:101170008091E2008E7E80618093E2008091E100A8
:101180008E7E8093E1008091B0018E7E8160E5CFFC
:101190001F920F920FB60F921124CF92DF92EF920F
:1011A000FF920F931F932F933F934F935F936F93F0
:1011B0007F938F939F93AF93BF93EF93FF93CF93BF
:1011C000DF93CDB7DEB76C97DEBFCDBF1092E900DD
:1011D0008091E80083FF25C068E0CE0145960E941B
:1011E000050282EF8093E8008D8987FF39C09091D6
:1011F000E80090FFFCCF982F907609F034C19E89CB
:101200004F89588D2F89F88C911131C0803861F544
:101210008091B1018093F1001092F1008EEF8093E4
:10122000E8006C960FB6F894DEBF0FBECDBFDF911D
:10123000CF91FF91EF91BF91AF919F918F917F914E
:101240006F915F914F913F912F911F910F91FF905F
:10125000EF90DF90CF900F900FBE0F901F901895DA
:101260009EEF9093E800C7CF1092F100D5CF913058
:1012700059F48111D3CF4130510581F68091B101EC
:101280008D7F8093B101CACF933049F48111C6CFCD
:101290004130510519F68091B1018260F2CF95304D
:1012A00041F48091E80080FFFCCF20682093E300A8
:1012B000B5CF963009F0A9C00B8D1C8D22E010929D
:1012C000E9001092AD011092AC01F2122EC0109202
:1012D000AB011092AA010E94D4011F8299E0998368
:1012E000FA8291E09E8390EA98879AEF99872091FD
:1012F000AC013091AD01275F3F4F3C832B838D8341
:101300001092E9001092AD011092AC011093AB0164
:101310000093AA0149E050E0BE016F5F7F4F80E07B
:101320000E94AE010E94D40179CF1093AB010093CB
:10133000AA010E943901DC0112960D911C91011540
:10134000110509F451C1D801ED91FC910480F5819A
:10135000E02DBE016B5E7F4FC8010995009709F033
:101360003EC1F80100851185EACFF3E0FF120EC0FF
:101370008F89882309F440C0823061F440E860E13D
:1013800085E991E00E947B01811148CF81E2809341
:10139000EB0047CF813029F440E86BE089E891E029
:1013A000F1CF833099F70E943901DC011296ED905C
:1013B000FC908E010F5F1F4F6801E114F10479F07A
:1013C000D701ED91FC910680F781E02DB801C701AE
:1013D0000995080F111DF701E084F184EECFD801C3
:1013E0001C92F60101900020E9F73197BF016C19BA
:1013F0007D0940E0C601C6CF63E771E0FB0144917F
:1014000050E080E80E94AE0109CF973009F4BECFCA
:10141000983021F481E08093F10000CF993009F0F9
:10142000FDCE837009F0B2CFEFE1F1E081E031E071
:1014300096E32191222371F08093E9003093EB0031
:10144000DF0111972C912093EC009093ED008F5FBA
:10145000873079F78EE78093EA001092EA008F894F
:1014600080935B06DBCE8B8D9C8D1092E9001092F1
:10147000AD011092AC019093AB018093AA01898DCC
:10148000811192C08E899D89913A49F4813209F087
:101490007DCF47E050E064E071E080E0B3CF91326F
:1014A00009F074CF833269F48F89988DB0E0A0E0A1
:1014B0008093000190930101A0930201B093030176
:1014C000ADCE803269F48091E80082FFFCCF67E006
:1014D00084E091E00E9405028BEF8093E8009ECEAD
:1014E000823209F09BCE8F8980930B01EEEFFFE7EC
:1014F000859194918B3F9C4D51F1E0E0F8E0809113
:10150000040190910501A0910601B0910701803B73
:101510009440A105B105F1F480910B0180FD1AC042
:10152000EE3F8AE0F80789F587E797E791838083A4
:10153000809160008093AE0188E19BE00FB6F89443
:10154000A895809360000FBE9093600067CEEEEF89
:10155000FAE0D5CF808191818737974709F05ECE39
:10156000A895809160008861809360008091AE01B1
:1015700080936000EE3F2AE0F20789F08091FE0A36
:101580009091FF0A9183808349CE80819181873732
:10159000980751F29093FF0A8093FE0AC5CF1092EC
:1015A000FF0A1092FE0A3ACE0E943901DC0112961F
:1015B0000D911C910115110509F4E8CED801ED91AA
:1015C000FC910190F081E02DBE016B5E7F4FC80160
:1015D0000995811123CEF80100851185EBCF1816EE
:1015E00019060CF41BCED2CEF1E0FF12BECE67E797
:1015F00071E004CF1F920F920FB60F9211242F9318
:101600003F938F939F93AF93BF938091B20190913B
:10161000B301A091B401B091B5013091A50123E0CF
:10162000230F2D3758F50196A11DB11D2093A5015B
:101630008093B2019093B301A093B401B093B5012C
:101640008091A6019091A701A091A801B091A90154
:101650000196A11DB11D8093A6019093A701A093AF
:10166000A801B093A901BF91AF919F918F913F9134
:101670002F910F900FBE0F901F90189526E8230F03
:101680000296A11DB11DD2CFCF93DF93CDB7DEB7A8
:1016900060970FB6F894DEBF0FBECDBF789484B5C7
:1016A000826084BD84B5816084BD85B5826085BD5E
:1016B00085B5816085BD80916E00816080936E00EC
:1016C00010928100809181008260809381008091DE
:1016D000810081608093810080918000816080938F
:1016E00080008091910082608093910080919100B0
:1016F0008160809391008091900081608093900040
:101700008091C10084608093C1008091C10082609B
:101710008093C1008091C10081608093C10080915D
:10172000C30081608093C3008091C0008260809379
:10173000C0008091C20081608093C20080917A00D5
:10174000846080937A0080917A00826080937A002E
:1017500080917A00816080937A0080917A0080681D
:1017600080937A0010925B061092B1011092B00142
:101770008091D70081608093D70080EA8093D80061
:1017800089B5806189BD89B5826089BD09B400FED3
:10179000FDCF61E070E080E090E00E945A0380910C
:1017A000D8008F7C80618093D8008091E000807F9A
:1017B0008093E0008091E1008E7E8093E1008DE0D7
:1017C0008093E200559A209A8FEF9FEF90936906DD
:1017D0008093680661E08DE00E94930261E083E1FE
:1017E0000E94930261E08DE00E94040361E082E0C8
:1017F0000E94040361E084E10E94040361E083E14C
:101800000E94040360E085E10E94040380E00E94DE
:101810009A059E012F5F3F4F59018CE596E00E948B
:101820007902892B61F18FB7F8944090B201509002
:10183000B3016090B4017090B5018FBF7EEFE72EC9
:1018400075E0F72E10E08CE596E00E9437022FB786
:10185000F8944091B2015091B3016091B40170913C
:10186000B5012FBF4419550966097709413757411A
:101870006105710530F080E491E00E940C07F12CC5
:1018800012C08F3F9807F9F2F7018D3051F08A307E
:1018900041F081937F011F5F1F34A9F689E491E035
:1018A000ECCF1082F12E0F2D0F2C000C110B011517
:1018B000110509F4CCC082E591E00E9402076F2D6A
:1018C000FF0C770B880B990B4AE00E94A10687E575
:1018D00091E00E9402076EEFE62E65E0F62EF7011A
:1018E00061917F018CE596E00E941202C7018E5F34
:1018F0009540801791079CF380E691E00E940207D3
:101900008091FE058F7D843401F50130110519F4B5
:101910001092FC0525C08091FF05803371F485E6A7
:1019200091E00E940C071092FD0580E090E0892B69
:1019300009F473CF0E94000070CF8FE691E00E94FF
:101940000C0781E08093FD05F0CF91E09093FC05BA
:10195000883561F59093FB0588E791E00E940207C6
:101960000130110539F00530110534F48091FF057F
:10197000803311F01092FC058091FC05882309F456
:101980004CC08091FF058033C9F481E08093FA0553
:101990008CE791E00E940207073011050CF5809159
:1019A000FA05811119C01092FC0516C0863509F0A0
:1019B000AFCF1092FB058AE791E0D0CF8133F1F4ED
:1019C0001092FA0581E08093F9058EE791E00E947C
:1019D0000207073011053CF38091FC05882309F1CB
:1019E0008091FA05811131C0E0E0F6E010E08191CC
:1019F0008823D1F08D32D9F71F5FF9CF823339F4C4
:101A00001092FA051092F90580E891E0E0CF10926B
:101A1000FC0581E991E00E940207073011050CF4F2
:101A2000BECF8CE991E00FC01093F80582E891E0F9
:101A30000E940207612F70E090E080E04AE00E947F
:101A4000A10685E891E00E9402070E9404078091A8
:101A5000FC05882309F4E5C128ED35E03C872B8798
:101A60002901F201119211922F0128EF35E02E1772
:101A70003F07B9F71092D7051092D6051092B6011C
:101A80001092B7011092B8011092B9018091FB0534
:101A90009091FA059923E1F00E949A0540EC56ECEA
:101AA0006DE270E0C5010E9440078C0160E08DE0AE
:101AB0000E9493020115110519F00D3011056CF10A
:101AC00040E050E0BA01C5010E9440078C01F2CF0E
:101AD0001091F9051E821D820E949A05112341F181
:101AE00068E873E180E090E00E945A0360E08DE0D6
:101AF0000E949302198652E0852E912CC4018250D7
:101B00009A4F1C01FC018081882339F08D3209F441
:101B100055C08FE891E00E948F0660E271EA87E08D
:101B200090E00E94590561E08DE00E9493020AC096
:101B300040EC56EC6DE270E0CE0105960E94400745
:101B4000892BA1F20E9404078091FD05882309F4E6
:101B5000ECCE86E991E00E94020764E0EB85FC850B
:101B600081919191FC87EB870E94180788E391E0AF
:101B70000E9402072B853C852415350571F70E94CC
:101B8000040789E991E00E9402070EEE11E020911E
:101B9000D6053091D705C8018E5E91408217930714
:101BA0000CF03CC1F80181918F0162E090E00E944D
:101BB000180788E391E00E940207E9CF8D819E819A
:101BC0009E012B5F3F4F3901282F2F70F301229385
:101BD0008F0144E0969587954A95E1F7AE16BF06CA
:101BE00009F0FCC06501FFEFFD872FEF2A87EE2487
:101BF000E394F12C1886F101EE0DFF1D30813F8337
:101C0000332309F486CFC70101969F878E87832FE0
:101C10000E941104888BEE85FF85E20DF31D808103
:101C20000E9411049F81903409F402C19E3509F08D
:101C3000D9C08F3F09F46DCFF60190818927808349
:101C40008D85F2E0EF0EF11C2F81203431F0F6018A
:101C50009081F9859F0F9F7099872FEFC21AD20A42
:101C600038853F5F3887343009F0BAC09A859F3F86
:101C700059F0F501E90FF11D97FDFA95982F398577
:101C8000931B9F709083898783E0680E711CD12C11
:101C9000C12CF80181918F0124E0CC0CDD1C2A9528
:101CA000E1F7082E000C990BC82AD92A6E167F0678
:101CB00081F78E0C9F1C83E991E00E948F0664E0FF
:101CC000C6010E94180760E28CE596E00E941202AD
:101CD00080EE0E9482056091BA017091BB018091F3
:101CE000BC019091BD010E94590581EE0E948205C0
:101CF0000E9492056091BE017091BF018091C00168
:101D00009091C1010E94590582EE0E9482050E94B5
:101D10008A056091C2017091C3018091C4019091C4
:101D2000C5010E94590583EE0E9482050E9492051A
:101D30006091C6017091C7018091C8019091C9015D
:101D40000E9459050E948A0590E1F92E86010170D2
:101D5000112786EEC0FE85EE0E9482050115110551
:101D600009F44AC06091CA017091CB018091CC0105
:101D70009091CD010E9459050E949205012B09F412
:101D800044C06091CE017091CF018091D0019091BB
:101D9000D1010E9459050E948A05D694C794FA94ED
:101DA000F110D4CF6091DA017091DB018091DC01F8
:101DB0009091DD010E94590587EE0E94820561E045
:101DC00083E10E94930240E050E0BA01CE01059603
:101DD0000E944007892B09F491CE9FCE3801F4CEA2
:101DE0008D8709CF38893F3F09F493CEF6013083C0
:101DF000EE84FF848D852BCF6091D2017091D30149
:101E00008091D4019091D501B5CF6091D6017091A8
:101E1000D7018091D8019091D901BBCF0E940407CE
:101E200084CD68EE73E080E090E00E945A037DCD9F
:101E30008F3F09F46ECEF885FA8703CFECE5F6E024
:101E40001382128288EE93E0A0E0B0E08483958351
:101E5000A683B78380E191E0918380838FEF9FEF2A
:101E6000958784870895AA1BBB1B51E107C0AA1F51
:101E7000BB1FA617B70710F0A61BB70B881F991F2B
:101E80005A95A9F780959095BC01CD010895A1E2DE
:101E90001A2EAA1BBB1BFD010DC0AA1FBB1FEE1FE4
:101EA000FF1FA217B307E407F50720F0A21BB30B2F
:101EB000E40BF50B661F771F881F991F1A9469F7AB
:101EC00060957095809590959B01AC01BD01CF0107
:101ED0000895EE0FFF1F0590F491E02D0994F894FA
:021EE000FFCF32
:101EE200FFFFFFFF00E10000000000000000000013
:101EF20012028C033302280279023702550200C112
:101F020080810000000D0A00743A2D332000743ADB
:101F12002D322000743A2D312000743A00723A00BA
:101F2200746F6F206C61746500746F6F206C6F6EDC
:101F32006700676F7420002062797465733A20002D
:101F4200202D3E20006465627567206F666600641E
:101F520065627567206F6E005800560030003100D0
:101F620032002D5B00207061636B6574735D0073DA
:0E1F72003A3F00733A00633A00643A004E00B2
:00000001FF
