:100000000C9496010C94BE010C94BE010C94BE019C
:100010000C94BE010C94BE010C94BE010C94BE0164
:100020000C94BE010C94BE010C94CF0B0C943E0CAE
:100030000C94BE010C94BE010C94BE010C94BE0144
:100040000C94BE010C94BE010C94BE010C94BE0134
:100050000C94BE010C94BE010C94BE010C94700E65
:100060000C94BE010C94BE010C94BE010C94BE0114
:100070000C94BE010C94BE010C94BE010C94BE0104
:100080000C94BE010C94BE010C94BE010C94BE01F4
:100090000C94BE010C94BE010C94BE010C94BE01E4
:1000A0000C94BE010C94BE010C94BE012057415229
:1000B0004E494E470020756E697473203D200072D2
:1000C0003A00743A00742000723A00743A2D3120DC
:1000D00000743A2D322000743A2D33200074200031
:1000E00000000000240027002A002D00300000003E
:1000F0000000250028002B002E0031000404040419
:1001000004030405020202020403020202020606BC
:100110000606060604040202020404040802011092
:100120004080401020408040800802040180402030
:100130001002011080102040402000000002000941
:100140000F0000030401000C00000000000000008C
:10015000000000000000000000080B000202020086
:10016000000904000001020200000524001001053E
:10017000240101010424020605240600010705816B
:100180000310004009040100020A000000070502F4
:100190000240000007058302400000040309041226
:1001A000010002EF020140412336800001010203F9
:1001B0000141726475696E6F204C4C43004172645A
:1001C00075696E6F204C656F6E6172646F00746F3D
:1001D0006F206C6F6E6700746F6F206C61746500C8
:1001E00043697263756974206E6F74207265636F02
:1001F000676E6973656400412D436F6D206465749B
:10020000656374656400442D436F6D206465746597
:10021000637465640044697361626C656420686935
:10022000676820283130306D73293A2000446973A3
:1002300061626C6564206C6F77202834306D73299F
:100240003A2000456E61626C6564206C6F772028EF
:1002500034306D73293A2000456E61626C6564200C
:1002600068696768202834306D73293A2000526528
:10027000666572656E6365206465636C6172656452
:100280003A207E355600733A00733A3F00613A00D7
:10029000643A0020747269676765723D0020746873
:1002A000726573686F6C643D00703A74696D696E55
:1002B000673D002870617573656429002070616373
:1002C0006B6574735D002D5B00747269676765729E
:1002D0003D00646562756720616E616C6F67200028
:1002E0006465627567206469676974616C20006485
:1002F00065627567206F666620005B7465737420A5
:10030000766F6C74616765735D00202D3E20002060
:1003100062797465733A2000676F742000070605E0
:10032000040100080A0B0C0D0900D01311241FBE94
:10033000CFEFDAE0DEBFCDBF11E0A0E0B1E0E6E94B
:10034000FCE202C005900D92A633B107D9F726E072
:10035000A6E3B1E001C01D92AD31B207E1F711E0B3
:10036000C6E9D1E004C02197FE010E944316C539B9
:10037000D107C9F70E94BA0E0C9449160C940000DC
:10038000E0E2F3E0E49190917B008E2F880F880FDC
:1003900080729F7D892B80937B00E770E064E093FF
:1003A0007C0080917A00806480937A0080917A004A
:1003B00086FDFCCF80917800909179000895FC0132
:1003C0008091CC05882311F13FB7F89482E08093A7
:1003D000E9002091F200822F90E01816190614F41B
:1003E00081E090E0882339F0289844E64093CB05DB
:1003F0004091F1004083222339F02091F200211135
:1004000003C02BE62093E8003FBF08958FEF9FEFD6
:1004100008952FB7F89483E08093E9009091E80065
:10042000892F807295FF04C09091F20080E4891BAF
:100430002FBF08958091C30581110DC082E0809384
:10044000BF0584E08093C0051092C2051092C105DB
:1004500081E08093C3058FEB95E0089590ED980FB0
:100460009A3010F4892F08959FE9980F963010F470
:10047000875508959FEB980F963010F48753089591
:100480008FEF089540914401509145012091420120
:100490003091430142175307B4F49091E8009570EE
:1004A000E1F39091E80092FD19C08093F1008091F2
:1004B00044019091450101968F739927892B19F476
:1004C0008EEF8093E8008091440190914501019660
:1004D000909345018093440181E0089580E0089560
:1004E000EF92FF920F931F93CF93DF93F82E192F64
:1004F000E62E042F81E0860F880F0E94420283E0DF
:100500000E944202CF2DD12FEC0EFD2EF11CCE15F4
:10051000DF05B9F007FF13C0FE0184910E9442027B
:10052000182F80E00E944202812321968111EFCF93
:10053000DF91CF911F910F91FF90EF9008958881E7
:10054000EDCF81E0F5CFDF92EF92FF920F931F93F3
:10055000CF93DF93D82E8A01EB017B01E40EF51EC9
:10056000CE15DF0559F0D7FE12C0FE0184910E941E
:10057000420221968111F4CF0FEF1FEFC801DF91E6
:10058000CF911F910F91FF90EF90DF900895888198
:10059000EECF0F931F93CF93DF931F92CDB7DEB7AC
:1005A00082E0898342E450E069E571E080E80E94DE
:1005B000A3020E941A02DC0112960D911C910115F2
:1005C000110589F0D801ED91FC910280F381E02DB5
:1005D000BE016F5F7F4FC801099597FD04C0F80108
:1005E00000851185ECCF89810F90DF91CF911F910C
:1005F0000F910895615030F02091F100FC012083AB
:100600000196F8CF289884E68093CB050895CF9380
:10061000DF931F92CDB7DEB76983DC01ED91FC91CA
:100620000280F381E02D41E050E0BE016F5F7F4F1B
:1006300009950F90DF91CF910895682F8DEC95E08B
:100640000C9407030F931F93CF93DF938C01D0E09B
:10065000C0E0F801EC0FFD1F6491662341F08DECC2
:1006600095E00E940703892B11F02196F2CFCE016D
:10067000DF91CF911F910F91089583E08093E9005E
:100680008091F200882319F08AE38093E8000895AE
:100690000E94090290E00895CF93DF931F92CDB797
:1006A000DEB7FC018485958597FD08C02FEF3FEFED
:1006B000358724870F90DF91CF910895CE01019661
:1006C0000E94DF01019719F4898190E0F3CF8FEF49
:1006D0009FEFF0CF0F931F93CF93DF931F92CDB770
:1006E000DEB78C01FC018485958597FF0BC0CE0198
:1006F00001960E94DF01019771F4898190E0F80171
:1007000095878487F801848595850F90DF91CF9137
:100710001F910F9108958FEF9FEFF1CFFC0184851A
:10072000958597FD0BC09FB7F89482E08093E90010
:100730008091F2009FBF90E0019608959FB7F894D2
:1007400082E08093E9008091F2009FBF90E00895DD
:10075000282F30E0F901E65CFE4F9491F901E55E47
:10076000FE4F849124503F4FF9012491222309F434
:1007700030C09923E9F091509F30D0F4E92FF0E098
:10078000EC53FC4F0C944316F203F603D303EA0335
:10079000EE03D803D803D803F903FF0303040704C7
:1007A0000D04D8031104909180009F7790938000EE
:1007B000E22FF0E0EE0FFF1FE251FF4FA591B49141
:1007C0009FB7F894EC91611132C080958E238C9381
:1007D0009FBF0895909180009F7DE8CF9091800009
:1007E000977FE4CF94B59F7794BDE2CF94B59F7D7A
:1007F000FBCF909190009F7790939000D9CF9091EC
:1008000090009F7DF9CF90919000977FF5CF9091C8
:10081000C0009F779093C000CBCF9091C0009F7D88
:10082000F9CF9091C200977F9093C200C1CF8E2BD9
:10083000CECFCF93DF9390E0FC01E55EFE4F249195
:1008400084509F4FFC0184918823D1F090E0880F61
:10085000991FFC01E052FF4FA591B491FC01E251B8
:10086000FF4FC591D49161110EC09FB7F8948C9140
:10087000E22FE0958E238C932881E223E8839FBFAB
:10088000DF91CF9108958FB7F894EC91E22BEC9320
:100890008FBFF6CF3FB7F89480913E0190913F0112
:1008A000A0914001B091410126B5A89B05C02F3F02
:1008B00019F00196A11DB11D3FBFBA2FA92F982F86
:1008C0008827BC01CD01620F711D811D911D42E081
:1008D000660F771F881F991F4A95D1F708958F9249
:1008E0009F92AF92BF92CF92DF92EF92FF924B0115
:1008F0005C010E944A046B017C010E944A046C194D
:100900007D098E099F09683E734081059105A8F312
:1009100021E0821A9108A108B10888EEC80E83E090
:10092000D81EE11CF11C81149104A104B10429F723
:10093000FF90EF90DF90CF90BF90AF909F908F90FF
:1009400008958F929F92AF92BF92CF92DF92EF92D3
:10095000FF920F931F93CF93DF936C017B018A016A
:1009600080910B01882309F45CC08091CC05882319
:1009700009F457C08091480180FF05C08091E000D4
:1009800082608093E000E801B12C8AEFA82E93E00A
:10099000892E2AE3922E209711F4BB20D9F10E94D0
:1009A000090281110AC0AA94AA20D9F161E070E07D
:1009B00080E090E00E946F04EECF8C171D0611F0CE
:1009C0000CF08C2F9FB7F8948092E9002091E800FA
:1009D00025FD02C09FBFDFCF282F30E0C21BD30B05
:1009E000F701815020F041914093F100FACFE20EDF
:1009F000F31EBB2021F09092E800B12CEBCF809148
:100A0000E80085FDE7CF9092E800BB24B3942097DF
:100A100009F3F3CF5D9884E6809347011016110621
:100A20003CF081E090E0F6019383828310E000E0E7
:100A3000C801DF91CF911F910F91FF90EF90DF9050
:100A4000CF90BF90AF909F908F900895EF92FF92BC
:100A50000F931F93CF93DF9300D000D0CDB7DEB7B5
:100A6000FC0140E0E62EF12C242F042E000C330B69
:100A70002E153F05B4F49E2F9F709A3084F0995C38
:100A800001E010E00C0F1D1F200F311FD9019C93B6
:100A900084E0F695E7958A95E1F74F5FE5CF905DA5
:100AA000EFCF6150062F10E0E1E0F0E0EC0FFD1F0A
:100AB000E00FF11F60818DEC95E00E94070301506B
:100AC000110907FFF1CF0F900F900F900F90DF915A
:100AD000CF911F910F91FF90EF9008956091500179
:100AE00070E06F5F7F4F759567956F706A3084F027
:100AF000695C8DEC95E00E9407038091500188238A
:100B000049F062E480FD61E48DEC95E00C9407030C
:100B1000605DEFCF08952091550190915001291704
:100B200090F020913E0530913F05283E93E0390733
:100B300054F4F901EA5AFE4F80832F5F3F4F309300
:100B40003F0520933E050895CF92DF92EF92FF92EA
:100B5000C0905101D0905201E0905301F0905401A7
:100B6000C114D104E104F104C1F180913601209156
:100B70007D0530917E052230310549F50E948B05B7
:100B800081E0C81AD108E108F108C0925101D09261
:100B90005201E0925301F0925401C0905101D09063
:100BA0005201E0905301F09054011C141D041E04E6
:100BB0001F049CF48C2D8F7380680E948B0586E047
:100BC000F594E794D794C7948A95D1F7DECF811135
:100BD00080E49C2D9F73892BF0CFFF90EF90DF90E6
:100BE000CF900895CF93C82F0E94A4058C2FCF914A
:100BF0000C948B054F925F926F927F928F929F928F
:100C0000AF92BF92EF92FF920F931F93CF93DF9318
:100C1000D82F0E94C0017C01C0E00E944A0480904D
:100C2000390190903A01A0903B01B0903C01240121
:100C3000350128EC420E511C611C711C00913701DA
:100C4000109138010F5F1F4F681979098A099B09B4
:100C5000693C710581059105E8F040923901509297
:100C60003A0160923B0170923C011093380100936D
:100C70003701CF5FC03189F60E944A046093390181
:100C800070933A0180933B0190933C01C0E0D111F5
:100C900020C01BC00E944A04681979098A099B096F
:100CA000683C710581059105A8F340923901509285
:100CB0003A0160923B0170923C011093380100931D
:100CC0003701CC2331F0D11104C08C2F806F0E94EA
:100CD000F2058091370160E080FD61E082E00E94D2
:100CE000A803C701880F991F8E0D9F1D35E09695AB
:100CF00087953A95E1F78034910510F08FE390E005
:100D0000D82F1091440520917D0530917E05C82F84
:100D10002230310521F0C1E0811708F4C0E0809154
:100D200036018C1729F10E94A40581E090E0A0E033
:100D3000B0E08093510190935201A0935301B0937E
:100D40005401C093360180914105D11710F4809170
:100D50004205DF91CF911F910F91FF90EF90BF90CF
:100D6000AF909F908F907F906F905F904F9008957D
:100D70008091510190915201A0915301B091540181
:100D80000196A11DB11DD5CF8F929F92AF92BF92B8
:100D9000CF92DF92EF92FF92CF93DF93C82F6A0139
:100DA0007B010E944A044B015C0180E00E94FA052D
:100DB000D82F0E944A04DC01CB0188199909AA099D
:100DC000BB09CD1729F0C816D906EA06FB0668F755
:100DD00021E0C816D906EA06FB0608F020E0822FBB
:100DE000DF91CF91FF90EF90DF90CF90BF90AF90C9
:100DF0009F908F9008958F929F92AF92BF92CF92C3
:100E0000DF92EF92FF9228EC30E040E050E00E9449
:100E1000211649015A01C12CD12C7601C814D904DC
:100E2000EA04FB0449F080E00E94FA058FEFC81A3B
:100E3000D80AE80AF80AF2CFFF90EF90DF90CF903F
:100E4000BF90AF909F908F90089561E083E10E94E2
:100E5000A8036091410584E10C94A80360914105C9
:100E600084E10E94A80360E083E10C94A8036091F0
:100E7000420584E10E94A80360E083E10C94A8038A
:100E80008093400540EA56E861E070E040936D05CC
:100E900050936E0560936F057093700540E45DE0BC
:100EA00063E070E0409371055093720560937305A1
:100EB00070937405863509F08DC081E080934105FB
:100EC000109242051092430588EB9BE0A0E0B0E051
:100ED0008093450590934605A0934705B093480538
:100EE00088E796EEA0E0B0E08093490590934A052C
:100EF000A0934B05B0934C0583E298E0A0E0B0E0EE
:100F000080934D0590934E05A0934F05B0935005E7
:100F100085E993E0A0E0B0E08093510590935205FD
:100F2000A0935305B09354058BE69AE0A0E0B0E09F
:100F30008093550590935605A0935705B093580597
:100F400083E896E0A0E0B0E08093590590935A05BD
:100F5000A0935B05B0935C0588EE93E0A0E0B0E061
:100F600080935D0590935E05A0935F05B093600547
:100F70008FE59CE0A0E0B0E080936105909362056E
:100F8000A0936305B093640580E991E0A0E0B0E030
:100F90008093650590936605A0936705B0936805F7
:100FA00089E297E0A0E0B0E08093690590936A053C
:100FB000A0936B05B0936C0588E893E1A0E0B0E0E6
:100FC0008093750590937605A0937705B093780587
:100FD00085E20AC1883509F078C081E08093410537
:100FE000109242051092430588EB9BE0A0E0B0E030
:100FF0008093450590934605A0934705B093480517
:1010000080E69AEEA0E0B0E08093490590934A050F
:10101000A0934B05B0934C0588E998E0A0E0B0E0C0
:1010200080934D0590934E05A0934F05B0935005C6
:1010300080E496E0A0E0B0E08093510590935205E3
:10104000A0935305B093540540EA5FE060E070E080
:101050004093550550935605609357057093580576
:101060008093590590935A05A0935B05B0935C0556
:1010700080935D0590935E05A0935F05B093600536
:101080004093610550936205609363057093640516
:1010900080E991E0A0E0B0E080936505909366055B
:1010A000A0936705B093680588E29AE0A0E0B0E0FD
:1010B0008093690590936A05A0936B05B0936C05C6
:1010C00088E59BE1A0E0B0E07BCF1092410591E084
:1010D000909342059093430548E853E160E070E047
:1010E0004093450550934605609347057093480526
:1010F00040E45CE960E070E04093490550934A05A4
:1011000060934B0570934C0548EF5AE260E070E045
:1011100040934D0550934E0560934F0570935005D5
:1011200040E757E160E070E040935105509352056D
:10113000609353057093540548E755E060E070E014
:101140004093550550935605609357057093580585
:1011500040E351E160E070E04093590550935A0537
:1011600060935B0570935C0540EA5FE060E070E0CF
:1011700040935D0550935E0560935F057093600535
:1011800040E456E060E070E04093610550936205F2
:10119000609363057093640548EC50E060E070E094
:1011A00040936505509366056093670570936805E5
:1011B00048EB5BE060E070E04093690550936A059E
:1011C00060936B0570936C0540E25EE460E070E054
:1011D0004093750550937605609377057093780575
:1011E000893509F0F5CE89E1809344050895FC0125
:1011F00001900020E9F73197AF01481B590BBC0162
:101200008DEC95E00C94A1048F929F92AF92BF92C7
:101210000F931F93CF93DF93CDB7DEB7A1970FB690
:10122000F894DEBF0FBECDBF19A2423008F44AE0E9
:101230008E010F5D1F4F842E912CB12CA12CA50186
:1012400094010E942116E62FB901CA01EA30F4F494
:10125000E05DD801EE938D01232B242B252B79F70C
:1012600090E080E0109719F0CD010E94F708A19658
:101270000FB6F894DEBF0FBECDBFDF91CF911F91A7
:101280000F91BF90AF909F908F900895E95CE1CF50
:1012900086E291E00C94F708CF93DF930E9422033B
:1012A000EC010E9448098C0F9D1FDF91CF9108959A
:1012B0004F925F926F927F928F929F92AF92BF9266
:1012C000CF92DF92EF92FF920F931F93CF936B0118
:1012D0007C01742EAC019B010E941C16882399F09E
:1012E00089E291E0CF911F910F91FF90EF90DF90F5
:1012F000CF90BF90AF909F908F907F906F905F90B6
:101300004F900C94F70846015701E894B7F82FEF77
:101310003FEF4FE75FE7C501B4010E941C16811142
:101320000DC02FEF3FEF4FE75FE7C501B4010E940B
:10133000521418161CF48DE291E0D4CF2FEF3FEF3A
:101340004FE75FE4C701B6010E94AA1518161CF406
:1013500081E391E0C7CF2FEF3FEF4FE75FECC7018D
:10136000B6010E94521487FDF3CF20E030E0A901BE
:10137000C701B6010E94521410E000E087FF08C0C8
:101380008DE20E941D038C01F7FAF094F7F8F094B7
:10139000C0E060E070E080E09FE37C1641F020E078
:1013A00030E040E251E40E945714CF5FF6CFA7012E
:1013B00096010E94E6132B013C010E94C9144B01C7
:1013C0005C014AE00E9404097C01E00EF11ECC237E
:1013D000B1F1C501B4010E94F8149B01AC01C30135
:1013E000B2010E94E5134B015C018EE20E941D03D5
:1013F000E80EF91EC15018F120E030E040E251E45F
:10140000C501B4010E94AF152B013C010E94C91413
:101410004B01B12CA12C4AE0C501B4010E94040982
:10142000E80EF91EC501B4010E94F8149B01AC013D
:10143000C301B2010E94E5134B015C01DBCFC70180
:10144000CF911F910F91FF90EF90DF90CF90BF90C1
:10145000AF909F908F907F906F905F904F90089586
:101460008F929F92AF92BF92CF92DF92EF92FF92B4
:101470006C01F12CE12CC701B6010E94F8144B015C
:101480005C014AE0C701B6010E94040985EB90E0C7
:101490000E94220320E030E048E950E4C501B40195
:1014A0000E94AF1520E030E040E85AE30E94AF15FB
:1014B0006B017C0141E00E9458098DE20E941D03EE
:1014C00020E030E048EA50E4C501B4010E94AF15C5
:1014D00020E030E040E85AE30E94AF1541E00E946E
:1014E000580986E50E941D032DEC3CEC4CE350E4CA
:1014F000C701B6010E94AA15181624F48CEA90E0E0
:101500000E9422038AE0FF90EF90DF90CF90BF907F
:10151000AF909F908F900C941D038F929F92AF92EB
:10152000BF92CF92DF92EF92FF920F931F93CF93D0
:10153000DF938C016A017B01C114D104E104F10441
:1015400041F4C0906D05D0906E05E0906F05F0906D
:10155000700580EC0E94F205B701A60180E00E94B0
:10156000C4068823B9F089EC0E94F2058DED90E065
:101570000E942203CCEFDFEFCE01DF91CF911F91CC
:101580000F91FF90EF90DF90CF90BF90AF909F9022
:101590008F900895809155018F5F8093550181EC64
:1015A0000E94F2054091710550917205609173059A
:1015B0007091740581E00E94C406882351F089EC83
:1015C0000E94F20587ED90E00E942203CDEFDFEF4D
:1015D000D3CF82EC0E94F205C0907505D0907605BD
:1015E000E0907705F0907805B701A60180E00E94B1
:1015F000C406882351F089EC0E94F20581ED90E049
:101600000E942203CEEFDFEFB7CF83EC0E94F205FA
:10161000B701A60181E00E94C406882351F089EC3D
:101620000E94F2058BEC90E00E942203CFEFDFEFE7
:10163000A3CF84EC0E94F205D0E0C0907505D09055
:101640007605E0907705F09078050E944A044B01FA
:101650005C0180E00E94FA05C82F0E944A04DC0168
:10166000CB0188199909AA09BB09CC2369F1C816CD
:10167000D906EA06FB0668F7C1E082EC90E00E941A
:1016800022036D2F70E090E080E04AE00E940409A0
:101690008AE30E941D03CD0FC150D0E020E130E06D
:1016A0002C1B3D0BF8018081918164E002C096956E
:1016B00087952A95E2F70E94260580E20E941D0385
:1016C00089EC0E94F20558CFC816D906EA06FB0637
:1016D00098F28090690590906A05A0906B05B09093
:1016E0006C0520914305211108C021E08816990658
:1016F000AA06BB0640F020E006C021E08816990645
:10170000AA06BB06C0F3F801808191819695879562
:1017100091838083222341F186EC0E94F205F80137
:1017200080819181906891838083B701A60181E0D7
:101730000E94C4068823E1F0C2E0DF3009F09DCFAB
:1017400088EC90E00E94220364E0F801808191819E
:101750000E94260585EC90E00E94220389EC0E94FD
:10176000F205C0E1D0E008CF85EC0E94F205DDCFA4
:10177000DF5FD03109F061CF8FEB90E00E94220350
:1017800064E0F801808191810E94260580E20E9438
:101790001D0388EC0E94F205D0E0C0E0EDCE1F9260
:1017A0000F920FB60F9211248F939F938091E100B7
:1017B0009091E100937F9093E10083FF0FC010921E
:1017C000E90091E09093EB001092EC0092E390938B
:1017D000ED001092CC0598E09093F00082FF22C0BB
:1017E00093E09093E9009091F200992319F09AE325
:1017F0009093E80090914701992341F0909147011F
:10180000915090934701911101C05D9A9091CB0541
:10181000992341F09091CB0591509093CB05911174
:1018200001C0289A84FF18C08091E2008E7E8160FA
:101830008093E2008091E1008F7E8093E1008091AF
:1018400048018E7E8061809348019F918F910F9017
:101850000FBE0F901F90189580FFF7CF8091E20088
:101860008E7E80618093E2008091E1008E7E809385
:10187000E100809148018E7E8160E5CF1F920F923A
:101880000FB60F921124CF92DF92EF92FF920F9337
:101890001F932F933F934F935F936F937F938F93F8
:1018A0009F93AF93BF93EF93FF93CF93DF93CDB706
:1018B000DEB76C97DEBFCDBF1092E9008091E800E3
:1018C00083FF25C068E0CE0145960E94FA0282EFB0
:1018D0008093E8008D8987FF39C09091E80090FFE0
:1018E000FCCF982F907609F034C19E894F89588D8E
:1018F0002F89F88C911131C0803861F580914901B0
:101900008093F1001092F1008EEF8093E8006C96C6
:101910000FB6F894DEBF0FBECDBFDF91CF91FF9120
:10192000EF91BF91AF919F918F917F916F915F9157
:101930004F913F912F911F910F91FF90EF90DF906A
:10194000CF900F900FBE0F901F9018959EEF909321
:10195000E800C7CF1092F100D5CF913059F4811132
:10196000D3CF4130510581F6809149018D7F80931D
:101970004901CACF933049F48111C6CF4130510596
:1019800019F6809149018260F2CF953041F480913F
:10199000E80080FFFCCF20682093E300B5CF9630AD
:1019A00009F0A9C00B8D1C8D22E01092E900109265
:1019B000450110924401F2122EC010924301109280
:1019C00042010E94C9021F8299E09983FA8291E044
:1019D0009E8390EA98879AEF9987209144013091ED
:1019E0004501275F3F4F3C832B838D831092E90095
:1019F000109245011092440110934301009342015B
:101A000049E050E0BE016F5F7F4F80E00E94A3027B
:101A10000E94C90279CF10934301009342010E94B2
:101A20001A02DC0112960D911C910115110509F4A1
:101A300051C1D801ED91FC910480F581E02DBE01EA
:101A40006B5E7F4FC8010995009709F03EC1F80110
:101A500000851185EACFF3E0FF120EC08F8988233D
:101A600009F440C0823061F440E860E18DEB91E020
:101A70000E947002811148CF81E28093EB0047CF32
:101A8000813029F440E86BE081EB91E0F1CF8330C5
:101A900099F70E941A02DC011296ED90FC908E01DB
:101AA0000F5F1F4F6801E114F10479F0D701ED9148
:101AB000FC910680F781E02DB801C7010995080F58
:101AC000111DF701E084F184EECFD8011C92F601DC
:101AD00001900020E9F73197BF016C197D0940E0C2
:101AE000C601C6CF6BE971E0FB01449150E080E88C
:101AF0000E94A30209CF973009F4BECF983021F499
:101B000081E08093F10000CF993009F0FDCE837021
:101B100009F0B2CFE0E2F1E081E031E096E321911B
:101B2000222371F08093E9003093EB00DF011197DD
:101B30002C912093EC009093ED008F5F873079F724
:101B40008EE78093EA001092EA008F898093CC059B
:101B5000DBCE8B8D9C8D1092E90010924501109286
:101B600044019093430180934201898D811192C079
:101B70008E899D89913A49F4813209F07DCF47E001
:101B800050E064E071E080E0B3CF913209F074CFAF
:101B9000833269F48F89988DB0E0A0E080930001D2
:101BA00090930101A0930201B0930301ADCE803266
:101BB00069F48091E80082FFFCCF67E084E091E067
:101BC0000E94FA028BEF8093E8009ECE823209F0E9
:101BD0009BCE8F8980930B01EEEFFFE78591949167
:101BE0008B3F9C4D51F1E0E0F8E080910401909131
:101BF0000501A0910601B0910701803B9440A10529
:101C0000B105F1F480910B0180FD1AC0EE3F8AE02E
:101C1000F80789F587E797E79183808380916000D3
:101C20008093460188E19BE00FB6F894A8958093D5
:101C300060000FBE9093600067CEEEEFFAE0D5CF64
:101C4000808191818737974709F05ECEA895809172
:101C500060008861809360008091460180936000FD
:101C6000EE3F2AE0F20789F08091FE0A9091FF0A88
:101C70009183808349CE808191818737980751F283
:101C80009093FF0A8093FE0AC5CF1092FF0A10922C
:101C9000FE0A3ACE0E941A02DC0112960D911C91A6
:101CA0000115110509F4E8CED801ED91FC910190E0
:101CB000F081E02DBE016B5E7F4FC8010995811157
:101CC00023CEF80100851185EBCF181619060CF408
:101CD0001BCED2CEF1E0FF12BECE6FE971E004CF91
:101CE0001F920F920FB60F9211242F933F938F9351
:101CF0009F93AF93BF9380914A0190914B01A09124
:101D00004C01B0914D0130913D0123E0230F2D375F
:101D100058F50196A11DB11D20933D0180934A0104
:101D200090934B01A0934C01B0934D0180913E01E3
:101D300090913F01A0914001B09141010196A11DF8
:101D4000B11D80933E0190933F01A0934001B09359
:101D50004101BF91AF919F918F913F912F910F9032
:101D60000FBE0F901F90189526E8230F0296A11D15
:101D7000B11DD2CFCF93DF93CDB7DEB72C970FB67F
:101D8000F894DEBF0FBECDBF789484B5826084BD69
:101D900084B5816084BD85B5826085BD85B581606F
:101DA00085BD80916E00816080936E0010928100ED
:101DB00080918100826080938100809181008160A8
:101DC0008093810080918000816080938000809169
:101DD0009100826080939100809191008160809356
:101DE0009100809190008160809390008091C1006B
:101DF00084608093C1008091C10082608093C100A3
:101E00008091C10081608093C1008091C300816096
:101E10008093C3008091C00082608093C000809155
:101E2000C20081608093C20080917A0084608093B8
:101E30007A0080917A00826080937A0080917A00A3
:101E4000816080937A0080917A00806880937A0024
:101E50001092CC0510924901109248018091D70050
:101E600081608093D70080EA8093D80089B5806133
:101E700089BD89B5826089BD09B400FEFDCF61E0EE
:101E800070E080E090E00E946F048091D8008F7C29
:101E900080618093D8008091E000807F8093E00093
:101EA0008091E1008E7E8093E1008DE08093E200DE
:101EB000559A209A8FEF9FEF9093DA058093D9057A
:101EC00061E08DE00E94190461E082E00E94190443
:101ED00061E084E10E94190461E083E10E94190439
:101EE00060E085E10E94190461E08DE00E94A80392
:101EF00086E50E9440070E9425079E012F5F3F4F05
:101F000059018DEC95E00E948E03892B51F18FB71A
:101F1000F89440904A0150904B0160904C017090B1
:101F20004D018FBF0FE715E0F12C8DEC95E00E947D
:101F30004C032FB7F89440914A0150914B016091A6
:101F40004C0170914D012FBF44195509660977095D
:101F5000413757416105710530F087ED91E00E94EE
:101F60004C09F12C12C08F3F9807F9F2F8018D301F
:101F700059F08A3049F081938F01F394FFE3FF1207
:101F8000D4CF8EEC91E0EBCF10820F2D10E0FF202C
:101F900009F4F1C188E193E00E9422036F2D70E003
:101FA00090E080E04AE00E9404098FE093E00E9404
:101FB0002203A8016FE775E08DEC95E00E94A10473
:101FC0008AE093E00E94220380917F058F7D843513
:101FD00009F0B9C08AEF92E00E944C098EE692E0C7
:101FE0000E944C0961E084E10E94A80360E083E163
:101FF0000E94A80368E270E080E090E00E946F0415
:102000000E94C0017C0160E084E10E94A803C70136
:10201000880F991F8E0D9F1D35E0969587953A95EF
:10202000E1F78034910510F08FE390E0982E88E579
:1020300092E00E942203C7010E94300A68E270E029
:1020400080E090E00E946F040E94C0017C0183E464
:1020500092E00E942203C7010E94300A61E083E1FE
:102060000E94A80368E270E080E090E00E946F04A4
:102070000E94C0016C01880F991F8C0D9D1DB5E059
:1020800096958795BA95E1F78034910510F08FE326
:1020900090E0882E8DE292E00E942203C6010E9409
:1020A000300A61E084E10E94A80364E670E080E009
:1020B00090E00E946F040E94C0016C01880F991F7C
:1020C0008C0D9D1DF5E096958795FA95E1F7803486
:1020D000910510F08FE390E0782E85E192E00E9468
:1020E0002203C6010E94300AF6E2F81508F0BAC0D1
:1020F00010924F0110924E0136E2391598F43715BF
:1021000088F4C701880F991F8E0D9F1D75E0969565
:1021100087957A95E1F78034910510F08FE390E090
:10212000882331F082E090E090934F0180934E013C
:1021300080914E0190914F01009709F0AFC086E069
:1021400092E00E944C0980917F058F7D843409F0D4
:1021500043C00130110509F43FC0809180058033F0
:1021600029F0982F9F7D9F3409F0A0C08FEE92E058
:102170000E94220310927E0510927D050530110504
:10218000D4F0809181058D32B1F4F0908305809177
:1021900082050E942E02282F220F9FEF920F90930C
:1021A00050019F2D9F7D913421F0923421F4209392
:1021B0005001181614F01092500180917D059091F5
:1021C0007E05892B49F089EC92E00E9422030E944F
:1021D0006E0580E20E941D0381E080937C05809162
:1021E0007F058F7D863509F07CC080930C010E94AD
:1021F0001D030130110539F00530110534F48091CB
:102200008005803311F010927C0580917C05882335
:1022100069F080918005803309F06FC081E0809380
:102220007B0510927A0580E30E941D03073011059B
:1022300034F480917B05811102C010927C0580915D
:102240007C05882309F47FC080917B0581117BC0C8
:10225000E1E8F5E09191992309F463C09D32D1F74B
:102260008F5FF8CF811013C021E030E030934F0131
:1022700020934E0181E0890D8719833008F43CCF0B
:1022800082E090E090934F0180934E0135CF82E041
:1022900090E090934F0180934E01ECCF019719F499
:1022A00087EF91E04ECF80EE91E04BCF813311F07C
:1022B000943459F480EE92E00E94220381E090E091
:1022C00090937E0580937D0559CF823319F0913428
:1022D00009F054CF82ED92E00E94220382E090E068
:1022E000EFCF883509F481CF893509F47ECF86E5B3
:1022F00080930C0110927C057CCF813339F41092CD
:102300007B0581E080937A0581E38ECF823329F4C7
:1023100010927B0510927A0587CF10927C058FE38F
:1023200083CF8093790586EC92E00E94220360912E
:10233000790570E090E080E04AE00E9404098CEBAF
:1023400092E00E94220380917C05811104C083EBFE
:1023500092E00E9422030E94480980917C05882314
:1023600051F080917A05882331F068E873E180E0CC
:1023700090E00E946F0410923F0510923E0510926B
:102380005101109252011092530110925401109277
:10239000550180910C010E9440070E942507809101
:1023A0007C05882309F474C081E00E94FA0581301D
:1023B00009F06EC080917B05811178C080917A050B
:1023C0001E821D8281118CC040EC56EC6DE270E0E3
:1023D000CE0105960E948D0A892B09F481C00E94C6
:1023E000480980917D0590917E05892BF1F089EA5D
:1023F00092E00E94220360910C018DEC95E00E9416
:1024000007038DE992E00E9422036091440570E089
:1024100090E080E04AE00E94040983E992E00E9493
:1024200022030E946E050E94480980917D059091CB
:102430007E05019721F480E992E00E9422038091B9
:102440007D0590917E05029721F48DE892E00E942F
:10245000220380917D0590917E05892B09F490C11E
:1024600006E511E020913E0530913F05C8018655F3
:102470009140821793070CF081C1F80181918F017F
:1024800062E090E00E94260580E20E941D03EACFF0
:102490006AEF70E080E090E00E946F0480E090E0DE
:1024A000892B09F42ECD0E9400002BCD40EC56EC78
:1024B0006DE270E0C5010E948D0A8C0160E08DE044
:1024C0000E94A8030115110519F00D301105ECF05B
:1024D00040E050E0BA01C5010E948D0A8C01F2CFA4
:1024E00060E08DE00E94A803198652E0852E912CB1
:1024F000F401E158FA4F2F018081882331F08D32A9
:1025000079F089E892E00E94220360E271EA87E0B4
:1025100090E00E94FB0661E08DE00E94A8035FCF7F
:102520008D819E819E012B5F3F4F3901282F2F7097
:10253000F30122938F0144E0969587954A95E1F740
:10254000AE16BF0609F0FBC07501FFEFFB872FEF4A
:102550002A87CC24C394D12C1886F201EC0DFD1DE2
:1025600030813F83332369F216018FEF281A380A2E
:10257000832F0E942E028C87F201E20DF31D8081D1
:102580000E942E029F81903409F404C19E3509F007
:10259000DAC08F3F09F4B5CFF70190818927808396
:1025A0008B8522E0C20ED11C3F81303431F0F7011F
:1025B0009081F9859F0F9F7099872FEFE21AF20A99
:1025C00038853F5F3887343009F0BBC09A859F3F1C
:1025D00059F0F501E90FF11D97FDFA95982F39850E
:1025E000931B9F709083898783E0680E711CF12C88
:1025F000E12CF80181918F0124E0EE0CFF1C2A955B
:10260000E1F7082E000C990BE82AF92A6E167F06CE
:1026100081F78C0C9D1C86E892E00E94220364E006
:10262000C7010E94260580E20E941D03809155018A
:102630008F5F8093550180EE0E94F2056091450501
:102640007091460580914705909148050E94FB06D0
:1026500081EE0E94F2050E94370760914905709152
:102660004A0580914B0590914C050E94FB0682EE35
:102670000E94F2050E942E0760914D0570914E0553
:1026800080914F05909150050E94FB0683EE0E94B9
:10269000F2050E94370760915105709152058091B3
:1026A0005305909154050E94FB060E942E0790E16D
:1026B000D92E87010170112786EEE0FE85EE0E947B
:1026C000F2050115110509F447C060915505709197
:1026D000560580915705909158050E94FB060E946F
:1026E0003707012B09F441C06091590570915A05D3
:1026F00080915B0590915C050E94FB060E942E076D
:10270000F694E794DA94D110D4CF60916505709176
:10271000660580916705909168050E94FB0687EE2B
:102720000E94F2050E94250740E050E0BA01CE0168
:1027300005960E948D0A892B09F4DACEE6CE38017F
:10274000F5CE8B870ACF8C858F3F09F4DACEF7015F
:10275000808361018B852BCF60915D0570915E0553
:1027600080915F0590916005B8CF6091610570918F
:1027700062058091630590916405BECF0E9448096F
:1027800080917A05882309F489CE68E873E180E0B6
:1027900090E082CE8F3F09F4B4CEF885FA8701CF5E
:1027A000EDECF5E01382128288EE93E0A0E0B0E059
:1027B00084839583A683B78381E191E091838083AD
:1027C0008FEF9FEF9587848708955058BB27AA27DE
:1027D0000E94FD130C9470150E94621538F00E943F
:1027E000691520F039F49F3F19F426F40C945F1515
:1027F0000EF4E095E7FB0C945915E92F0E94811522
:1028000058F3BA17620773078407950720F079F425
:10281000A6F50C94A3150EF4E0950B2EBA2FA02D5F
:102820000B01B90190010C01CA01A0011124FF277D
:10283000591B99F0593F50F4503E68F11A16F04078
:10284000A22F232F342F4427585FF3CF4695379577
:102850002795A795F0405395C9F77EF41F16BA0B3C
:10286000620B730B840BBAF09150A1F0FF0FBB1FEA
:10287000661F771F881FC2F70EC0BA0F621F731F33
:10288000841F48F4879577956795B795F7959E3F90
:1028900008F0B0CF9395880F08F09927EE0F979521
:1028A000879508950E94351508F481E008950E94E7
:1028B0006B140C9470150E94691558F00E946215F3
:1028C00040F029F45F3F29F00C94591551110C94F4
:1028D000A4150C945F150E94811568F39923B1F338
:1028E000552391F3951B550BBB27AA276217730736
:1028F000840738F09F5F5F4F220F331F441FAA1FCA
:10290000A9F335D00E2E3AF0E0E832D09150504085
:10291000E695001CCAF72BD0FE2F29D0660F771F33
:10292000881FBB1F261737074807AB07B0E809F019
:10293000BB0B802DBF01FF2793585F4F3AF09E3F9E
:10294000510578F00C9459150C94A4155F3FE4F3ED
:10295000983ED4F3869577956795B795F7959F5FE1
:10296000C9F7880F911D9695879597F90895E1E02D
:10297000660F771F881FBB1F621773078407BA078C
:1029800020F0621B730B840BBA0BEE1F88F7E095E7
:1029900008950E94891588F09F5798F0B92F9927BC
:1029A000B751B0F0E1F0660F771F881F991F1AF03A
:1029B000BA95C9F714C0B13091F00E94A315B1E0E7
:1029C00008950C94A315672F782F8827B85F39F0E6
:1029D000B93FCCF3869577956795B395D9F73EF4D3
:1029E00090958095709561957F4F8F4F9F4F08957B
:1029F000E89409C097FB3EF4909580957095619599
:102A00007F4F8F4F9F4F9923A9F0F92F96E9BB274E
:102A10009395F695879577956795B795F111F8CFCA
:102A2000FAF4BB0F11F460FF1BC06F5F7F4F8F4F35
:102A30009F4F16C0882311F096E911C0772321F02B
:102A40009EE8872F762F05C0662371F096E8862FC3
:102A500070E060E02AF09A95660F771F881FDAF71A
:102A6000880F9695879597F90895990F0008550F47
:102A7000AA0BE0E8FEEF16161706E807F907C0F004
:102A800012161306E407F50798F0621B730B840B0C
:102A9000950B39F40A2661F0232B242B252B21F4E6
:102AA00008950A2609F4A140A6958FEF811D811D86
:102AB000089597F99F6780E870E060E008959FEFC0
:102AC00080EC089500240A941616170618060906C5
:102AD000089500240A941216130614060506089594
:102AE000092E0394000C11F4882352F0BB0F40F41C
:102AF000BF2B11F460FF04C06F5F7F4F8F4F9F4F5C
:102B0000089557FD9058440F551F59F05F3F71F0DD
:102B10004795880F97FB991F61F09F3F79F0879544
:102B20000895121613061406551FF2CF4695F1DFCD
:102B300008C0161617061806991FF1CF869571055D
:102B4000610508940895E894BB2766277727CB0191
:102B500097F908950E94351508F48FEF08950E94A3
:102B6000C2150C9470150E94621538F00E94691508
:102B700020F0952311F00C9459150C945F15112435
:102B80000C94A4150E94811570F3959FC1F3950FC5
:102B900050E0551F629FF001729FBB27F00DB11DE1
:102BA000639FAA27F00DB11DAA1F649F6627B00D71
:102BB000A11D661F829F2227B00DA11D621F739F5A
:102BC000B00DA11D621F839FA00D611D221F749F68
:102BD0003327A00D611D231F849F600D211D822FAF
:102BE000762F6A2F11249F5750409AF0F1F08823D6
:102BF0004AF0EE0FFF1FBB1F661F771F881F915003
:102C00005040A9F79E3F510580F00C9459150C9443
:102C1000A4155F3FE4F3983ED4F3869577956795C6
:102C2000B795F795E7959F5FC1F7FE2B880F911D2C
:102C30009695879597F908950E943515880B990BFD
:102C40000895A1E21A2EAA1BBB1BFD010DC0AA1FED
:102C5000BB1FEE1FFF1FA217B307E407F50720F005
:102C6000A21BB30BE40BF50B661F771F881F991F80
:102C70001A9469F760957095809590959B01AC01C9
:102C8000BD01CF010895EE0FFF1F0590F491E02DD7
:062C90000994F894FFCF47
:102C9600FFFFFFFF00E100000000000056000000FB
:102CA600000703A10448033D038E034C036A030097
:102CB600C180810000000D0A006E616E00696E66BB
:062CC600006F76660000BD
:00000001FF
