:100000000C94C6000C94EE000C94EE000C94EE00E0
:100010000C94EE000C94EE000C94EE000C94EE00A8
:100020000C94EE000C94EE000C9496060C940507CC
:100030000C94EE000C94EE000C94EE000C94EE0088
:100040000C94EE000C94EE000C94EE000C94EE0078
:100050000C94EE000C94EE000C94EE000C94370916
:100060000C94EE000C94EE000C94EE000C94EE0058
:100070000C94EE000C94EE000C94EE000C94EE0048
:100080000C94EE000C94EE000C94EE000C94EE0038
:100090000C94EE000C94EE000C94EE000C94EE0028
:1000A0000C94EE000C94EE000C94EE00080B000291
:1000B0000202000009040000010202000005240001
:1000C0001001052401010104240206052406000193
:1000D0000705810310004009040100020A00000026
:1000E00007050202400000070583024000000403E8
:1000F000090412010002EF02014041233680000191
:100100000102030141726475696E6F204C4C43001B
:1001100041726475696E6F204C656F6E6172646FB9
:100120000000000000250028002B002E00310000F8
:10013000000000240027002A002D003000000000ED
:10014000002300260029002C002F000404040404CE
:10015000030405020202020403020202020606066A
:100160000606060404020202040404080201104008
:100170008040102040804080080204018040201010
:1001800002011080102040402000E91011241FBE01
:10019000CFEFDAE0DEBFCDBF21E0A2E5B1E001C0E4
:1001A0001D92A73EB207E1F711E0A0E0B1E0EEE357
:1001B000F7E202C005900D92A235B107D9F710E021
:1001C000C6ECD0E004C02197FE010E949D11C53C01
:1001D000D107C9F70E94C6090C949D130C94000026
:1001E000FC0180918F01882311F13FB7F89482E0E0
:1001F0008093E9002091F200822F90E018161906F2
:1002000014F481E090E0882339F0289844E6409384
:100210008E014091F1004083222339F02091F200B9
:10022000211103C02BE62093E8003FBF08958FEF14
:100230009FEF08952FB7F89483E08093E9009091A1
:10024000E800892F807295FF04C09091F20080E44D
:10025000891B2FBF08958091860181110DC082E016
:100260008093820184E08093830110928501109233
:10027000840181E08093860182E891E008954091B5
:1002800061015091620120915F013091600142173C
:100290005307B4F49091E8009570E1F39091E80071
:1002A00092FD19C08093F1008091610190916201EB
:1002B00001968F739927892B19F48EEF8093E800AC
:1002C0008091610190916201019690936201809307
:1002D000610181E0089580E00895EF92FF920F930D
:1002E0001F93CF93DF93F82E192FE62E042F81E072
:1002F000860F880F0E943F0183E00E943F01CF2DAF
:10030000D12FEC0EFD2EF11CCE15DF05B9F007FF45
:1003100013C0FE0184910E943F01182F80E00E94CB
:100320003F01812321968111EFCFDF91CF911F9162
:100330000F91FF90EF9008958881EDCF81E0F5CF88
:10034000DF92EF92FF920F931F93CF93DF93D82EFC
:100350008A01EB017B01E40EF51ECE15DF0559F095
:10036000D7FE12C0FE0184910E943F0121968111A7
:10037000F4CF0FEF1FEFC801DF91CF911F910F91C5
:10038000FF90EF90DF9008958881EECF0F931F9339
:10039000CF93DF931F92CDB7DEB782E0898342E42B
:1003A00050E06CEA70E080E80E94A0010E942B01FE
:1003B000DC0112960D911C910115110589F0D801EF
:1003C000ED91FC910280F381E02DBE016F5F7F4FC4
:1003D000C801099597FD04C0F80100851185ECCF8F
:1003E00089810F90DF91CF911F910F9108956150F6
:1003F00030F02091F100FC0120830196F8CF28987D
:1004000084E680938E010895CF93DF931F92CDB73A
:10041000DEB76983DC01ED91FC910280F381E02D70
:1004200041E050E0BE016F5F7F4F09950F90DF9173
:10043000CF91089583E08093E9008091F2008823B2
:1004400019F08AE38093E80008950E941A0190E071
:100450000895CF93DF931F92CDB7DEB7FC0184855B
:10046000958597FD08C02FEF3FEF358724870F90C4
:10047000DF91CF910895CE0101960E94F00001977F
:1004800019F4898190E0F3CF8FEF9FEFF0CF0F93B6
:100490001F93CF93DF931F92CDB7DEB78C01FC0182
:1004A0008485958597FF0BC0CE0101960E94F000D0
:1004B000019771F4898190E0F80195878487F801AC
:1004C000848595850F90DF91CF911F910F910895AD
:1004D0008FEF9FEFF1CFFC018485958597FD0BC0D1
:1004E0009FB7F89482E08093E9008091F2009FBF6B
:1004F00090E0019608959FB7F89482E08093E90018
:100500008091F2009FBF90E008953FB7F8948091EA
:100510005B0190915C01A0915D01B0915E0126B5F7
:10052000A89B05C02F3F19F00196A11DB11D3FBF2B
:10053000BA2FA92F982F8827BC01CD01620F711DFA
:10054000811D911D42E0660F771F881F991F4A95F4
:10055000D1F70895CF92DF92EF92FF920E94850229
:100560006B017C010E9485026C197D098E099F092F
:10057000683E734081059105A8F3FF90EF90DF90EE
:10058000CF9008958F929F92AF92BF92CF92DF92B9
:10059000EF92FF920F931F93CF93DF936C017B0138
:1005A0008A0180910B01882309F458C080918F0142
:1005B000882309F453C08091650180FF05C08091B4
:1005C000E00082608093E000E801B12C8AEFA82E61
:1005D00093E0892E2AE3922E209711F4BB20B9F1E3
:1005E0000E941A01811106C0AA94AA20B9F10E94A2
:1005F000AA02F2CF8C171D0611F00CF08C2F9FB7BA
:10060000F8948092E9002091E80025FD02C09FBF88
:10061000E3CF282F30E0C21BD30BF701815020F02D
:1006200041914093F100FACFE20EF31EBB2021F07E
:100630009092E800B12CEBCF8091E80085FDE7CFE8
:100640009092E800BB24B394209709F3F3CF5D9810
:1006500084E680936401101611063CF081E090E07E
:10066000F6019383828310E000E0C801DF91CF910F
:100670001F910F91FF90EF90DF90CF90BF90AF90C0
:100680009F908F900895FC01448155816081718114
:1006900083E991E00C94C2022FB7F894609157015E
:1006A000709158018091590190915A012FBF08957E
:1006B000CF92DF92EF92FF920F931F93CF93DF932E
:1006C00000E911E0D0E0C0E00E944C0360939B0180
:1006D00070939C0180939D0190939E0183E991E02A
:1006E0000E94290297FF25C00E944C03C0909B01E5
:1006F000D0909C01E0909D01F0909E016C197D09C5
:100700008E099F09C0909701D0909801E0909901BF
:10071000F0909A016C157D058E059F05F8F2CE01CB
:10072000DF91CF911F910F91FF90EF90DF90CF90CD
:100730000895F80181938F012196C330D10521F6E8
:10074000EECFFC0101900020E9F73197AF01481B83
:10075000590BBC0183E991E00C94C2020C94A103F3
:100760000F931F938B019C01EFE7F1E06491E0E6AA
:10077000F1E0E491F0E0EE0FFF1FE35CFE4FA59186
:10078000B491462FCD010E94810961157105810543
:10079000910529F06F5F7F4F8F4F9F4F9F701F9183
:1007A0000F910895CF93DF93FC01C081D1812097F1
:1007B00061F08991882349F0082E000C990B0E9462
:1007C0008513FE0131978083F4CFDF91CF91089597
:1007D0000F931F93CF93DF93EC018881998100974A
:1007E00059F02A813B812617370730F081E0DF91ED
:1007F000CF911F910F9108958B016F5F7F4F0E94E2
:10080000C812009759F0998388831B830A832C812F
:100810003D81232B59F7FC011082E8CF80E0E7CF20
:10082000CF93DF93EC0188819981009711F00E94AA
:100830003F12198218821D821C821B821A82DF914C
:10084000CF910895EF92FF920F931F93CF93DF9371
:10085000EC01FB01E080F180E114F10411F104816D
:10086000158101151105A9F08C819D81080F191FB3
:10087000B801CE010E94E803882399F028813981CC
:100880008C819D81B701820F931F0E9496131D8357
:100890000C83CE01DF91CF911F910F91FF90EF90CC
:1008A0000895CE010E941004F4CFEF92FF920F93AF
:1008B0001F93CF93DF93EC017B018A01BA010E9461
:1008C000E80381110BC0CE010E941004CE01DF911C
:1008D000CF911F910F91FF90EF9008951D830C838E
:1008E000B701888199810E949613F0CFEF92FF9211
:1008F0000F931F93CF93DF93CDB7DEB729970FB632
:10090000F894DEBF0FBECDBF8C01862FF801118297
:100910001082138212821582148240E19E012F5FA1
:100920003F4F7901B90190E00E941411F701019045
:100930000020E9F73197AF014E195F09B701C801EF
:100940000E94550429960FB6F894DEBF0FBECDBFA6
:10095000DF91CF911F910F91FF90EF900895FC01CF
:10096000118210821382128215821482FB0101907F
:100970000020E9F73197AF01461B570B0C94550443
:10098000FC0180819181009711F00C943F12089531
:10099000EF92FF920F931F93CF93DF93CDB7DEB704
:1009A00062970FB6F894DEBF0FBECDBF8C01CB01AE
:1009B000F80111821082138212821582148250E093
:1009C0009E012F5F3F4F7901B9010E94FE10F70190
:1009D00001900020E9F73197AF014E195F09B70187
:1009E000C8010E94550462960FB6F894DEBF0FBE90
:1009F000CDBFDF91CF911F910F91FF90EF900895A0
:100A00002F923F924F925F926F927F928F929F921E
:100A1000AF92BF92CF92DF92EF92FF920F931F930C
:100A2000CF93DF93CDB7DEB72D970FB6F894DEBF27
:100A30000FBECDBF6B017C010E948502C60ED71E82
:100A4000E81EF91EC0925201D0925301E092540167
:100A5000F092550191E2C92ED12C88248394912CD7
:100A600083E991E00E946B02892B09F49FC00E94E8
:100A700085020E945803809190018E3309F096C040
:100A800000919101013409F4F7C00CF0BAC0005391
:100A9000043008F08BC000937A01909180019D870B
:100AA00010E083E0E82EF12CE01AF10A892F90E0A3
:100AB0000E2C02C0959587950A94E2F780FF04C03A
:100AC0008CE291E00E94AE03C40101C0880FEA9459
:100AD000EAF72D85822B80938001909192019A33C1
:100AE0000CF4B4C030E027E391340CF420E0F801BA
:100AF000E558FE4F230F921B9083282FE0910C01A5
:100B000081FBAA24A0F8B12C41E050E0E23010F4BF
:100B100050E040E0A49EB001A59E700DB49E700D03
:100B2000112480FB222420F8312C41E050E0E11117
:100B300002C050E040E0249EC001259E900D349EEE
:100B4000900D1124860F971F22FB442440F8512C4E
:100B500041E050E0E33010F450E040E0449EB0014A
:100B6000459E700D549E700D1124860F971F23FB18
:100B7000662460F8712C21E030E0E43011F030E0C0
:100B800020E0629EA001639E500D729E500D1124C4
:100B9000840F951F21E0E817190609F020E0209343
:100BA0007F0180919101833309F441C00E94850245
:100BB000009152011091530120915401309155013F
:100BC000601771078207930708F44ACF0E948502D5
:100BD0002D960FB6F894DEBF0FBECDBFDF91CF913B
:100BE0001F910F91FF90EF90DF90CF90BF90AF904B
:100BF0009F908F907F906F905F904F903F902F903D
:100C00000895093409F44EC0033531F1083471F602
:100C100021E0209381011092800110927F011092B7
:100C20007B0110927C0110927D0110927E01289B25
:100C30000FC085B115B88FEC97E00197F1F700C0B0
:100C40000000289B07C085B115B8B0CF30E34ECF68
:100C5000289AF1CF289AAACF809192018A3354F032
:100C600020E097E381340CF490E0920F891B80938D
:100C70000C019CCF20E3F8CF809192018A3384F05D
:100C800020E097E381340CF490E0920F891B21E27D
:100C9000829FC0011124909379018093780186CFBF
:100CA00020E3F2CF80919201813561F02CF4813400
:100CB00071F087E391E008C0833589F1843509F448
:100CC00075CFF7CF80E391E00E94AE036FCF8091A4
:100CD000780190917901B6010E94751140E1CE0131
:100CE00001960E94C804CE0101960E94D20364E3DB
:100CF00071E0CE0107960E94AF04BE016F5F7F4F87
:100D0000CE0107960E9422040E944303CE0107965B
:100D10000E94C004CE0101960E94C00447CF60919A
:100D20000C01CE0101960E947604DDCF1F920F9236
:100D30000FB60F9211248F939F938091E1009091B1
:100D4000E100937F9093E10083FF0FC01092E900D0
:100D500091E09093EB001092EC0092E39093ED0001
:100D600010928F0198E09093F00082FF22C093E0F0
:100D70009093E9009091F200992319F09AE39093EF
:100D8000E80090916401992341F0909164019150A1
:100D900090936401911101C05D9A90918E01992305
:100DA00041F090918E01915090938E01911101C06C
:100DB000289A84FF18C08091E2008E7E8160809323
:100DC000E2008091E1008F7E8093E10080916501D7
:100DD0008E7E8061809365019F918F910F900FBEF1
:100DE0000F901F90189580FFF7CF8091E2008E7EC4
:100DF00080618093E2008091E1008E7E8093E1002B
:100E0000809165018E7E8160E5CF1F920F920FB6B3
:100E10000F921124CF92DF92EF92FF920F931F93C4
:100E20002F933F934F935F936F937F938F939F93F2
:100E3000AF93BF93EF93FF93CF93DF93CDB7DEB71D
:100E40006C97DEBFCDBF1092E9008091E80083FF70
:100E500025C068E0CE0145960E94F70182EF80939D
:100E6000E8008D8987FF39C09091E80090FFFCCFA2
:100E7000982F907609F034C19E894F89588D2F891B
:100E8000F88C911131C0803861F5809166018093B2
:100E9000F1001092F1008EEF8093E8006C960FB68F
:100EA000F894DEBF0FBECDBFDF91CF91FF91EF91E0
:100EB000BF91AF919F918F917F916F915F914F9172
:100EC0003F912F911F910F91FF90EF90DF90CF9066
:100ED0000F900FBE0F901F9018959EEF9093E80013
:100EE000C7CF1092F100D5CF913059F48111D3CFF3
:100EF0004130510581F6809166018D7F80936601B6
:100F0000CACF933049F48111C6CF4130510519F64B
:100F1000809166018260F2CF953041F48091E800C3
:100F200080FFFCCF20682093E300B5CF963009F016
:100F3000A9C00B8D1C8D22E01092E9001092620175
:100F400010926101F2122EC01092600110925F01A6
:100F50000E94C6011F8299E09983FA8291E09E83E4
:100F600090EA98879AEF9987209161013091620108
:100F7000275F3F4F3C832B838D831092E9001092B3
:100F80006201109261011093600100935F0149E0DA
:100F900050E0BE016F5F7F4F80E00E94A0010E9481
:100FA000C60179CF1093600100935F010E942B016D
:100FB000DC0112960D911C910115110509F451C126
:100FC000D801ED91FC910480F581E02DBE016B5EAE
:100FD0007F4FC8010995009709F03EC1F8010085CF
:100FE0001185EACFF3E0FF120EC08F89882309F440
:100FF00040C0823061F440E860E180E191E00E940D
:101000006D01811148CF81E28093EB0047CF8130A1
:1010100029F440E86BE084E091E0F1CF833099F768
:101020000E942B01DC011296ED90FC908E010F5F67
:101030001F4F6801E114F10479F0D701ED91FC91A3
:101040000680F781E02DB801C7010995080F111D31
:10105000F701E084F184EECFD8011C92F6010190F3
:101060000020E9F73197BF016C197D0940E0C60106
:10107000C6CF6EEE70E0FB01449150E080E80E9424
:10108000A00109CF973009F4BECF983021F481E058
:101090008093F10000CF993009F0FDCE837009F004
:1010A000B2CFE6E2F1E081E031E096E32191222344
:1010B00071F08093E9003093EB00DF0111972C91E0
:1010C0002093EC009093ED008F5F873079F78EE7E7
:1010D0008093EA001092EA008F8980938F01DBCE23
:1010E0008B8D9C8D1092E90010926201109261012B
:1010F0009093600180935F01898D811192C08E89E8
:101100009D89913A49F4813209F07DCF47E050E062
:1011100064E071E080E0B3CF913209F074CF8332A4
:1011200069F48F89988DB0E0A0E0809300019093DE
:101130000101A0930201B0930301ADCE803269F4A6
:101140008091E80082FFFCCF67E084E091E00E949C
:10115000F7018BEF8093E8009ECE823209F09BCEA0
:101160008F8980930B01EEEFFFE7859194918B3F80
:101170009C4D51F1E0E0F8E080910401909105016F
:10118000A0910601B0910701803B9440A105B105F3
:10119000F1F480910B0180FD1AC0EE3F8AE0F80760
:1011A00089F587E797E7918380838091600080933A
:1011B000630188E19BE00FB6F894A89580936000E6
:1011C0000FBE9093600067CEEEEFFAE0D5CF80813E
:1011D00091818737974709F05ECEA895809160008E
:1011E0008861809360008091630180936000EE3F8E
:1011F0002AE0F20789F08091FE0A9091FF0A91831C
:10120000808349CE808191818737980751F29093EE
:10121000FF0A8093FE0AC5CF1092FF0A1092FE0AC1
:101220003ACE0E942B01DC0112960D911C91011502
:10123000110509F4E8CED801ED91FC910190F081FF
:10124000E02DBE016B5E7F4FC8010995811123CE51
:10125000F80100851185EBCF181619060CF41BCE8A
:10126000D2CEF1E0FF12BECE62EF70E004CF1F924B
:101270000F920FB60F9211242F933F938F939F934A
:10128000AF93BF938091570190915801A09159015C
:10129000B0915A013091560123E0230F2D3758F5B4
:1012A0000196A11DB11D2093560180935701909383
:1012B0005801A0935901B0935A0180915B0190911C
:1012C0005C01A0915D01B0915E010196A11DB11D6F
:1012D00080935B0190935C01A0935D01B0935E01EC
:1012E000BF91AF919F918F913F912F910F900FBE22
:1012F0000F901F90189526E8230F0296A11DB11D8F
:10130000D2CFCF92DF92EF92FF920F931F93E82FED
:10131000F92F05C0015011092109310961F19081AE
:1013200096239417B9F305C0015011092109310919
:1013300011F1908196239413F7CFC12CD12CE12C7D
:10134000F12C0AC08FEFC81AD80AE80AF80A0C155F
:101350001D052E053F0579F080818623841791F3C2
:101360006C2D7D2D8E2D9F2D1F910F91FF90EF9055
:10137000DF90CF90089560E070E080E090E01F91F2
:101380000F91FF90EF90DF90CF900895CF93DF9370
:10139000CDB7DEB7A2970FB6F894DEBF0FBECDBFB4
:1013A000789484B5826084BD84B5816084BD85B540
:1013B000826085BD85B5816085BD80916E0081604C
:1013C00080936E00109281008091810082608093F2
:1013D00081008091810081608093810080918000F4
:1013E0008160809380008091910082608093910061
:1013F0008091910081608093910080919000816044
:10140000809390008091C10084608093C10080919E
:10141000C10082608093C1008091C100816080938F
:10142000C1008091C30081608093C3008091C0009F
:1014300082608093C0008091C20081608093C2006E
:1014400080917A00846080937A0080917A00826033
:1014500080937A0080917A00816080937A008091F5
:101460007A00806880937A0010928F011092660152
:10147000109265018091D70081608093D70080EA47
:101480008093D80089B5806189BD89B5826089BDA6
:1014900009B400FEFDCF0E94AA028091D8008F7C83
:1014A00080618093D8008091E000807F8093E0008D
:1014B0008091E1008E7E8093E1008DE08093E200D8
:1014C000559A209A8FEF9FEF9093A00180939F01F0
:1014D00087B117B83A9A429AE2E7F1E02491E3E53E
:1014E000F1E08491882399F090E0880F991FFC0126
:1014F000E15DFE4FA591B491FC01EF5DFE4F85913A
:1015000094918FB7F894EC912E2B2C938FBF289A3F
:101510008BE391E00E94A1038DE391E00E94A1037F
:101520002FEF44E35CE0215040405040E1F700C021
:10153000000063E0C62ED12CAA24A394B12C41E272
:10154000842E77247394339B4FC183E991E00E94EA
:101550006B02892B09F4A2C00E9485020E945803E5
:10156000809190018E3309F099C00091910101346E
:1015700009F4E0C00CF0A4C00053043008F08EC0A1
:1015800000937A019090800110E07601E01AF10A50
:10159000892D90E00E2C02C0959587950A94E2F76C
:1015A00080FF04C08CE291E00E94AE03C50101C03F
:1015B000880FEA94EAF7982A90928001809192012C
:1015C0008A330CF4A1C020E097E381340CF490E05E
:1015D000F801E558FE4F920F891B8083292DE09179
:1015E0000C0191FA222420F8312C81E090E0E230C5
:1015F00010F490E080E0289EB001299E700D389E86
:10160000700D1124992D91709F87188A41E050E048
:10161000E11102C050E040E0AF85B889A49FC0014D
:10162000A59F900DB49F900D1124860F971F22FB4C
:10163000BB27B0F9B98B1A8A41E050E0E33010F4CF
:1016400050E040E0A989BA89A49FB001A59F700D20
:10165000B49F700D1124860F971F23FBBB27B0F991
:10166000BB8B1C8A21E030E0E43011F030E020E058
:101670006B897C89629FA001639F500D729F500D02
:101680001124840F951F21E0E817190609F020E0C6
:1016900020937F0180919101833339F18091810101
:1016A000882309F450CF289A429A60ED77E080E0D1
:1016B00090E00E94000591E2792E8824839474C4FE
:1016C000093409F44CC0033529F1083439F7709214
:1016D00081011092800110927F0110927B01109283
:1016E0007C0110927D0110927E01289B0FC085B174
:1016F00015B88FEC97E00197F1F700C00000289B28
:1017000007C085B115B8CACF20E361CF289AF1CFC1
:10171000289AC4CF809192018A3354F020E097E355
:1017200081340CF490E0920F891B80930C01B6CFAA
:1017300020E3F8CF809192018A337CF020E097E398
:1017400081340CF490E0920F891B889DC001112414
:101750009093790180937801A1CF20E3F3CF80911A
:101760009201813561F02CF4813471F087E391E0CE
:1017700008C0833591F1843509F490CFF7CF80E329
:1017800091E00E94AE038ACF809178019091790117
:1017900061E270E00E94751140E1CE0107960E945F
:1017A000C804CE0107960E94D20364E371E0CE0123
:1017B00001960E94AF04BE01695F7F4FCE01019682
:1017C0000E9422040E944303CE0101960E94C0049D
:1017D000CE0107960E94C00461CF60910C01CE013A
:1017E00007960E947604DDCF0E9485026093740103
:1017F000709375018093760190937701339922C09D
:101800000E9485020091740110917501209176016A
:1018100030917701601B710B820B930B613A7F4013
:101820008105910558F38AE491E00E94AE0385B1E9
:1018300015B860E472E48FE090E00E94B00310E01D
:1018400000E02FC00E9485023B014C0160927001B4
:101850007092710180927201909273013399FECF60
:101860000E948502661977098809990961327340D7
:101870008105910518F286E491E00E94AE03109272
:1018800081011092800110927F01FFEF2FE74CE061
:10189000F15020404040E1F7D5C10031110509F475
:1018A00093C060E47FE180E090E00E94B0036115A6
:1018B00071058105910509F480C4613D774081057A
:1018C000910568F0C80183709927950101C0220F26
:1018D0008A95EAF780916F01822B80936F010F5FE9
:1018E0001F4FC80183709927892BB9F690916F011A
:1018F00080E09A3008F480E3890F9A3008F05AC0EB
:1019000090E0982E990E902F81E02BEF200F24303D
:1019100008F080E027EF290F243008F44DC020E0C4
:10192000820F9D50943008F449C090E0890FB601B1
:10193000681B71094AE0CE0107960E94C80460E462
:1019400071E0CE0101960E94AF04BE01695F7F4F36
:10195000CE0101960E9422047C019D861E86DC0138
:1019600014968D909C90BFEF8B1A9B0AB4010E9435
:10197000E803882329F1F701208131818481958151
:10198000BE01635F7F4F820F931F0E949613D701A2
:1019900015969C928E921497C7010E944303CE0124
:1019A00001960E94C004CE0107960E94C0041092C6
:1019B0006F0173CF97E3A5CF22E0B2CF93E0B6CF0C
:1019C000C7010E941004E8CF339BFECF0E9485021E
:1019D000605874448F4F9F4F60936B0170936C01FC
:1019E00080936D0190936E01289A289A429A60ED37
:1019F00077E080E090E00E94000581E2782E882464
:101A00008394DDC083E991E00E946B02892B09F485
:101A1000D2C00E9485020E945803809190018E33AB
:101A200009F0C9C000919101013409F426C10CF0FC
:101A30009EC00053043008F0BEC000937A0190901D
:101A4000800110E07601E01AF10A892D90E00E2C59
:101A500002C0959587950A94E2F780FF04C08CE256
:101A600091E00E94AE03C50101C0880FEA94EAF735
:101A7000982A90928001809192018A330CF4E7C0F9
:101A800020E097E381340CF490E0F801E558FE4F34
:101A9000920F891B8083292DE0910C0191FAFF2779
:101AA000F0F9FD8B1E8A81E090E0E23010F490E0C6
:101AB00080E04D895E89489FB001499F700D589F15
:101AC000700D1124592D51705F8B188E41E050E03C
:101AD000E11102C050E040E0AF89B88DA49FC00181
:101AE000A59F900DB49F900D1124860F971F22FB88
:101AF000BB27B0F9B98F1A8E41E050E0E33010F403
:101B000050E040E0A98DBA8DA49FB001A59F700D53
:101B1000B49F700D1124860F971F23FBBB27B0F9CC
:101B2000BB8F1C8E21E030E0E43011F030E020E08B
:101B30006B8D7C8D629FA001639F500D729F500D35
:101B40001124840F951F21E0E817190609F020E001
:101B500020937F0180919101833369F5289B79C09F
:101B600085B115B88FEC97E00197F1F71EC00934E5
:101B700009F498C0033509F470C00834E1F4809288
:101B800081011092800110927F0110927B011092CE
:101B90007C0110927D0110927E01289B56C085B178
:101BA00015B8EFECF7E03197F1F700C00000289B83
:101BB00052C085B115B880917F01811110C00E947B
:101BC000850200916B0110916C0120916D013091A3
:101BD0006E01601771078207930708F413CF85B170
:101BE00015B888B118B860EB7DEA81E090E00E94FA
:101BF0000005289A429A68E575E181E090E00E942C
:101C0000000585B115B888B118B868E575E181E0BF
:101C100090E00E94000580917F010BE711E037E71B
:101C2000832E31E0932E811182C010928101109297
:101C30008001429A289A9FEFAFE7BCE09150A04004
:101C4000B040E1F700C00000BEC0289AAACF20E350
:101C50001BCF289A87CF289AAECF809192018A33E2
:101C600054F020E097E381340CF490E0920F891B4C
:101C700080930C01A0CF20E3F8CF809192018A33AA
:101C80007CF020E097E381340CF490E0920F891B04
:101C9000879DC001112490937901809378018BCFA7
:101CA00020E3F3CF80919201813561F02CF48134EF
:101CB00071F087E391E008C0833591F1843509F430
:101CC0007ACFF7CF80E391E00E94AE0374CF80918A
:101CD00078019091790161E270E00E94751140E114
:101CE000CE0107960E94C804CE0107960E94D20337
:101CF00064E371E0CE0101960E94AF04BE01695F0A
:101D00007F4FCE0101960E9422040E944303CE0120
:101D100001960E94C004CE0107960E94C0044BCFDA
:101D200060910C01CE0107960E947604DDCFF12C64
:101D3000E12CF8018381082E000C990B0E2C02C0B7
:101D4000959587950A94E2F7289A429A80FF43C0B6
:101D500060E679E080E090E00E94000585B115B86A
:101D600088B118B868E775E080E090E00E9400054F
:101D7000FFEFEF1AFF0A24E0E216F104D1F601505A
:101D800011098016910699F6289A429A0E944C03EE
:101D90003B014C0160926701709268018092690179
:101DA00090926A01109281011092800110927F013D
:101DB0000E944C03661977098809990962307105F8
:101DC00081059105A8F380E090E0892B09F4B7CB59
:101DD0000E940000B1CB64E873E080E090E00E94D4
:101DE000000585B115B888B118B864E57BE080E0DE
:101DF00090E0BCCF83E991E00E946B02892B09F44B
:101E0000CFC00E9485020E945803809190018E33BA
:101E100009F0C6C000919101013409F465C10CF0CC
:101E20009BC00053043008F0BBC000937A0190902F
:101E3000800110E07601E01AF10A892D90E00E2C65
:101E400002C0959587950A94E2F780FF04C08CE262
:101E500091E00E94AE03C50101C0880FEA94EAF741
:101E6000982A90928001809192018A330CF426C1C5
:101E700020E097E381340CF490E0F801E558FE4F40
:101E8000920F891B8083292DE0910C0191FA9927EB
:101E900090F99D8F1E8E81E090E0E23010F490E08A
:101EA00080E0AD8DBE8DA89FB001A99F700DB89F39
:101EB000700D1124B92DB170BF8F18A241E050E010
:101EC000E11102C050E040E0AF8DB8A1A49FC00175
:101ED000A59F900DB49F900D1124860F971F22FB94
:101EE000BB27B0F9B9A31AA241E050E0E33010F4E7
:101EF00050E040E0A9A1BAA1A49FB001A59F700D38
:101F0000B49F700D1124860F971F23FB442440F8C3
:101F1000512C21E030E0E43011F030E020E0429E2E
:101F2000A001439E500D529E500D1124840F951F09
:101F300021E0E817190609F020E020937F01809145
:101F40009101833369F5289BBBC085B115B8EFECCF
:101F5000F7E03197F1F71EC0093409F4DAC0033510
:101F600009F4B2C00834E1F480928101109280013A
:101F700010927F0110927B0110927C0110927D01E2
:101F800010927E01289B98C085B115B88FEC97E020
:101F90000197F1F700C00000289B94C085B115B8E7
:101FA00080917F01811110C00E94850200916B0118
:101FB00010916C0120916D0130916E0160177107D5
:101FC0008207930708F416CF85B115B888B118B801
:101FD00060EB7DEA81E090E00E940005289A429A39
:101FE00068E575E181E090E00E94000585B115B8D3
:101FF00088B118B868E575E181E090E00E940005BD
:102000000BE711E027E7822E21E0922EF12CE12C44
:10201000D80113968C91082E000C990B0E2C02C03F
:10202000959587950A94E2F7289A429A80FFB6C060
:1020300060E679E080E090E00E94000585B115B887
:1020400088B118B868E775E080E090E00E9400056C
:10205000BFEFEB1AFB0AE4E0EE16F104C9F60150FB
:1020600011098016910691F6289A429A0E944C0313
:102070003B014C0160926701709268018092690196
:1020800090926A0180917F01811104C082E491E005
:102090000E94AE03109281011092800110927F0184
:1020A0000E944C0366197709880999096230710505
:1020B00081059105A8F387CE289A68CF20E3DCCE6E
:1020C000289A45CF289A6CCF809192018A3354F098
:1020D00020E097E381340CF490E0920F891B809309
:1020E0000C015ECF20E3F8CF809192018A337CF01F
:1020F00020E097E381340CF490E0920F891B879DD8
:10210000C0011124909379018093780149CF20E395
:10211000F3CF80919201813561F02CF4813471F01C
:1021200087E391E008C0833591F1843509F438CF15
:10213000F7CF80E391E00E94AE0332CF8091780127
:102140009091790161E270E00E94751140E1CE0149
:1021500007960E94C804CE0107960E94D20364E34A
:1021600071E0CE0101960E94AF04BE01695F7F4F0E
:10217000CE0101960E9422040E944303CE010196E3
:102180000E94C004CE0107960E94C00409CF60914E
:102190000C01CE0107960E947604DDCF64E873E05F
:1021A00080E090E00E94000585B115B888B118B8AC
:1021B00064E57BE080E090E049CF8EE491E00E940E
:1021C000AE035FEF6FE77CE0515060407040E1F795
:1021D00039CDE3E9F1E01382128288EE93E0A0E0CA
:1021E000B0E084839583A683B78387E191E09183F0
:1021F00080838FEF9FEF958784870895453251053F
:1022000020F4423010F00C940911FB011082CB0134
:102210000895BB274A3031F4992322F4BDE290950A
:1022200081959F4F0C941511BB27FB015527AA27B9
:10223000880F991FAA1FA41710F0A41B8395505153
:10224000B9F7A05DAA3308F0A95DA193009779F7CB
:10225000B111B1931192CB010C942E11DC01FC0150
:10226000672F71917723E1F7329704C07C916D93CA
:1022700070836291AE17BF07C8F308952F923F9203
:102280004F925F926F927F928F929F92AF92BF9286
:10229000CF92DF92EF92FF920F931F93CF93DF9332
:1022A000CDB7DEB7CA1BDB0B0FB6F894DEBF0FBE8F
:1022B000CDBF09942A88398848885F846E847D84DC
:1022C0008C849B84AA84B984C884DF80EE80FD80DE
:1022D0000C811B81AA81B981CE0FD11D0FB6F89454
:1022E000DEBF0FBECDBFED01089597FB072E16F49C
:1022F000009407D077FD09D00E94891107FC05D012
:102300003EF4909581959F4F0895709561957F4F0C
:102310000895AA1BBB1B51E107C0AA1FBB1FA6172C
:10232000B70710F0A61BB70B881F991F5A95A9F77E
:1023300080959095BC01CD010895EE0FFF1F05908B
:10234000F491E02D09940F931F93CF93DF93823084
:10235000910510F482E090E0E091E501F091E60152
:1023600030E020E0B0E0A0E0309799F4211531058D
:1023700009F44AC0281B390B24303105D8F58A816D
:102380009B816115710589F1FB0193838283FE01B5
:1023900011C0408151810281138148175907E0F033
:1023A0004817590799F4109761F012960C931297F9
:1023B00013961C933296CF01DF91CF911F910F910D
:1023C00008950093E5011093E601F4CF211531053E
:1023D00051F04217530738F0A901DB019A01BD0102
:1023E000DF01F801C1CFEF01F9CF9093E6018093AF
:1023F000E501CDCFFE01E20FF31F819391932250AF
:10240000310939832883D7CF2091E3013091E4014A
:10241000232B41F420910F01309110013093E401FE
:102420002093E30120910D0130910E01211531051A
:1024300041F42DB73EB74091110150911201241B78
:10244000350BE091E301F091E401E217F307A0F40A
:102450002E1B3F0B2817390778F0AC014E5F5F4FFA
:102460002417350748F04E0F5F1F5093E401409347
:10247000E301819391939FCFF0E0E0E09CCFCF9375
:10248000DF930097E9F0FC01329713821282A0914A
:10249000E501B091E601ED0130E020E01097A1F4F4
:1024A00020813181820F931F2091E3013091E4015B
:1024B0002817390709F061C0F093E401E093E301C4
:1024C000DF91CF910895EA01CE17DF07E8F54A8141
:1024D0005B819E0141155105B1F7E901FB83EA8358
:1024E00049915991C40FD51FEC17FD0761F4808104
:1024F00091810296840F951FE901998388838281D7
:1025000093819B838A83F0E0E0E012968D919C9109
:1025100013970097B9F52D913C911197CD01029633
:10252000820F931F2091E3013091E40128173907AE
:1025300039F6309751F51092E6011092E501B0930B
:10254000E401A093E301BCCFD383C28340815181D6
:10255000840F951FC817D90761F44E5F5F4F8881BC
:102560009981480F591F518340838A819B819383AE
:1025700082832115310509F0B0CFF093E601E09395
:10258000E5019ECFFD01DC01C0CF13821282D7CFBF
:10259000B0E0A0E0EEECF2E10C9440118C01009769
:1025A00051F4CB010E94A3118C01C801CDB7DEB755
:1025B000E0E10C945C11FC01E60FF71F9C01225036
:1025C0003109E217F30708F49DC0D901CD91DC91E0
:1025D0001197C617D70798F0C530D10530F3CE0153
:1025E00004978617970708F3C61BD70B2297C1934A
:1025F000D1936D937C93CF010E943F12D6CF5B01A4
:10260000AC1ABD0A4C018C0E9D1EA091E501B09143
:10261000E601512C412CF12CE12C109731F58091E1
:10262000E3019091E4018815990509F05CC0461614
:10263000570608F058C080910D0190910E01009747
:1026400041F48DB79EB74091110150911201841B46
:10265000950BE817F90708F055C0F093E401E093F3
:10266000E301F90171836083A0CF8D919C91119753
:1026700012966C90129713967C901397A815B90533
:1026800059F56C0142E0C40ED11CCA14DB0420F1E0
:10269000AC014A195B09DA011296159780F0628243
:1026A000738251834083D9016D937C93E114F104CB
:1026B00071F0D7011396FC93EE93129776CF229682
:1026C0008C0F9D1FF90191838083F301EFCFF0936D
:1026D000E601E093E50169CF4816590608F42C019C
:1026E0007D01D3019ACFCB010E94A3117C010097F9
:1026F00049F0AE01B8010E948D13C8010E943F123B
:10270000870153CF10E000E050CF9111089581561A
:102710008A5108F4805285580895FB01DC0102C0FB
:1027200001900D9241505040D8F70895FB01DC0113
:0E27300001900D920020E1F70895F894FFCF7C
:10273E00FFFFFFFF00E1000000000000010000E7C6
:10274E00018000000000000402C20225021A026B82
:10275E00022902470200C180810000003E74390048
:10276E003E6952003E69003E695A0021000D0A0082
:10277E003E003E7431003E6530003E4830003E65FE
:02278E00310018
:00000001FF
