:100000000C9458000C9480000C9480000C94800098
:100010000C9480000C9480000C9480000C94800060
:100020000C9480000C9480000C9480000C94800050
:100030000C9480000C9480000C9480000C94800040
:100040000C9467050C9480000C9435050C940F05F6
:100050000C9480000C9480000C9480000C94800020
:100060000C9480000C948000000000002500280003
:100070002B0000000000240027002A0000000000E0
:1000800023002600290004040404040404040202DA
:100090000202020203030303030301020408102007
:1000A00040800102040810200102040810201A0DEB
:1000B00011241FBECFEFD4E0DEBFCDBF22E0A0E40D
:1000C000B1E001C01D92AC30B207E1F711E0A0E051
:1000D000B1E0E0EDFFE102C005900D92A034B10760
:1000E000D9F710E0C8E5D0E004C02197FE010E94D6
:1000F000E60DC735D107C9F70E94F6050C94E60F47
:100100000C940000AF92BF92CF92DF92EF92FF92D9
:100110000F931F93CF93DF936C017B018B01040F2F
:10012000151FEB015E01AE18BF08C017D10759F0CB
:100130006991D601ED91FC910190F081E02DC6010D
:100140000995892B79F7C501DF91CF911F910F9107
:10015000FF90EF90DF90CF90BF90AF900895FC019B
:1001600044815581608171818BE691E00C9482001D
:10017000FC01538D448D252F30E0842F90E0821BAD
:10018000930B541710F0CF96089501970895FC0132
:10019000918D828D981761F0A28DAE0FBF2FB11D8A
:1001A0005D968C91928D9F5F9F73928F90E00895E2
:1001B0008FEF9FEF0895FC01918D828D981731F09C
:1001C000828DE80FF11D858D90E008958FEF9FEFF0
:1001D0000895FC01918D228D892F90E0805C9F4FC6
:1001E000821B91098F73992708958BE691E00E94F5
:1001F000E90021E0892B09F420E0822F089580E0B6
:1002000090E0892B29F00E94F50081110C940000E8
:100210000895FC01A48DA80FB92FB11DA35ABF4F9B
:100220002C91848D90E001968F739927848FA689F5
:10023000B7892C93A089B1898C91837080648C9349
:10024000938D848D981306C00288F389E02D8081F8
:100250008F7D80830895EF92FF920F931F93CF932A
:10026000DF93EC0181E0888F9B8D8C8D98131AC0F1
:10027000E889F989808185FF15C09FB7F894EE89D8
:10028000FF896083E889F989808183708064808335
:100290009FBF81E090E0DF91CF911F910F91FF9080
:1002A000EF900895F62E0B8D10E00F5F1F4F0F7328
:1002B0001127E02E8C8D8E110CC00FB607FCFACFE3
:1002C000E889F989808185FFF5CFCE010E94090177
:1002D000F1CFEB8DEC0FFD2FF11DE35AFF4FF082B4
:1002E0009FB7F8940B8FEA89FB8980818062CFCF1A
:1002F000CF93DF93EC01888D8823B9F0AA89BB895D
:10030000E889F9898C9185FD03C0808186FD0DC047
:100310000FB607FCF7CF8C9185FFF2CF808185FF68
:10032000EDCFCE010E940901E9CFDF91CF91089571
:100330003FB7F8948091490190914A01A0914B01F7
:10034000B0914C0126B5A89B05C02F3F19F001962E
:10035000A11DB11D3FBFBA2FA92F982F8827BC011F
:10036000CD01620F711D811D911D42E0660F771F47
:10037000881F991F4A95D1F708952FB7F894609177
:1003800045017091460180914701909148012FBF2E
:100390000895CF92DF92EF92FF920F931F93CF9326
:1003A000DF9308E611E0D0E0C0E00E94BD01609359
:1003B00073017093740180937501909376018BE6BD
:1003C00091E00E94C70097FF25C00E94BD01C09028
:1003D0007301D0907401E0907501F09076016C1972
:1003E0007D098E099F09C0906F01D0907001E09047
:1003F0007101F09072016C157D058E059F05F8F274
:10040000CE01DF91CF911F910F91FF90EF90DF9080
:10041000CF900895F80181938F012196C330D105C3
:1004200021F6EECFFC0101900020E9F73197AF01F2
:10043000481B590BBC018BE691E00C9482000C9494
:1004400012020F931F938B019C01EBEAF0E0649181
:10045000E7E9F0E0E491F0E0EE0FFF1FE458FF4F12
:10046000A591B491462FCD010E94B105611571058A
:100470008105910529F06F5F7F4F8F4F9F4F9F70D0
:100480001F910F910895CF93DF93FC01C081D1811B
:10049000209761F08991882349F0082E000C990B70
:1004A0000E94CE0FFE0131978083F4CFDF91CF9170
:1004B00008950F931F93CF93DF93EC018881998167
:1004C000009759F02A813B812617370730F081E0E9
:1004D000DF91CF911F910F9108958B016F5F7F4F37
:1004E0000E94110F009759F0998388831B830A8318
:1004F0002C813D81232B59F7FC011082E8CF80E04D
:10050000E7CFCF93DF93EC0188819981009711F0B9
:100510000E94880E198218821D821C821B821A82F8
:10052000DF91CF910895EF92FF920F931F93CF9396
:10053000DF93EC01FB01E080F180E114F10411F1A3
:100540000481158101151105A9F08C819D81080F89
:10055000191FB801CE010E945902882399F0288101
:1005600039818C819D81B701820F931F0E94DF0F1B
:100570001D830C83CE01DF91CF911F910F91FF90CE
:10058000EF900895CE010E948102F4CFEF92FF9286
:100590000F931F93CF93DF93EC017B018A01BA0184
:1005A0000E94590281110BC0CE010E948102CE012E
:1005B000DF91CF911F910F91FF90EF9008951D83D0
:1005C0000C83B701888199810E94DF0FF0CFEF92F1
:1005D000FF920F931F93CF93DF93CDB7DEB7299789
:1005E0000FB6F894DEBF0FBECDBF8C01862FF80189
:1005F00011821082138212821582148240E19E01C0
:100600002F5F3F4F7901B90190E00E945D0DF70126
:1006100001900020E9F73197AF014E195F09B7014A
:10062000C8010E94C60229960FB6F894DEBF0FBE1D
:10063000CDBFDF91CF911F910F91FF90EF90089563
:10064000FC01118210821382128215821482FB0136
:1006500001900020E9F73197AF01461B570B0C942E
:10066000C602FC0180819181009711F00C94880EE4
:100670000895EF92FF920F931F93CF93DF93CDB71F
:10068000DEB762970FB6F894DEBF0FBECDBF8C0108
:10069000CB01F8011182108213821282158214821A
:1006A00050E09E012F5F3F4F7901B9010E94470D35
:1006B000F70101900020E9F73197AF014E195F096A
:1006C000B701C8010E94C60262960FB6F894DEBF59
:1006D0000FBECDBFDF91CF911F910F91FF90EF9093
:1006E00008952F923F924F925F926F927F928F92D6
:1006F0009F92AF92BF92CF92DF92EF92FF920F93B1
:100700001F93CF93DF93CDB7DEB72C970FB6F89436
:10071000DEBF0FBECDBF4B015C010E949801860E6B
:10072000971EA81EB91E8092400190924101A0928E
:100730004201B092430181E2382E91E2A92EB12C00
:100740002224239423E0C22ED12C88248394912C3C
:100750008BE691E00E94E900892B09F4A2C00E9477
:1007600098010E94C901809168018E3309F099C0F7
:1007700080916901813409F4F9C00CF0BDC0805347
:10078000843008F08EC0809360012091660130E0D3
:10079000F601E81BF10902C035952795EA95E2F7C5
:1007A00020FF04C089E191E00E941F0220916001B6
:1007B00030E0C601821B930BA40102C0440F551FF9
:1007C0008A95E2F7CA0140916601482B4093660181
:1007D00080916A018A330CF4B3C050E097E381340E
:1007E0000CF490E02F593E4F950F891BF90180833F
:1007F000242FE091000141FB442440F8512C81E07A
:1008000090E0E23010F490E080E0489EB001499E14
:10081000700D589E700D112440FB662460F8712CF9
:1008200041E050E0E11102C050E040E0649EC001B0
:10083000659E900D749E900D1124860F971F22FBCC
:10084000002700F910E041E050E0E33010F450E000
:1008500040E0049FB001059F700D149F700D11249E
:10086000860F971F23FBEE24E0F8F12C21E030E007
:10087000E43011F030E020E0E29EA001E39E500D54
:10088000F29E500D1124840F951F21E0E8171906E0
:1008900009F020E02093650180916901833309F418
:1008A00040C00E9498012091400130914101409147
:1008B000420150914301621773078407950708F4BA
:1008C00047CF0E9498012C960FB6F894DEBF0FBE5A
:1008D000CDBFDF91CF911F910F91FF90EF90DF90EF
:1008E000CF90BF90AF909F908F907F906F905F90D0
:1008F0004F903F902F900895893409F44CC0833570
:1009000029F1883471F620926701109266011092E5
:1009100065011092610110926201109263011092C0
:100920006401289B0FC085B115B88FEC97E0019743
:10093000F1F700C00000289B07C085B115B8B1CF02
:1009400050E34FCF289AF1CF289AABCF80916A011C
:100950008A3354F020E097E381340CF490E0920F56
:10096000891B809300019DCF20E3F8CF80916A011D
:100970008A337CF020E097E381340CF490E0920F0E
:10098000891B839DC001112490935F0180935E01B8
:1009900088CF20E3F3CF80916A01813561F02CF498
:1009A000813471F084E291E008C0833589F18435A7
:1009B00009F477CFF7CF8DE191E00E941F0271CF4C
:1009C00080915E0190915F01B5010E94BE0D40E1F2
:1009D000CE0101960E943903CE0101960E94430286
:1009E00061E271E0CE0107960E942003BE016F5FB5
:1009F0007F4FCE0107960E9493020E94AF00CE0166
:100A000007960E943103CE0101960E94310349CF1F
:100A100060910001CE0101960E94E702DDCF1F9296
:100A20000F920FB60F9211242F933F934F935F9322
:100A30006F937F938F939F93AF93BF93EF93FF93A6
:100A40008BE691E00E940901FF91EF91BF91AF9178
:100A50009F918F917F916F915F914F913F912F91D6
:100A60000F900FBE0F901F9018951F920F920FB608
:100A70000F9211242F938F939F93EF93FF93E09105
:100A80007B01F0917C018081E0918101F0918201F4
:100A900082FD1BC09081809184018F5F8F732091B4
:100AA0008501821741F0E0918401F0E0E559FE4FA5
:100AB000958F80938401FF91EF919F918F912F915A
:100AC0000F900FBE0F901F9018958081F4CF1F924A
:100AD0000F920FB60F9211242F933F938F939F93F2
:100AE000AF93BF938091450190914601A09147013A
:100AF000B09148013091440123E0230F2D3758F580
:100B00000196A11DB11D209344018093450190934E
:100B10004601A0934701B09348018091490190910B
:100B20004A01A0914B01B0914C010196A11DB11D4C
:100B30008093490190934A01A0934B01B0934C01DB
:100B4000BF91AF919F918F913F912F910F900FBEC9
:100B50000F901F90189526E8230F0296A11DB11D36
:100B6000D2CFCF92DF92EF92FF920F931F93E82F95
:100B7000F92F05C0015011092109310961F1908156
:100B800096239417B9F305C00150110921093109C1
:100B900011F1908196239413F7CFC12CD12CE12C25
:100BA000F12C0AC08FEFC81AD80AE80AF80A0C1507
:100BB0001D052E053F0579F080818623841791F36A
:100BC0006C2D7D2D8E2D9F2D1F910F91FF90EF90FD
:100BD000DF90CF90089560E070E080E090E01F919A
:100BE0000F91FF90EF90DF90CF900895CF93DF9318
:100BF000CDB7DEB7A2970FB6F894DEBF0FBECDBF5C
:100C0000789484B5826084BD84B5816084BD85B5E7
:100C1000826085BD85B5816085BD80916E008160F3
:100C200080936E0010928100809181008260809399
:100C3000810080918100816080938100809180009B
:100C40008160809380008091B10084608093B100C6
:100C50008091B00081608093B00080917A008460C0
:100C600080937A0080917A00826080937A008091EC
:100C70007A00816080937A0080917A008068809306
:100C80007A001092C100E0917B01F0917C0182E03A
:100C90008083E0917701F09178011082E0917901F1
:100CA000F0917A0181E0808310928301E0917F01CD
:100CB000F091800186E08083E0917D01F0917E01DA
:100CC000808180618083E0917D01F0917E0180814F
:100CD00088608083E0917D01F0917E018081806851
:100CE0008083E0917D01F0917E0180818F7D808302
:100CF00087B117B83A9A429AE2EAF0E02491EEE816
:100D0000F0E08491882399F090E0880F991FFC010E
:100D1000EE58FF4FA591B491FC01E859FF4F859122
:100D200094918FB7F894EC912E2B2C938FBF289A27
:100D300088E291E00E9412028AE291E00E9412028F
:100D40002FEF44E35CE0215040405040E1F700C009
:100D5000000003E010E0E1E26E2E712CAA24A394BF
:100D6000B12C61E2F62EEE24E394339B56C18BE660
:100D700091E00E94E900892B09F4AAC00E94980121
:100D80000E94C901809168018E3309F0A1C0809151
:100D90006901813409F4E8C00CF0ACC080538430A0
:100DA00008F096C0809360012091660130E0D80180
:100DB000A81BB10902C035952795AA95E2F720FF37
:100DC00004C089E191E00E941F022091600130E09F
:100DD000C801821B930BF50102C0EE0FFF1F8A951D
:100DE000E2F7409166014E2B4093660180916A01C3
:100DF0008A330CF4A3C050E097E381340CF490E004
:100E00002F593E4F950F891BD9018C93242FE091C8
:100E1000000141FBBB27B0F9BF87188A81E090E051
:100E2000E23010F490E080E0AF85B889A89FB0016F
:100E3000A99F700DB89F700D11244170498B1A8ABB
:100E400041E050E0E11102C050E040E0A989BA89D8
:100E5000A49FC001A59F900DB49F900D1124860FF3
:100E6000971F22FBBB27B0F9BB8B1C8A41E050E0E7
:100E7000E33010F450E040E0AB89BC89A49FB0019E
:100E8000A59F700DB49F700D1124860F971F23FB33
:100E9000BB27B0F9BD8B1E8A21E030E0E43011F0B1
:100EA00030E020E06D897E89629FA001639F500D34
:100EB000729F500D1124840F951F21E0E817190629
:100EC00009F020E02093650180916901833339F1B5
:100ED00080916701882309F448CF289A429A60EDEF
:100EE00077E080E090E00E94710391E2E92EFF2418
:100EF000F39483C4893409F44CC0833529F18834D0
:100F000039F7E09267011092660110926501109224
:100F10006101109262011092630110926401289B9A
:100F20000FC085B115B88FEC97E00197F1F700C0BD
:100F30000000289B07C085B115B8CACF50E35FCF2A
:100F4000289AF1CF289AC4CF80916A018A3354F04D
:100F500020E097E381340CF490E0920F891B80939A
:100F60000001B6CF20E3F8CF80916A018A337CF08C
:100F700020E097E381340CF490E0920F891B8F9D61
:100F8000C001112490935F0180935E01A1CF20E303
:100F9000F3CF80916A01813561F02CF4813471F0D6
:100FA00084E291E008C0833589F1843509F490CF5B
:100FB000F7CF8DE191E00E941F028ACF80915E0100
:100FC00090915F01B3010E94BE0D40E1CE010796F2
:100FD0000E943903CE0107960E94430261E271E04C
:100FE000CE0101960E942003BE01695F7F4FCE01B2
:100FF00001960E9493020E94AF00CE0101960E94CA
:101000003103CE0107960E94310362CF6091000147
:10101000CE0107960E94E702DDCF0E9498016093FF
:101020005A0170935B0180935C0190935D01339949
:1010300022C00E949801C0905A01D0905B01E090BC
:101040005C01F0905D016C197D098E099F09613A80
:101050007F408105910558F387E391E00E941F02CC
:1010600085B115B860E472E48FE090E00E9421023F
:10107000F12CE12C30C00E9498016B017C01C092E0
:101080005601D0925701E0925801F09259013399DC
:10109000FECF0E9498016C197D098E099F0961326B
:1010A00073408105910518F283E391E00E941F02CD
:1010B0001092670110926601109265012FEF4FE7C1
:1010C0005CE0215040405040E1F7DEC1E0E1EE1627
:1010D000F10409F494C060E47FE180E090E00E94B4
:1010E0002102611571058105910509F497C4613DDF
:1010F00077408105910568F0C701837099279501B4
:1011000001C0220F8A95EAF780915501822B8093C6
:1011100055012FEFE21AF20AC70183709927892B34
:10112000A9F69091550180E09A3008F480E3890F88
:101130009A3008F05AC090E0982E990E9E2D81E0CA
:101140002BEF2E0D243008F080E027EF290F2430FC
:1011500008F44DC020E0820F9D50943008F449C03F
:1011600090E0890FB801681B71094AE0CE0107962B
:101170000E9439036DE271E0CE0101960E942003C6
:10118000BE01695F7F4FCE0101960E9493026C0100
:101190009D861E86DC0114968D909C90BFEF8B1A65
:1011A0009B0AB4010E945902882329F1F60120818B
:1011B000318184819581BE01635F7F4F820F931FD0
:1011C0000E94DF0FD60115969C928E921497C6014D
:1011D0000E94AF00CE0101960E943103CE01079616
:1011E0000E9431031092550171CF97E3A5CF22E001
:1011F000B2CF93E0B6CFC6010E948102E8CF339B05
:10120000FECF0E949801605874448F4F9F4F6093A7
:101210005101709352018093530190935401289A85
:10122000289A429A60ED77E080E090E00E94710396
:1012300081E2E82EFF24F394E2C08BE691E00E9465
:10124000E900892B09F4D7C00E9498010E94C901C6
:10125000809168018E3309F0CEC08091690181349C
:1012600009F42DC10CF0A3C08053843008F0C3C032
:10127000809360012091660130E0A801481B51096C
:1012800002C0359527954A95E2F720FF04C089E111
:1012900091E00E941F022091600130E0C801821B92
:1012A000930BB50102C0660F771F8A95E2F7409154
:1012B0006601462B4093660180916A018A330CF4E3
:1012C000E8C050E097E381340CF490E02F593E4F92
:1012D000950F891BD9018C93242FE091000141FBCC
:1012E000BB27B0F9BF8B188E81E090E0E23010F49C
:1012F00090E080E0AF89B88DA89FB001A99F700DE4
:10130000B89F700D11244170498F1A8E41E050E052
:10131000E11102C050E040E0A98DBA8DA49FC00148
:10132000A59F900DB49F900D1124860F971F22FB4F
:10133000BB27B0F9BB8F1C8E41E050E0E33010F4C6
:1013400050E040E0AB8DBC8DA49FB001A59F700D17
:10135000B49F700D1124860F971F23FBBB27B0F994
:10136000BD8F1E8E21E030E0E43011F030E020E04F
:101370006D8D7E8D629FA001639F500D729F500DF9
:101380001124840F951F21E0E817190609F020E0C9
:101390002093650180916901833369F5289B7BC0A7
:1013A00085B115B88FEC97E00197F1F71EC089342D
:1013B00009F49AC0833509F472C08834E1F4F092DC
:1013C00067011092660110926501109261011092FE
:1013D00062011092630110926401289B58C085B18C
:1013E00015B8EFECF7E03197F1F700C00000289B4B
:1013F00054C085B115B880916501811110C00E945B
:101400009801209151013091520140915301509126
:101410005401621773078407950708F40ECF85B14E
:1014200015B888B118B860EB7DEA81E090E00E94C1
:101430007103289A429A68E575E181E090E00E9484
:10144000710385B115B888B118B868E575E181E018
:1014500090E00E9471038091650141E6E42E41E035
:10146000F42E5DE5852E51E0952E811181C01092FC
:10147000670110926601429A289A9FEFAFE7BCE09D
:101480009150A040B040E1F700C00000BEC0289AD3
:10149000A8CF50E31ACF289A85CF289AACCF809155
:1014A0006A018A3354F020E097E381340CF490E031
:1014B000920F891B809300019ECF20E3F8CF80918B
:1014C0006A018A337CF020E097E381340CF490E0E9
:1014D000920F891B8E9DC001112490935F01809310
:1014E0005E0189CF20E3F3CF80916A01813561F0FD
:1014F0002CF4813471F084E291E008C0833589F1E5
:10150000843509F478CFF7CF8DE191E00E941F0276
:1015100072CF80915E0190915F01B3010E94BE0D78
:1015200040E1CE0107960E943903CE0107960E9442
:10153000430261E271E0CE0101960E942003BE01E8
:10154000695F7F4FCE0101960E9493020E94AF0017
:10155000CE0101960E943103CE0107960E9431030D
:101560004ACF60910001CE0107960E94E702DDCFCD
:10157000D12CC12CF7018381082E000C990B0C2C67
:1015800002C0959587950A94E2F7289A429A80FFBF
:1015900049C060E679E080E090E00E94710385B187
:1015A00015B888B118B868E775E080E090E00E944F
:1015B0007103FFEFCF1ADF0A24E0C216D104D1F67F
:1015C00041E0E41AF1088E149F0491F6289A429A99
:1015D0000E94BD016B017C01C0924D01D0924E0171
:1015E000E0924F01F0925001109267011092660153
:1015F000109265010E94BD016C197D098E099F0939
:101600006230710581059105A8F380E090E0892B97
:1016100009F4A7CB0E94F500882309F49FCB0E9410
:10162000000099CB64E873E080E090E00E947103D1
:1016300085B115B888B118B864E57BE080E090E02A
:10164000B6CF8BE691E00E94E900892B09F4D1C066
:101650000E9498010E94C901809168018E3309F0AF
:10166000C8C080916901813409F470C10CF09DC03B
:101670008053843008F0BDC08093600120916601E2
:1016800030E0D801A81BB10902C035952795AA956D
:10169000E2F720FF04C089E191E00E941F0220913F
:1016A000600130E0C801821B930BF50102C0EE0F10
:1016B000FF1F8A95E2F7409166014E2B4093660129
:1016C00080916A018A330CF42BC150E097E3813496
:1016D0000CF490E02F593E4F950F891BD9018C9344
:1016E000242FE091000141FBBB27B0F9BF8F18A266
:1016F00081E090E0E23010F490E080E0AF8DB8A19E
:10170000A89FB001A99F700DB89F700D1124417062
:1017100049A31AA241E050E0E11102C050E040E0CC
:10172000A9A1BAA1A49FC001A59F900DB49F900D3F
:101730001124860F971F22FB222420F8312C41E030
:1017400050E0E33010F450E040E0249EB001259ECC
:10175000700D349E700D1124860F971F23FB4424B7
:1017600040F8512C21E030E0E43011F030E020E08E
:10177000429EA001439E500D529E500D1124840F95
:10178000951F21E0E817190609F020E02093650174
:1017900080916901833369F5289BC4C085B115B870
:1017A000EFECF7E03197F1F71EC0893409F4E3C09C
:1017B000833509F4BBC08834E1F4F09267011092DC
:1017C00066011092650110926101109262011092FF
:1017D000630110926401289BA1C085B115B88FECFC
:1017E00097E00197F1F700C00000289B9DC085B1EC
:1017F00015B880916501811110C00E949801209157
:10180000510130915201409153015091540162179E
:1018100073078407950708F414CF85B115B888B10C
:1018200018B860EB7DEA81E090E00E947103289A8D
:10183000429A68E575E181E090E00E94710385B10C
:1018400015B888B118B868E575E181E090E00E94AC
:10185000710321E6E22E21E0F22E3DE5832E31E0F8
:10186000932ED12CC12CD70113968C91082E000CED
:10187000990B0C2C02C0959587950A94E2F7289A4B
:10188000429A80FFBCC060E679E080E090E00E9470
:10189000710385B115B888B118B868E775E080E0C4
:1018A00090E00E947103BFEFCB1ADB0AE4E0CE1692
:1018B000D104C9F6F1E0EF1AF1088E149F0489F6FD
:1018C000289A429A0E94BD0160934D0170934E0187
:1018D00080934F019093500180916501811104C064
:1018E0008FE291E00E941F02109267011092660140
:1018F000109265010E94BD01C0904D01D0904E0133
:10190000E0904F01F09050016C197D098E099F09FC
:10191000623071058105910568F377CE289A5FCF13
:1019200050E3D7CE289A3CCF289A63CF80916A01A2
:101930008A3354F020E097E381340CF490E0920F66
:10194000891B8093000155CF20E3F8CF80916A0175
:101950008A337CF020E097E381340CF490E0920F1E
:10196000891B8E9DC001112490935F0180935E01BD
:1019700040CF20E3F3CF80916A01813561F02CF4F0
:10198000813471F084E291E008C0833589F18435B7
:1019900009F42FCFF7CF8DE191E00E941F0229CFEC
:1019A00080915E0190915F01B3010E94BE0D40E104
:1019B000CE0107960E943903CE0107960E9443028A
:1019C00061E271E0CE0101960E942003BE01695FD1
:1019D0007F4FCE0101960E9493020E94AF00CE017C
:1019E00001960E943103CE0107960E94310301CF78
:1019F00060910001CE0107960E94E702DDCF64E806
:101A000073E080E090E00E94710385B115B888B161
:101A100018B864E57BE080E090E043CF8BE391E091
:101A20000E941F026FEF7FE78CE0615070408040A2
:101A3000E1F72ACDEBE6F1E01382128288EE93E023
:101A4000A0E0B0E084839583A683B7838BE091E028
:101A50009183808385EC90E09587848784EC90E087
:101A60009787868780EC90E0918B808B81EC90E06B
:101A7000938B828B82EC90E0958B848B86EC90E04C
:101A8000978B868B118E128E138E148E089545328D
:101A9000510520F4423010F00C94520DFB011082DD
:101AA000CB010895BB274A3031F4992322F4BDE2DB
:101AB000909581959F4F0C945E0DBB27FB01552798
:101AC000AA27880F991FAA1FA41710F0A41B83959B
:101AD0005051B9F7A05DAA3308F0A95DA193009712
:101AE00079F7B111B1931192CB010C94770DDC0110
:101AF000FC01672F71917723E1F7329704C07C9145
:101B00006D9370836291AE17BF07C8F308952F924B
:101B10003F924F925F926F927F928F929F92AF927D
:101B2000BF92CF92DF92EF92FF920F931F93CF93CA
:101B3000DF93CDB7DEB7CA1BDB0B0FB6F894DEBF61
:101B40000FBECDBF09942A88398848885F846E8487
:101B50007D848C849B84AA84B984C884DF80EE80D1
:101B6000FD800C811B81AA81B981CE0FD11D0FB6DA
:101B7000F894DEBF0FBECDBFED01089597FB072E91
:101B800016F4009407D077FD09D00E94D20D07FC0F
:101B900005D03EF4909581959F4F0895709561957D
:101BA0007F4F0895AA1BBB1B51E107C0AA1FBB1F93
:101BB000A617B70710F0A61BB70B881F991F5A95D9
:101BC000A9F780959095BC01CD010895EE0FFF1FF8
:101BD0000590F491E02D09940F931F93CF93DF9319
:101BE0008230910510F482E090E0E0910A02F091D9
:101BF0000B0230E020E0B0E0A0E0309799F421152E
:101C0000310509F44AC0281B390B24303105D8F5B9
:101C10008A819B816115710589F1FB019383828320
:101C2000FE0111C04081518102811381481759077B
:101C3000E0F04817590799F4109761F012960C9349
:101C4000129713961C933296CF01DF91CF911F917B
:101C50000F91089500930A0210930B02F4CF2115FF
:101C6000310551F04217530738F0A901DB019A0101
:101C7000BD01DF01F801C1CFEF01F9CF90930B0255
:101C800080930A02CDCFFE01E20FF31F819391935F
:101C90002250310939832883D7CF2091080230910F
:101CA0000902232B41F42091030130910401309368
:101CB00009022093080220910101309102012115AF
:101CC000310541F42DB73EB7409105015091060111
:101CD000241B350BE0910802F0910902E217F3078B
:101CE000A0F42E1B3F0B2817390778F0AC014E5F8C
:101CF0005F4F2417350748F04E0F5F1F50930902BE
:101D000040930802819391939FCFF0E0E0E09CCF55
:101D1000CF93DF930097E9F0FC0132971382128290
:101D2000A0910A02B0910B02ED0130E020E0109783
:101D3000A1F420813181820F931F209108023091FC
:101D400009022817390709F061C0F0930902E093EE
:101D50000802DF91CF910895EA01CE17DF07E8F579
:101D60004A815B819E0141155105B1F7E901FB8371
:101D7000EA8349915991C40FD51FEC17FD0761F40F
:101D8000808191810296840F951FE9019983888350
:101D9000828193819B838A83F0E0E0E012968D91AB
:101DA0009C9113970097B9F52D913C911197CD0116
:101DB0000296820F931F2091080230910902281782
:101DC000390739F6309751F510920B0210920A023A
:101DD000B0930902A0930802BCCFD383C283408191
:101DE0005181840F951FC817D90761F44E5F5F4F6B
:101DF00088819981480F591F518340838A819B8133
:101E0000938382832115310509F0B0CFF0930B0243
:101E1000E0930A029ECFFD01DC01C0CF1382128243
:101E2000D7CFB0E0A0E0E7E1FFE00C94890D8C0192
:101E3000009751F4CB010E94EC0D8C01C801CDB785
:101E4000DEB7E0E10C94A50DFC01E60FF71F9C0145
:101E500022503109E217F30708F49DC0D901CD9152
:101E6000DC911197C617D70798F0C530D10530F32C
:101E7000CE0104978617970708F3C61BD70B229746
:101E8000C193D1936D937C93CF010E94880ED6CFDE
:101E90005B01AC1ABD0A4C018C0E9D1EA0910A027A
:101EA000B0910B02512C412CF12CE12C109731F503
:101EB00080910802909109028815990509F05CC08B
:101EC0004616570608F058C0809101019091020112
:101ED000009741F48DB79EB74091050150910601DE
:101EE000841B950BE817F90708F055C0F093090219
:101EF000E0930802F90171836083A0CF8D919C91DA
:101F0000119712966C90129713967C901397A815C0
:101F1000B90559F56C0142E0C40ED11CCA14DB04AA
:101F200020F1AC014A195B09DA011296159780F08D
:101F30006282738251834083D9016D937C93E11453
:101F4000F10471F0D7011396FC93EE93129776CFBC
:101F500022968C0F9D1FF90191838083F301EFCFAF
:101F6000F0930B02E0930A0269CF4816590608F471
:101F70002C017D01D3019ACFCB010E94EC0D7C0195
:101F8000009749F0AE01B8010E94D60FC8010E9427
:101F9000880E870153CF10E000E050CF91110895D3
:101FA00081568A5108F4805285580895FB01DC015E
:101FB00002C001900D9241505040D8F70895FB01A6
:101FC000DC0101900D920020E1F70895F894FFCF15
:101FD0000100000C028000000000002B018200B80C
:101FE000007801E900C700DB003E7439003E695209
:101FF000003E69003E695A0021000D0A003E003E85
:102000007431003E6530003E4830003E65310000CE
:00000001FF
